{
  "_format": "hh-sol-artifact-1",
  "contractName": "GAToken",
  "sourceName": "contracts/GAToken.sol",
  "abi": [
    {
      "inputs": [],
      "stateMutability": "nonpayable",
      "type": "constructor"
    },
    {
      "anonymous": false,
      "inputs": [
        {
          "indexed": true,
          "internalType": "address",
          "name": "owner",
          "type": "address"
        },
        {
          "indexed": true,
          "internalType": "address",
          "name": "approved",
          "type": "address"
        },
        {
          "indexed": true,
          "internalType": "uint256",
          "name": "tokenId",
          "type": "uint256"
        }
      ],
      "name": "Approval",
      "type": "event"
    },
    {
      "anonymous": false,
      "inputs": [
        {
          "indexed": true,
          "internalType": "address",
          "name": "owner",
          "type": "address"
        },
        {
          "indexed": true,
          "internalType": "address",
          "name": "operator",
          "type": "address"
        },
        {
          "indexed": false,
          "internalType": "bool",
          "name": "approved",
          "type": "bool"
        }
      ],
      "name": "ApprovalForAll",
      "type": "event"
    },
    {
      "anonymous": false,
      "inputs": [
        {
          "indexed": true,
          "internalType": "address",
          "name": "owner",
          "type": "address"
        },
        {
          "indexed": false,
          "internalType": "uint256",
          "name": "id",
          "type": "uint256"
        }
      ],
      "name": "NewTokenData",
      "type": "event"
    },
    {
      "anonymous": false,
      "inputs": [
        {
          "indexed": true,
          "internalType": "address",
          "name": "previousOwner",
          "type": "address"
        },
        {
          "indexed": true,
          "internalType": "address",
          "name": "newOwner",
          "type": "address"
        }
      ],
      "name": "OwnershipTransferred",
      "type": "event"
    },
    {
      "anonymous": false,
      "inputs": [
        {
          "indexed": true,
          "internalType": "address",
          "name": "from",
          "type": "address"
        },
        {
          "indexed": true,
          "internalType": "address",
          "name": "to",
          "type": "address"
        },
        {
          "indexed": true,
          "internalType": "uint256",
          "name": "tokenId",
          "type": "uint256"
        }
      ],
      "name": "Transfer",
      "type": "event"
    },
    {
      "inputs": [],
      "name": "addFunds",
      "outputs": [],
      "stateMutability": "payable",
      "type": "function"
    },
    {
      "inputs": [
        {
          "internalType": "address",
          "name": "to",
          "type": "address"
        },
        {
          "internalType": "uint256",
          "name": "tokenId",
          "type": "uint256"
        }
      ],
      "name": "approve",
      "outputs": [],
      "stateMutability": "nonpayable",
      "type": "function"
    },
    {
      "inputs": [
        {
          "internalType": "address",
          "name": "_to",
          "type": "address"
        },
        {
          "internalType": "uint256",
          "name": "_tokenId",
          "type": "uint256"
        }
      ],
      "name": "approveForAdmin",
      "outputs": [],
      "stateMutability": "nonpayable",
      "type": "function"
    },
    {
      "inputs": [
        {
          "internalType": "address",
          "name": "owner",
          "type": "address"
        }
      ],
      "name": "balanceOf",
      "outputs": [
        {
          "internalType": "uint256",
          "name": "",
          "type": "uint256"
        }
      ],
      "stateMutability": "view",
      "type": "function"
    },
    {
      "inputs": [
        {
          "internalType": "uint256",
          "name": "tokenId",
          "type": "uint256"
        }
      ],
      "name": "getApproved",
      "outputs": [
        {
          "internalType": "address",
          "name": "",
          "type": "address"
        }
      ],
      "stateMutability": "view",
      "type": "function"
    },
    {
      "inputs": [],
      "name": "getTokenData",
      "outputs": [
        {
          "components": [
            {
              "internalType": "uint256",
              "name": "tokenId",
              "type": "uint256"
            },
            {
              "internalType": "address",
              "name": "owner",
              "type": "address"
            }
          ],
          "internalType": "struct GAToken.TokenData[]",
          "name": "",
          "type": "tuple[]"
        }
      ],
      "stateMutability": "view",
      "type": "function"
    },
    {
      "inputs": [
        {
          "internalType": "address",
          "name": "owner",
          "type": "address"
        },
        {
          "internalType": "address",
          "name": "operator",
          "type": "address"
        }
      ],
      "name": "isApprovedForAll",
      "outputs": [
        {
          "internalType": "bool",
          "name": "",
          "type": "bool"
        }
      ],
      "stateMutability": "view",
      "type": "function"
    },
    {
      "inputs": [
        {
          "internalType": "address",
          "name": "recipient",
          "type": "address"
        },
        {
          "internalType": "string",
          "name": "tokenURI",
          "type": "string"
        }
      ],
      "name": "mintTo",
      "outputs": [],
      "stateMutability": "payable",
      "type": "function"
    },
    {
      "inputs": [
        {
          "internalType": "address[]",
          "name": "addresses",
          "type": "address[]"
        },
        {
          "internalType": "string[]",
          "name": "tokenURI",
          "type": "string[]"
        },
        {
          "internalType": "uint8",
          "name": "numberOfTokens",
          "type": "uint8"
        }
      ],
      "name": "mintToUser",
      "outputs": [],
      "stateMutability": "payable",
      "type": "function"
    },
    {
      "inputs": [],
      "name": "name",
      "outputs": [
        {
          "internalType": "string",
          "name": "",
          "type": "string"
        }
      ],
      "stateMutability": "view",
      "type": "function"
    },
    {
      "inputs": [],
      "name": "owner",
      "outputs": [
        {
          "internalType": "address",
          "name": "",
          "type": "address"
        }
      ],
      "stateMutability": "view",
      "type": "function"
    },
    {
      "inputs": [
        {
          "internalType": "uint256",
          "name": "tokenId",
          "type": "uint256"
        }
      ],
      "name": "ownerOf",
      "outputs": [
        {
          "internalType": "address",
          "name": "",
          "type": "address"
        }
      ],
      "stateMutability": "view",
      "type": "function"
    },
    {
      "inputs": [],
      "name": "renounceOwnership",
      "outputs": [],
      "stateMutability": "nonpayable",
      "type": "function"
    },
    {
      "inputs": [
        {
          "internalType": "address",
          "name": "from",
          "type": "address"
        },
        {
          "internalType": "address",
          "name": "to",
          "type": "address"
        },
        {
          "internalType": "uint256",
          "name": "tokenId",
          "type": "uint256"
        }
      ],
      "name": "safeTransferFrom",
      "outputs": [],
      "stateMutability": "nonpayable",
      "type": "function"
    },
    {
      "inputs": [
        {
          "internalType": "address",
          "name": "from",
          "type": "address"
        },
        {
          "internalType": "address",
          "name": "to",
          "type": "address"
        },
        {
          "internalType": "uint256",
          "name": "tokenId",
          "type": "uint256"
        },
        {
          "internalType": "bytes",
          "name": "_data",
          "type": "bytes"
        }
      ],
      "name": "safeTransferFrom",
      "outputs": [],
      "stateMutability": "nonpayable",
      "type": "function"
    },
    {
      "inputs": [
        {
          "internalType": "address",
          "name": "operator",
          "type": "address"
        },
        {
          "internalType": "bool",
          "name": "approved",
          "type": "bool"
        }
      ],
      "name": "setApprovalForAll",
      "outputs": [],
      "stateMutability": "nonpayable",
      "type": "function"
    },
    {
      "inputs": [
        {
          "internalType": "bytes4",
          "name": "interfaceId",
          "type": "bytes4"
        }
      ],
      "name": "supportsInterface",
      "outputs": [
        {
          "internalType": "bool",
          "name": "",
          "type": "bool"
        }
      ],
      "stateMutability": "view",
      "type": "function"
    },
    {
      "inputs": [],
      "name": "symbol",
      "outputs": [
        {
          "internalType": "string",
          "name": "",
          "type": "string"
        }
      ],
      "stateMutability": "view",
      "type": "function"
    },
    {
      "inputs": [
        {
          "internalType": "uint256",
          "name": "",
          "type": "uint256"
        }
      ],
      "name": "tokenData",
      "outputs": [
        {
          "internalType": "uint256",
          "name": "tokenId",
          "type": "uint256"
        },
        {
          "internalType": "address",
          "name": "owner",
          "type": "address"
        }
      ],
      "stateMutability": "view",
      "type": "function"
    },
    {
      "inputs": [
        {
          "internalType": "uint256",
          "name": "tokenId",
          "type": "uint256"
        }
      ],
      "name": "tokenURI",
      "outputs": [
        {
          "internalType": "string",
          "name": "",
          "type": "string"
        }
      ],
      "stateMutability": "view",
      "type": "function"
    },
    {
      "inputs": [],
      "name": "totalSupply",
      "outputs": [
        {
          "internalType": "uint256",
          "name": "",
          "type": "uint256"
        }
      ],
      "stateMutability": "view",
      "type": "function"
    },
    {
      "inputs": [
        {
          "internalType": "address",
          "name": "from",
          "type": "address"
        },
        {
          "internalType": "address",
          "name": "to",
          "type": "address"
        },
        {
          "internalType": "uint256",
          "name": "tokenId",
          "type": "uint256"
        }
      ],
      "name": "transferFrom",
      "outputs": [],
      "stateMutability": "nonpayable",
      "type": "function"
    },
    {
      "inputs": [
        {
          "internalType": "address",
          "name": "_from",
          "type": "address"
        },
        {
          "internalType": "address",
          "name": "_to",
          "type": "address"
        },
        {
          "internalType": "uint256",
          "name": "_tokenId",
          "type": "uint256"
        }
      ],
      "name": "transferNFT",
      "outputs": [],
      "stateMutability": "nonpayable",
      "type": "function"
    },
    {
      "inputs": [
        {
          "internalType": "address",
          "name": "newOwner",
          "type": "address"
        }
      ],
      "name": "transferOwnership",
      "outputs": [],
      "stateMutability": "nonpayable",
      "type": "function"
    },
    {
      "inputs": [
        {
          "internalType": "uint256",
          "name": "withdrawAmount",
          "type": "uint256"
        }
      ],
      "name": "withdraw",
      "outputs": [],
      "stateMutability": "nonpayable",
      "type": "function"
    }
  ],
  "bytecode": "0x60806040523480156200001157600080fd5b506040518060400160405280600a81526020017f54657374696e674e4654000000000000000000000000000000000000000000008152506040518060400160405280600481526020017f544e465400000000000000000000000000000000000000000000000000000000815250816000908051906020019062000096929190620001a6565b508060019080519060200190620000af929190620001a6565b505050620000d2620000c6620000d860201b60201c565b620000e060201b60201c565b620002bb565b600033905090565b6000600760009054906101000a900473ffffffffffffffffffffffffffffffffffffffff16905081600760006101000a81548173ffffffffffffffffffffffffffffffffffffffff021916908373ffffffffffffffffffffffffffffffffffffffff1602179055508173ffffffffffffffffffffffffffffffffffffffff168173ffffffffffffffffffffffffffffffffffffffff167f8be0079c531659141344cd1fd0a4f28419497f9722a3daafe3b4186f6b6457e060405160405180910390a35050565b828054620001b49062000256565b90600052602060002090601f016020900481019282620001d8576000855562000224565b82601f10620001f357805160ff191683800117855562000224565b8280016001018555821562000224579182015b828111156200022357825182559160200191906001019062000206565b5b50905062000233919062000237565b5090565b5b808211156200025257600081600090555060010162000238565b5090565b600060028204905060018216806200026f57607f821691505b602082108114156200028657620002856200028c565b5b50919050565b7f4e487b7100000000000000000000000000000000000000000000000000000000600052602260045260246000fd5b613c4580620002cb6000396000f3fe6080604052600436106101655760003560e01c8063715018a6116100d1578063b88d4fde1161008a578063d16aad6111610064578063d16aad61146104fd578063e548a19a14610528578063e985e9c514610551578063f2fde38b1461058e57610165565b8063b88d4fde1461047b578063bb8937ad146104a4578063c87b56dd146104c057610165565b8063715018a61461039d5780638da5cb5b146103b457806395d89b41146103df578063a22cb4651461040a578063a26759cb14610433578063b4b5b48f1461043d57610165565b806323b872dd1161012357806323b872dd1461027f5780632e1a7d4d146102a857806342842e0e146102d15780636352211e146102fa57806369e9cae11461033757806370a082311461036057610165565b806275a3171461016a57806301ffc9a71461018657806306fdde03146101c3578063081812fc146101ee578063095ea7b31461022b57806318160ddd14610254575b600080fd5b610184600480360381019061017f9190612883565b6105b7565b005b34801561019257600080fd5b506101ad60048036038101906101a89190612997565b6106df565b6040516101ba9190612eeb565b60405180910390f35b3480156101cf57600080fd5b506101d86107c1565b6040516101e59190612f06565b60405180910390f35b3480156101fa57600080fd5b50610215600480360381019061021091906129e9565b610853565b6040516102229190612e62565b60405180910390f35b34801561023757600080fd5b50610252600480360381019061024d91906128d7565b6108d8565b005b34801561026057600080fd5b506102696109f0565b6040516102769190613188565b60405180910390f35b34801561028b57600080fd5b506102a660048036038101906102a1919061277d565b6109fd565b005b3480156102b457600080fd5b506102cf60048036038101906102ca91906129e9565b610a5d565b005b3480156102dd57600080fd5b506102f860048036038101906102f3919061277d565b610abe565b005b34801561030657600080fd5b50610321600480360381019061031c91906129e9565b610ade565b60405161032e9190612e62565b60405180910390f35b34801561034357600080fd5b5061035e6004803603810190610359919061277d565b610b90565b005b34801561036c57600080fd5b5061038760048036038101906103829190612718565b610c36565b6040516103949190613188565b60405180910390f35b3480156103a957600080fd5b506103b2610cee565b005b3480156103c057600080fd5b506103c9610d76565b6040516103d69190612e62565b60405180910390f35b3480156103eb57600080fd5b506103f4610da0565b6040516104019190612f06565b60405180910390f35b34801561041657600080fd5b50610431600480360381019061042c9190612847565b610e32565b005b61043b610e48565b005b34801561044957600080fd5b50610464600480360381019061045f91906129e9565b610e4a565b6040516104729291906131a3565b60405180910390f35b34801561048757600080fd5b506104a2600480360381019061049d91906127cc565b610e9e565b005b6104be60048036038101906104b99190612913565b610f00565b005b3480156104cc57600080fd5b506104e760048036038101906104e291906129e9565b611276565b6040516104f49190612f06565b60405180910390f35b34801561050957600080fd5b506105126113c8565b60405161051f9190612ec9565b60405180910390f35b34801561053457600080fd5b5061054f600480360381019061054a91906128d7565b611487565b005b34801561055d57600080fd5b5061057860048036038101906105739190612741565b611495565b6040516105859190612eeb565b60405180910390f35b34801561059a57600080fd5b506105b560048036038101906105b09190612718565b611529565b005b6105c16008611621565b60006105cd6008611637565b90506105d98382611645565b6105e3818361181f565b600a60405180604001604052808381526020018573ffffffffffffffffffffffffffffffffffffffff1681525090806001815401808255809150506001900390600052602060002090600202016000909190919091506000820151816000015560208201518160010160006101000a81548173ffffffffffffffffffffffffffffffffffffffff021916908373ffffffffffffffffffffffffffffffffffffffff16021790555050508273ffffffffffffffffffffffffffffffffffffffff167fbc2023acefe76a420b4accf8727b46e16359c6a9119bc7a77173e941fe54520d826040516106d29190613188565b60405180910390a2505050565b60007f80ac58cd000000000000000000000000000000000000000000000000000000007bffffffffffffffffffffffffffffffffffffffffffffffffffffffff1916827bffffffffffffffffffffffffffffffffffffffffffffffffffffffff191614806107aa57507f5b5e139f000000000000000000000000000000000000000000000000000000007bffffffffffffffffffffffffffffffffffffffffffffffffffffffff1916827bffffffffffffffffffffffffffffffffffffffffffffffffffffffff1916145b806107ba57506107b982611893565b5b9050919050565b6060600080546107d0906134d3565b80601f01602080910402602001604051908101604052809291908181526020018280546107fc906134d3565b80156108495780601f1061081e57610100808354040283529160200191610849565b820191906000526020600020905b81548152906001019060200180831161082c57829003601f168201915b5050505050905090565b600061085e826118fd565b61089d576040517f08c379a0000000000000000000000000000000000000000000000000000000008152600401610894906130e8565b60405180910390fd5b6004600083815260200190815260200160002060009054906101000a900473ffffffffffffffffffffffffffffffffffffffff169050919050565b60006108e382610ade565b90508073ffffffffffffffffffffffffffffffffffffffff168373ffffffffffffffffffffffffffffffffffffffff161415610954576040517f08c379a000000000000000000000000000000000000000000000000000000000815260040161094b90613148565b60405180910390fd5b8073ffffffffffffffffffffffffffffffffffffffff16610973611969565b73ffffffffffffffffffffffffffffffffffffffff1614806109a257506109a18161099c611969565b611495565b5b6109e1576040517f08c379a00000000000000000000000000000000000000000000000000000000081526004016109d890613008565b60405180910390fd5b6109eb8383611971565b505050565b6000600a80549050905090565b610a0e610a08611969565b82611a2a565b610a4d576040517f08c379a0000000000000000000000000000000000000000000000000000000008152600401610a4490613168565b60405180910390fd5b610a58838383611b08565b505050565b80670de0b6b3a7640000811115610a7357600080fd5b3373ffffffffffffffffffffffffffffffffffffffff166108fc839081150290604051600060405180830381858888f19350505050158015610ab9573d6000803e3d6000fd5b505050565b610ad983838360405180602001604052806000815250610e9e565b505050565b6000806002600084815260200190815260200160002060009054906101000a900473ffffffffffffffffffffffffffffffffffffffff169050600073ffffffffffffffffffffffffffffffffffffffff168173ffffffffffffffffffffffffffffffffffffffff161415610b87576040517f08c379a0000000000000000000000000000000000000000000000000000000008152600401610b7e90613068565b60405180910390fd5b80915050919050565b610b9b8383836109fd565b81600a600183610bab91906133dc565b81548110610be2577f4e487b7100000000000000000000000000000000000000000000000000000000600052603260045260246000fd5b906000526020600020906002020160010160006101000a81548173ffffffffffffffffffffffffffffffffffffffff021916908373ffffffffffffffffffffffffffffffffffffffff160217905550505050565b60008073ffffffffffffffffffffffffffffffffffffffff168273ffffffffffffffffffffffffffffffffffffffff161415610ca7576040517f08c379a0000000000000000000000000000000000000000000000000000000008152600401610c9e90613048565b60405180910390fd5b600360008373ffffffffffffffffffffffffffffffffffffffff1673ffffffffffffffffffffffffffffffffffffffff168152602001908152602001600020549050919050565b610cf6611969565b73ffffffffffffffffffffffffffffffffffffffff16610d14610d76565b73ffffffffffffffffffffffffffffffffffffffff1614610d6a576040517f08c379a0000000000000000000000000000000000000000000000000000000008152600401610d6190613108565b60405180910390fd5b610d746000611d6f565b565b6000600760009054906101000a900473ffffffffffffffffffffffffffffffffffffffff16905090565b606060018054610daf906134d3565b80601f0160208091040260200160405190810160405280929190818152602001828054610ddb906134d3565b8015610e285780601f10610dfd57610100808354040283529160200191610e28565b820191906000526020600020905b815481529060010190602001808311610e0b57829003601f168201915b5050505050905090565b610e44610e3d611969565b8383611e35565b5050565b565b600a8181548110610e5a57600080fd5b90600052602060002090600202016000915090508060000154908060010160009054906101000a900473ffffffffffffffffffffffffffffffffffffffff16905082565b610eaf610ea9611969565b83611a2a565b610eee576040517f08c379a0000000000000000000000000000000000000000000000000000000008152600401610ee590613168565b60405180910390fd5b610efa84848484611fa2565b50505050565b610f08611969565b73ffffffffffffffffffffffffffffffffffffffff16610f26610d76565b73ffffffffffffffffffffffffffffffffffffffff1614610f7c576040517f08c379a0000000000000000000000000000000000000000000000000000000008152600401610f7390613108565b60405180910390fd5b600082518260ff1686869050610f929190613382565b14610fd2576040517f08c379a0000000000000000000000000000000000000000000000000000000008152600401610fc990613028565b60405180910390fd5b60005b8585905081101561126e5760005b8360ff1681101561125a57610ff86008611621565b60006110046008611637565b905061105d888885818110611042577f4e487b7100000000000000000000000000000000000000000000000000000000600052603260045260246000fd5b90506020020160208101906110579190612718565b82611645565b6110a78187868151811061109a577f4e487b7100000000000000000000000000000000000000000000000000000000600052603260045260246000fd5b602002602001015161181f565b83806110b290613536565b945050600a60405180604001604052808381526020018a8a87818110611101577f4e487b7100000000000000000000000000000000000000000000000000000000600052603260045260246000fd5b90506020020160208101906111169190612718565b73ffffffffffffffffffffffffffffffffffffffff1681525090806001815401808255809150506001900390600052602060002090600202016000909190919091506000820151816000015560208201518160010160006101000a81548173ffffffffffffffffffffffffffffffffffffffff021916908373ffffffffffffffffffffffffffffffffffffffff16021790555050508787848181106111e4577f4e487b7100000000000000000000000000000000000000000000000000000000600052603260045260246000fd5b90506020020160208101906111f99190612718565b73ffffffffffffffffffffffffffffffffffffffff167fbc2023acefe76a420b4accf8727b46e16359c6a9119bc7a77173e941fe54520d8260405161123e9190613188565b60405180910390a250808061125290613536565b915050610fe3565b50808061126690613536565b915050610fd5565b505050505050565b6060611281826118fd565b6112c0576040517f08c379a00000000000000000000000000000000000000000000000000000000081526004016112b7906130c8565b60405180910390fd5b60006006600084815260200190815260200160002080546112e0906134d3565b80601f016020809104026020016040519081016040528092919081815260200182805461130c906134d3565b80156113595780601f1061132e57610100808354040283529160200191611359565b820191906000526020600020905b81548152906001019060200180831161133c57829003601f168201915b50505050509050600061136a611ffe565b90506000815114156113805781925050506113c3565b6000825111156113b557808260405160200161139d929190612e3e565b604051602081830303815290604052925050506113c3565b6113be84612015565b925050505b919050565b6060600a805480602002602001604051908101604052809291908181526020016000905b8282101561147e5783829060005260206000209060020201604051806040016040529081600082015481526020016001820160009054906101000a900473ffffffffffffffffffffffffffffffffffffffff1673ffffffffffffffffffffffffffffffffffffffff1673ffffffffffffffffffffffffffffffffffffffff1681525050815260200190600101906113ec565b50505050905090565b61149182826108d8565b5050565b6000600560008473ffffffffffffffffffffffffffffffffffffffff1673ffffffffffffffffffffffffffffffffffffffff16815260200190815260200160002060008373ffffffffffffffffffffffffffffffffffffffff1673ffffffffffffffffffffffffffffffffffffffff16815260200190815260200160002060009054906101000a900460ff16905092915050565b611531611969565b73ffffffffffffffffffffffffffffffffffffffff1661154f610d76565b73ffffffffffffffffffffffffffffffffffffffff16146115a5576040517f08c379a000000000000000000000000000000000000000000000000000000000815260040161159c90613108565b60405180910390fd5b600073ffffffffffffffffffffffffffffffffffffffff168173ffffffffffffffffffffffffffffffffffffffff161415611615576040517f08c379a000000000000000000000000000000000000000000000000000000000815260040161160c90612f48565b60405180910390fd5b61161e81611d6f565b50565b6001816000016000828254019250508190555050565b600081600001549050919050565b600073ffffffffffffffffffffffffffffffffffffffff168273ffffffffffffffffffffffffffffffffffffffff1614156116b5576040517f08c379a00000000000000000000000000000000000000000000000000000000081526004016116ac906130a8565b60405180910390fd5b6116be816118fd565b156116fe576040517f08c379a00000000000000000000000000000000000000000000000000000000081526004016116f590612f88565b60405180910390fd5b61170a600083836120bc565b6001600360008473ffffffffffffffffffffffffffffffffffffffff1673ffffffffffffffffffffffffffffffffffffffff168152602001908152602001600020600082825461175a91906132fb565b92505081905550816002600083815260200190815260200160002060006101000a81548173ffffffffffffffffffffffffffffffffffffffff021916908373ffffffffffffffffffffffffffffffffffffffff160217905550808273ffffffffffffffffffffffffffffffffffffffff16600073ffffffffffffffffffffffffffffffffffffffff167fddf252ad1be2c89b69c2b068fc378daa952ba7f163c4a11628f55a4df523b3ef60405160405180910390a461181b600083836120c1565b5050565b611828826118fd565b611867576040517f08c379a000000000000000000000000000000000000000000000000000000000815260040161185e90613088565b60405180910390fd5b8060066000848152602001908152602001600020908051906020019061188e92919061242d565b505050565b60007f01ffc9a7000000000000000000000000000000000000000000000000000000007bffffffffffffffffffffffffffffffffffffffffffffffffffffffff1916827bffffffffffffffffffffffffffffffffffffffffffffffffffffffff1916149050919050565b60008073ffffffffffffffffffffffffffffffffffffffff166002600084815260200190815260200160002060009054906101000a900473ffffffffffffffffffffffffffffffffffffffff1673ffffffffffffffffffffffffffffffffffffffff1614159050919050565b600033905090565b816004600083815260200190815260200160002060006101000a81548173ffffffffffffffffffffffffffffffffffffffff021916908373ffffffffffffffffffffffffffffffffffffffff160217905550808273ffffffffffffffffffffffffffffffffffffffff166119e483610ade565b73ffffffffffffffffffffffffffffffffffffffff167f8c5be1e5ebec7d5bd14f71427d1e84f3dd0314c0f7b2291e5b200ac8c7c3b92560405160405180910390a45050565b6000611a35826118fd565b611a74576040517f08c379a0000000000000000000000000000000000000000000000000000000008152600401611a6b90612fe8565b60405180910390fd5b6000611a7f83610ade565b90508073ffffffffffffffffffffffffffffffffffffffff168473ffffffffffffffffffffffffffffffffffffffff161480611aee57508373ffffffffffffffffffffffffffffffffffffffff16611ad684610853565b73ffffffffffffffffffffffffffffffffffffffff16145b80611aff5750611afe8185611495565b5b91505092915050565b8273ffffffffffffffffffffffffffffffffffffffff16611b2882610ade565b73ffffffffffffffffffffffffffffffffffffffff1614611b7e576040517f08c379a0000000000000000000000000000000000000000000000000000000008152600401611b7590612f68565b60405180910390fd5b600073ffffffffffffffffffffffffffffffffffffffff168273ffffffffffffffffffffffffffffffffffffffff161415611bee576040517f08c379a0000000000000000000000000000000000000000000000000000000008152600401611be590612fa8565b60405180910390fd5b611bf98383836120bc565b611c04600082611971565b6001600360008573ffffffffffffffffffffffffffffffffffffffff1673ffffffffffffffffffffffffffffffffffffffff1681526020019081526020016000206000828254611c5491906133dc565b925050819055506001600360008473ffffffffffffffffffffffffffffffffffffffff1673ffffffffffffffffffffffffffffffffffffffff1681526020019081526020016000206000828254611cab91906132fb565b92505081905550816002600083815260200190815260200160002060006101000a81548173ffffffffffffffffffffffffffffffffffffffff021916908373ffffffffffffffffffffffffffffffffffffffff160217905550808273ffffffffffffffffffffffffffffffffffffffff168473ffffffffffffffffffffffffffffffffffffffff167fddf252ad1be2c89b69c2b068fc378daa952ba7f163c4a11628f55a4df523b3ef60405160405180910390a4611d6a8383836120c1565b505050565b6000600760009054906101000a900473ffffffffffffffffffffffffffffffffffffffff16905081600760006101000a81548173ffffffffffffffffffffffffffffffffffffffff021916908373ffffffffffffffffffffffffffffffffffffffff1602179055508173ffffffffffffffffffffffffffffffffffffffff168173ffffffffffffffffffffffffffffffffffffffff167f8be0079c531659141344cd1fd0a4f28419497f9722a3daafe3b4186f6b6457e060405160405180910390a35050565b8173ffffffffffffffffffffffffffffffffffffffff168373ffffffffffffffffffffffffffffffffffffffff161415611ea4576040517f08c379a0000000000000000000000000000000000000000000000000000000008152600401611e9b90612fc8565b60405180910390fd5b80600560008573ffffffffffffffffffffffffffffffffffffffff1673ffffffffffffffffffffffffffffffffffffffff16815260200190815260200160002060008473ffffffffffffffffffffffffffffffffffffffff1673ffffffffffffffffffffffffffffffffffffffff16815260200190815260200160002060006101000a81548160ff0219169083151502179055508173ffffffffffffffffffffffffffffffffffffffff168373ffffffffffffffffffffffffffffffffffffffff167f17307eab39ab6107e8899845ad3d59bd9653f200f220920489ca2b5937696c3183604051611f959190612eeb565b60405180910390a3505050565b611fad848484611b08565b611fb9848484846120c6565b611ff8576040517f08c379a0000000000000000000000000000000000000000000000000000000008152600401611fef90612f28565b60405180910390fd5b50505050565b606060405180602001604052806000815250905090565b6060612020826118fd565b61205f576040517f08c379a000000000000000000000000000000000000000000000000000000000815260040161205690613128565b60405180910390fd5b6000612069611ffe565b9050600081511161208957604051806020016040528060008152506120b4565b806120938461225d565b6040516020016120a4929190612e3e565b6040516020818303038152906040525b915050919050565b505050565b505050565b60006120e78473ffffffffffffffffffffffffffffffffffffffff1661240a565b15612250578373ffffffffffffffffffffffffffffffffffffffff1663150b7a02612110611969565b8786866040518563ffffffff1660e01b81526004016121329493929190612e7d565b602060405180830381600087803b15801561214c57600080fd5b505af192505050801561217d57506040513d601f19601f8201168201806040525081019061217a91906129c0565b60015b612200573d80600081146121ad576040519150601f19603f3d011682016040523d82523d6000602084013e6121b2565b606091505b506000815114156121f8576040517f08c379a00000000000000000000000000000000000000000000000000000000081526004016121ef90612f28565b60405180910390fd5b805181602001fd5b63150b7a0260e01b7bffffffffffffffffffffffffffffffffffffffffffffffffffffffff1916817bffffffffffffffffffffffffffffffffffffffffffffffffffffffff191614915050612255565b600190505b949350505050565b606060008214156122a5576040518060400160405280600181526020017f30000000000000000000000000000000000000000000000000000000000000008152509050612405565b600082905060005b600082146122d75780806122c090613536565b915050600a826122d09190613351565b91506122ad565b60008167ffffffffffffffff811115612319577f4e487b7100000000000000000000000000000000000000000000000000000000600052604160045260246000fd5b6040519080825280601f01601f19166020018201604052801561234b5781602001600182028036833780820191505090505b5090505b600085146123fe5760018261236491906133dc565b9150600a85612373919061357f565b603061237f91906132fb565b60f81b8183815181106123bb577f4e487b7100000000000000000000000000000000000000000000000000000000600052603260045260246000fd5b60200101907effffffffffffffffffffffffffffffffffffffffffffffffffffffffffffff1916908160001a905350600a856123f79190613351565b945061234f565b8093505050505b919050565b6000808273ffffffffffffffffffffffffffffffffffffffff163b119050919050565b828054612439906134d3565b90600052602060002090601f01602090048101928261245b57600085556124a2565b82601f1061247457805160ff19168380011785556124a2565b828001600101855582156124a2579182015b828111156124a1578251825591602001919060010190612486565b5b5090506124af91906124b3565b5090565b5b808211156124cc5760008160009055506001016124b4565b5090565b60006124e36124de846131f1565b6131cc565b9050808382526020820190508285602086028201111561250257600080fd5b60005b8581101561254c57813567ffffffffffffffff81111561252457600080fd5b80860161253189826126c4565b85526020850194506020840193505050600181019050612505565b5050509392505050565b60006125696125648461321d565b6131cc565b90508281526020810184848401111561258157600080fd5b61258c848285613491565b509392505050565b60006125a76125a28461324e565b6131cc565b9050828152602081018484840111156125bf57600080fd5b6125ca848285613491565b509392505050565b6000813590506125e181613b9c565b92915050565b60008083601f8401126125f957600080fd5b8235905067ffffffffffffffff81111561261257600080fd5b60208301915083602082028301111561262a57600080fd5b9250929050565b600082601f83011261264257600080fd5b81356126528482602086016124d0565b91505092915050565b60008135905061266a81613bb3565b92915050565b60008135905061267f81613bca565b92915050565b60008151905061269481613bca565b92915050565b600082601f8301126126ab57600080fd5b81356126bb848260208601612556565b91505092915050565b600082601f8301126126d557600080fd5b81356126e5848260208601612594565b91505092915050565b6000813590506126fd81613be1565b92915050565b60008135905061271281613bf8565b92915050565b60006020828403121561272a57600080fd5b6000612738848285016125d2565b91505092915050565b6000806040838503121561275457600080fd5b6000612762858286016125d2565b9250506020612773858286016125d2565b9150509250929050565b60008060006060848603121561279257600080fd5b60006127a0868287016125d2565b93505060206127b1868287016125d2565b92505060406127c2868287016126ee565b9150509250925092565b600080600080608085870312156127e257600080fd5b60006127f0878288016125d2565b9450506020612801878288016125d2565b9350506040612812878288016126ee565b925050606085013567ffffffffffffffff81111561282f57600080fd5b61283b8782880161269a565b91505092959194509250565b6000806040838503121561285a57600080fd5b6000612868858286016125d2565b92505060206128798582860161265b565b9150509250929050565b6000806040838503121561289657600080fd5b60006128a4858286016125d2565b925050602083013567ffffffffffffffff8111156128c157600080fd5b6128cd858286016126c4565b9150509250929050565b600080604083850312156128ea57600080fd5b60006128f8858286016125d2565b9250506020612909858286016126ee565b9150509250929050565b6000806000806060858703121561292957600080fd5b600085013567ffffffffffffffff81111561294357600080fd5b61294f878288016125e7565b9450945050602085013567ffffffffffffffff81111561296e57600080fd5b61297a87828801612631565b925050604061298b87828801612703565b91505092959194509250565b6000602082840312156129a957600080fd5b60006129b784828501612670565b91505092915050565b6000602082840312156129d257600080fd5b60006129e084828501612685565b91505092915050565b6000602082840312156129fb57600080fd5b6000612a09848285016126ee565b91505092915050565b6000612a1e8383612df1565b60408301905092915050565b612a3381613410565b82525050565b612a4281613410565b82525050565b6000612a538261328f565b612a5d81856132bd565b9350612a688361327f565b8060005b83811015612a99578151612a808882612a12565b9750612a8b836132b0565b925050600181019050612a6c565b5085935050505092915050565b612aaf81613422565b82525050565b6000612ac08261329a565b612aca81856132ce565b9350612ada8185602086016134a0565b612ae38161366c565b840191505092915050565b6000612af9826132a5565b612b0381856132df565b9350612b138185602086016134a0565b612b1c8161366c565b840191505092915050565b6000612b32826132a5565b612b3c81856132f0565b9350612b4c8185602086016134a0565b80840191505092915050565b6000612b656032836132df565b9150612b708261367d565b604082019050919050565b6000612b886026836132df565b9150612b93826136cc565b604082019050919050565b6000612bab6025836132df565b9150612bb68261371b565b604082019050919050565b6000612bce601c836132df565b9150612bd98261376a565b602082019050919050565b6000612bf16024836132df565b9150612bfc82613793565b604082019050919050565b6000612c146019836132df565b9150612c1f826137e2565b602082019050919050565b6000612c37602c836132df565b9150612c428261380b565b604082019050919050565b6000612c5a6038836132df565b9150612c658261385a565b604082019050919050565b6000612c7d601f836132df565b9150612c88826138a9565b602082019050919050565b6000612ca0602a836132df565b9150612cab826138d2565b604082019050919050565b6000612cc36029836132df565b9150612cce82613921565b604082019050919050565b6000612ce6602e836132df565b9150612cf182613970565b604082019050919050565b6000612d096020836132df565b9150612d14826139bf565b602082019050919050565b6000612d2c6031836132df565b9150612d37826139e8565b604082019050919050565b6000612d4f602c836132df565b9150612d5a82613a37565b604082019050919050565b6000612d726020836132df565b9150612d7d82613a86565b602082019050919050565b6000612d95602f836132df565b9150612da082613aaf565b604082019050919050565b6000612db86021836132df565b9150612dc382613afe565b604082019050919050565b6000612ddb6031836132df565b9150612de682613b4d565b604082019050919050565b604082016000820151612e076000850182612e20565b506020820151612e1a6020850182612a2a565b50505050565b612e298161347a565b82525050565b612e388161347a565b82525050565b6000612e4a8285612b27565b9150612e568284612b27565b91508190509392505050565b6000602082019050612e776000830184612a39565b92915050565b6000608082019050612e926000830187612a39565b612e9f6020830186612a39565b612eac6040830185612e2f565b8181036060830152612ebe8184612ab5565b905095945050505050565b60006020820190508181036000830152612ee38184612a48565b905092915050565b6000602082019050612f006000830184612aa6565b92915050565b60006020820190508181036000830152612f208184612aee565b905092915050565b60006020820190508181036000830152612f4181612b58565b9050919050565b60006020820190508181036000830152612f6181612b7b565b9050919050565b60006020820190508181036000830152612f8181612b9e565b9050919050565b60006020820190508181036000830152612fa181612bc1565b9050919050565b60006020820190508181036000830152612fc181612be4565b9050919050565b60006020820190508181036000830152612fe181612c07565b9050919050565b6000602082019050818103600083015261300181612c2a565b9050919050565b6000602082019050818103600083015261302181612c4d565b9050919050565b6000602082019050818103600083015261304181612c70565b9050919050565b6000602082019050818103600083015261306181612c93565b9050919050565b6000602082019050818103600083015261308181612cb6565b9050919050565b600060208201905081810360008301526130a181612cd9565b9050919050565b600060208201905081810360008301526130c181612cfc565b9050919050565b600060208201905081810360008301526130e181612d1f565b9050919050565b6000602082019050818103600083015261310181612d42565b9050919050565b6000602082019050818103600083015261312181612d65565b9050919050565b6000602082019050818103600083015261314181612d88565b9050919050565b6000602082019050818103600083015261316181612dab565b9050919050565b6000602082019050818103600083015261318181612dce565b9050919050565b600060208201905061319d6000830184612e2f565b92915050565b60006040820190506131b86000830185612e2f565b6131c56020830184612a39565b9392505050565b60006131d66131e7565b90506131e28282613505565b919050565b6000604051905090565b600067ffffffffffffffff82111561320c5761320b61363d565b5b602082029050602081019050919050565b600067ffffffffffffffff8211156132385761323761363d565b5b6132418261366c565b9050602081019050919050565b600067ffffffffffffffff8211156132695761326861363d565b5b6132728261366c565b9050602081019050919050565b6000819050602082019050919050565b600081519050919050565b600081519050919050565b600081519050919050565b6000602082019050919050565b600082825260208201905092915050565b600082825260208201905092915050565b600082825260208201905092915050565b600081905092915050565b60006133068261347a565b91506133118361347a565b9250827fffffffffffffffffffffffffffffffffffffffffffffffffffffffffffffffff03821115613346576133456135b0565b5b828201905092915050565b600061335c8261347a565b91506133678361347a565b925082613377576133766135df565b5b828204905092915050565b600061338d8261347a565b91506133988361347a565b9250817fffffffffffffffffffffffffffffffffffffffffffffffffffffffffffffffff04831182151516156133d1576133d06135b0565b5b828202905092915050565b60006133e78261347a565b91506133f28361347a565b925082821015613405576134046135b0565b5b828203905092915050565b600061341b8261345a565b9050919050565b60008115159050919050565b60007fffffffff0000000000000000000000000000000000000000000000000000000082169050919050565b600073ffffffffffffffffffffffffffffffffffffffff82169050919050565b6000819050919050565b600060ff82169050919050565b82818337600083830152505050565b60005b838110156134be5780820151818401526020810190506134a3565b838111156134cd576000848401525b50505050565b600060028204905060018216806134eb57607f821691505b602082108114156134ff576134fe61360e565b5b50919050565b61350e8261366c565b810181811067ffffffffffffffff8211171561352d5761352c61363d565b5b80604052505050565b60006135418261347a565b91507fffffffffffffffffffffffffffffffffffffffffffffffffffffffffffffffff821415613574576135736135b0565b5b600182019050919050565b600061358a8261347a565b91506135958361347a565b9250826135a5576135a46135df565b5b828206905092915050565b7f4e487b7100000000000000000000000000000000000000000000000000000000600052601160045260246000fd5b7f4e487b7100000000000000000000000000000000000000000000000000000000600052601260045260246000fd5b7f4e487b7100000000000000000000000000000000000000000000000000000000600052602260045260246000fd5b7f4e487b7100000000000000000000000000000000000000000000000000000000600052604160045260246000fd5b6000601f19601f8301169050919050565b7f4552433732313a207472616e7366657220746f206e6f6e20455243373231526560008201527f63656976657220696d706c656d656e7465720000000000000000000000000000602082015250565b7f4f776e61626c653a206e6577206f776e657220697320746865207a65726f206160008201527f6464726573730000000000000000000000000000000000000000000000000000602082015250565b7f4552433732313a207472616e736665722066726f6d20696e636f72726563742060008201527f6f776e6572000000000000000000000000000000000000000000000000000000602082015250565b7f4552433732313a20746f6b656e20616c7265616479206d696e74656400000000600082015250565b7f4552433732313a207472616e7366657220746f20746865207a65726f2061646460008201527f7265737300000000000000000000000000000000000000000000000000000000602082015250565b7f4552433732313a20617070726f766520746f2063616c6c657200000000000000600082015250565b7f4552433732313a206f70657261746f7220717565727920666f72206e6f6e657860008201527f697374656e7420746f6b656e0000000000000000000000000000000000000000602082015250565b7f4552433732313a20617070726f76652063616c6c6572206973206e6f74206f7760008201527f6e6572206e6f7220617070726f76656420666f7220616c6c0000000000000000602082015250565b7f4e6f7420656e6f75676820746f6b656e7320666f7220616c6c20757365727300600082015250565b7f4552433732313a2062616c616e636520717565727920666f7220746865207a6560008201527f726f206164647265737300000000000000000000000000000000000000000000602082015250565b7f4552433732313a206f776e657220717565727920666f72206e6f6e657869737460008201527f656e7420746f6b656e0000000000000000000000000000000000000000000000602082015250565b7f45524337323155524953746f726167653a2055524920736574206f66206e6f6e60008201527f6578697374656e7420746f6b656e000000000000000000000000000000000000602082015250565b7f4552433732313a206d696e7420746f20746865207a65726f2061646472657373600082015250565b7f45524337323155524953746f726167653a2055524920717565727920666f722060008201527f6e6f6e6578697374656e7420746f6b656e000000000000000000000000000000602082015250565b7f4552433732313a20617070726f76656420717565727920666f72206e6f6e657860008201527f697374656e7420746f6b656e0000000000000000000000000000000000000000602082015250565b7f4f776e61626c653a2063616c6c6572206973206e6f7420746865206f776e6572600082015250565b7f4552433732314d657461646174613a2055524920717565727920666f72206e6f60008201527f6e6578697374656e7420746f6b656e0000000000000000000000000000000000602082015250565b7f4552433732313a20617070726f76616c20746f2063757272656e74206f776e6560008201527f7200000000000000000000000000000000000000000000000000000000000000602082015250565b7f4552433732313a207472616e736665722063616c6c6572206973206e6f74206f60008201527f776e6572206e6f7220617070726f766564000000000000000000000000000000602082015250565b613ba581613410565b8114613bb057600080fd5b50565b613bbc81613422565b8114613bc757600080fd5b50565b613bd38161342e565b8114613bde57600080fd5b50565b613bea8161347a565b8114613bf557600080fd5b50565b613c0181613484565b8114613c0c57600080fd5b5056fea26469706673582212201ac55c751bb6821aadf06aedcf7ec1411a1c98005557521d4879d8a6eade1c7464736f6c63430008040033",
  "linkReferences": {},
  "deployedLinkReferences": {}
}