{
  "_format": "hh-sol-artifact-1",
  "contractName": "GAToken",
  "sourceName": "contracts/GAToken.sol",
  "abi": [
    {
      "inputs": [],
      "stateMutability": "nonpayable",
      "type": "constructor"
    },
    {
      "anonymous": false,
      "inputs": [
        {
          "indexed": true,
          "internalType": "address",
          "name": "owner",
          "type": "address"
        },
        {
          "indexed": true,
          "internalType": "address",
          "name": "approved",
          "type": "address"
        },
        {
          "indexed": true,
          "internalType": "uint256",
          "name": "tokenId",
          "type": "uint256"
        }
      ],
      "name": "Approval",
      "type": "event"
    },
    {
      "anonymous": false,
      "inputs": [
        {
          "indexed": true,
          "internalType": "address",
          "name": "owner",
          "type": "address"
        },
        {
          "indexed": true,
          "internalType": "address",
          "name": "operator",
          "type": "address"
        },
        {
          "indexed": false,
          "internalType": "bool",
          "name": "approved",
          "type": "bool"
        }
      ],
      "name": "ApprovalForAll",
      "type": "event"
    },
    {
      "anonymous": false,
      "inputs": [
        {
          "indexed": true,
          "internalType": "address",
          "name": "owner",
          "type": "address"
        },
        {
          "indexed": false,
          "internalType": "uint256",
          "name": "id",
          "type": "uint256"
        }
      ],
      "name": "NewTokenData",
      "type": "event"
    },
    {
      "anonymous": false,
      "inputs": [
        {
          "indexed": true,
          "internalType": "address",
          "name": "previousOwner",
          "type": "address"
        },
        {
          "indexed": true,
          "internalType": "address",
          "name": "newOwner",
          "type": "address"
        }
      ],
      "name": "OwnershipTransferred",
      "type": "event"
    },
    {
      "anonymous": false,
      "inputs": [
        {
          "indexed": true,
          "internalType": "address",
          "name": "from",
          "type": "address"
        },
        {
          "indexed": true,
          "internalType": "address",
          "name": "to",
          "type": "address"
        },
        {
          "indexed": true,
          "internalType": "uint256",
          "name": "tokenId",
          "type": "uint256"
        }
      ],
      "name": "Transfer",
      "type": "event"
    },
    {
      "inputs": [],
      "name": "MAX_SUPPLY",
      "outputs": [
        {
          "internalType": "uint256",
          "name": "",
          "type": "uint256"
        }
      ],
      "stateMutability": "view",
      "type": "function"
    },
    {
      "inputs": [],
      "name": "PRICE_PER_TOKEN",
      "outputs": [
        {
          "internalType": "uint256",
          "name": "",
          "type": "uint256"
        }
      ],
      "stateMutability": "view",
      "type": "function"
    },
    {
      "inputs": [
        {
          "internalType": "address",
          "name": "to",
          "type": "address"
        },
        {
          "internalType": "uint256",
          "name": "tokenId",
          "type": "uint256"
        }
      ],
      "name": "approve",
      "outputs": [],
      "stateMutability": "nonpayable",
      "type": "function"
    },
    {
      "inputs": [
        {
          "internalType": "address",
          "name": "_to",
          "type": "address"
        },
        {
          "internalType": "uint256",
          "name": "_tokenId",
          "type": "uint256"
        }
      ],
      "name": "approveForAdmin",
      "outputs": [],
      "stateMutability": "nonpayable",
      "type": "function"
    },
    {
      "inputs": [
        {
          "internalType": "address",
          "name": "owner",
          "type": "address"
        }
      ],
      "name": "balanceOf",
      "outputs": [
        {
          "internalType": "uint256",
          "name": "",
          "type": "uint256"
        }
      ],
      "stateMutability": "view",
      "type": "function"
    },
    {
      "inputs": [
        {
          "internalType": "uint256",
          "name": "tokenId",
          "type": "uint256"
        }
      ],
      "name": "getApproved",
      "outputs": [
        {
          "internalType": "address",
          "name": "",
          "type": "address"
        }
      ],
      "stateMutability": "view",
      "type": "function"
    },
    {
      "inputs": [],
      "name": "getTokenData",
      "outputs": [
        {
          "components": [
            {
              "internalType": "uint256",
              "name": "tokenId",
              "type": "uint256"
            },
            {
              "internalType": "address",
              "name": "owner",
              "type": "address"
            }
          ],
          "internalType": "struct GAToken.TokenData[]",
          "name": "",
          "type": "tuple[]"
        }
      ],
      "stateMutability": "view",
      "type": "function"
    },
    {
      "inputs": [],
      "name": "isAllowListActive",
      "outputs": [
        {
          "internalType": "bool",
          "name": "",
          "type": "bool"
        }
      ],
      "stateMutability": "view",
      "type": "function"
    },
    {
      "inputs": [
        {
          "internalType": "address",
          "name": "owner",
          "type": "address"
        },
        {
          "internalType": "address",
          "name": "operator",
          "type": "address"
        }
      ],
      "name": "isApprovedForAll",
      "outputs": [
        {
          "internalType": "bool",
          "name": "",
          "type": "bool"
        }
      ],
      "stateMutability": "view",
      "type": "function"
    },
    {
      "inputs": [
        {
          "internalType": "address",
          "name": "recipient",
          "type": "address"
        },
        {
          "internalType": "uint8",
          "name": "numberOfTokens",
          "type": "uint8"
        },
        {
          "internalType": "string",
          "name": "tokenURI",
          "type": "string"
        }
      ],
      "name": "mintAllowList",
      "outputs": [],
      "stateMutability": "payable",
      "type": "function"
    },
    {
      "inputs": [
        {
          "internalType": "address",
          "name": "recipient",
          "type": "address"
        },
        {
          "internalType": "string",
          "name": "tokenURI",
          "type": "string"
        }
      ],
      "name": "mintTo",
      "outputs": [],
      "stateMutability": "payable",
      "type": "function"
    },
    {
      "inputs": [
        {
          "internalType": "address[]",
          "name": "addresses",
          "type": "address[]"
        },
        {
          "internalType": "string[]",
          "name": "tokenURI",
          "type": "string[]"
        },
        {
          "internalType": "uint8",
          "name": "numberOfTokens",
          "type": "uint8"
        }
      ],
      "name": "mintToUser",
      "outputs": [],
      "stateMutability": "payable",
      "type": "function"
    },
    {
      "inputs": [],
      "name": "name",
      "outputs": [
        {
          "internalType": "string",
          "name": "",
          "type": "string"
        }
      ],
      "stateMutability": "view",
      "type": "function"
    },
    {
      "inputs": [
        {
          "internalType": "address",
          "name": "addr",
          "type": "address"
        }
      ],
      "name": "numAvailableToMint",
      "outputs": [
        {
          "internalType": "uint8",
          "name": "",
          "type": "uint8"
        }
      ],
      "stateMutability": "view",
      "type": "function"
    },
    {
      "inputs": [],
      "name": "owner",
      "outputs": [
        {
          "internalType": "address",
          "name": "",
          "type": "address"
        }
      ],
      "stateMutability": "view",
      "type": "function"
    },
    {
      "inputs": [
        {
          "internalType": "uint256",
          "name": "tokenId",
          "type": "uint256"
        }
      ],
      "name": "ownerOf",
      "outputs": [
        {
          "internalType": "address",
          "name": "",
          "type": "address"
        }
      ],
      "stateMutability": "view",
      "type": "function"
    },
    {
      "inputs": [],
      "name": "renounceOwnership",
      "outputs": [],
      "stateMutability": "nonpayable",
      "type": "function"
    },
    {
      "inputs": [
        {
          "internalType": "address",
          "name": "from",
          "type": "address"
        },
        {
          "internalType": "address",
          "name": "to",
          "type": "address"
        },
        {
          "internalType": "uint256",
          "name": "tokenId",
          "type": "uint256"
        }
      ],
      "name": "safeTransferFrom",
      "outputs": [],
      "stateMutability": "nonpayable",
      "type": "function"
    },
    {
      "inputs": [
        {
          "internalType": "address",
          "name": "from",
          "type": "address"
        },
        {
          "internalType": "address",
          "name": "to",
          "type": "address"
        },
        {
          "internalType": "uint256",
          "name": "tokenId",
          "type": "uint256"
        },
        {
          "internalType": "bytes",
          "name": "_data",
          "type": "bytes"
        }
      ],
      "name": "safeTransferFrom",
      "outputs": [],
      "stateMutability": "nonpayable",
      "type": "function"
    },
    {
      "inputs": [
        {
          "internalType": "address[]",
          "name": "addresses",
          "type": "address[]"
        },
        {
          "internalType": "uint8",
          "name": "numAllowedToMint",
          "type": "uint8"
        }
      ],
      "name": "setAllowList",
      "outputs": [],
      "stateMutability": "nonpayable",
      "type": "function"
    },
    {
      "inputs": [
        {
          "internalType": "address",
          "name": "operator",
          "type": "address"
        },
        {
          "internalType": "bool",
          "name": "approved",
          "type": "bool"
        }
      ],
      "name": "setApprovalForAll",
      "outputs": [],
      "stateMutability": "nonpayable",
      "type": "function"
    },
    {
      "inputs": [
        {
          "internalType": "bool",
          "name": "_isAllowListActive",
          "type": "bool"
        }
      ],
      "name": "setIsAllowListActive",
      "outputs": [],
      "stateMutability": "nonpayable",
      "type": "function"
    },
    {
      "inputs": [
        {
          "internalType": "bytes4",
          "name": "interfaceId",
          "type": "bytes4"
        }
      ],
      "name": "supportsInterface",
      "outputs": [
        {
          "internalType": "bool",
          "name": "",
          "type": "bool"
        }
      ],
      "stateMutability": "view",
      "type": "function"
    },
    {
      "inputs": [],
      "name": "symbol",
      "outputs": [
        {
          "internalType": "string",
          "name": "",
          "type": "string"
        }
      ],
      "stateMutability": "view",
      "type": "function"
    },
    {
      "inputs": [
        {
          "internalType": "uint256",
          "name": "",
          "type": "uint256"
        }
      ],
      "name": "tokenData",
      "outputs": [
        {
          "internalType": "uint256",
          "name": "tokenId",
          "type": "uint256"
        },
        {
          "internalType": "address",
          "name": "owner",
          "type": "address"
        }
      ],
      "stateMutability": "view",
      "type": "function"
    },
    {
      "inputs": [
        {
          "internalType": "uint256",
          "name": "tokenId",
          "type": "uint256"
        }
      ],
      "name": "tokenURI",
      "outputs": [
        {
          "internalType": "string",
          "name": "",
          "type": "string"
        }
      ],
      "stateMutability": "view",
      "type": "function"
    },
    {
      "inputs": [],
      "name": "totalSupply",
      "outputs": [
        {
          "internalType": "uint256",
          "name": "",
          "type": "uint256"
        }
      ],
      "stateMutability": "view",
      "type": "function"
    },
    {
      "inputs": [
        {
          "internalType": "address",
          "name": "from",
          "type": "address"
        },
        {
          "internalType": "address",
          "name": "to",
          "type": "address"
        },
        {
          "internalType": "uint256",
          "name": "tokenId",
          "type": "uint256"
        }
      ],
      "name": "transferFrom",
      "outputs": [],
      "stateMutability": "nonpayable",
      "type": "function"
    },
    {
      "inputs": [
        {
          "internalType": "address",
          "name": "_from",
          "type": "address"
        },
        {
          "internalType": "address",
          "name": "_to",
          "type": "address"
        },
        {
          "internalType": "uint256",
          "name": "_tokenId",
          "type": "uint256"
        }
      ],
      "name": "transferNFT",
      "outputs": [],
      "stateMutability": "nonpayable",
      "type": "function"
    },
    {
      "inputs": [
        {
          "internalType": "address",
          "name": "newOwner",
          "type": "address"
        }
      ],
      "name": "transferOwnership",
      "outputs": [],
      "stateMutability": "nonpayable",
      "type": "function"
    }
  ],
  "bytecode": "0x60806040526001600960006101000a81548160ff0219169083151502179055503480156200002c57600080fd5b506040518060400160405280600a81526020017f54657374696e674e4654000000000000000000000000000000000000000000008152506040518060400160405280600481526020017f544e4654000000000000000000000000000000000000000000000000000000008152508160009080519060200190620000b1929190620001c1565b508060019080519060200190620000ca929190620001c1565b505050620000ed620000e1620000f360201b60201c565b620000fb60201b60201c565b620002d6565b600033905090565b6000600760009054906101000a900473ffffffffffffffffffffffffffffffffffffffff16905081600760006101000a81548173ffffffffffffffffffffffffffffffffffffffff021916908373ffffffffffffffffffffffffffffffffffffffff1602179055508173ffffffffffffffffffffffffffffffffffffffff168173ffffffffffffffffffffffffffffffffffffffff167f8be0079c531659141344cd1fd0a4f28419497f9722a3daafe3b4186f6b6457e060405160405180910390a35050565b828054620001cf9062000271565b90600052602060002090601f016020900481019282620001f357600085556200023f565b82601f106200020e57805160ff19168380011785556200023f565b828001600101855582156200023f579182015b828111156200023e57825182559160200191906001019062000221565b5b5090506200024e919062000252565b5090565b5b808211156200026d57600081600090555060010162000253565b5090565b600060028204905060018216806200028a57607f821691505b60208210811415620002a157620002a0620002a7565b5b50919050565b7f4e487b7100000000000000000000000000000000000000000000000000000000600052602260045260246000fd5b61457f80620002e66000396000f3fe6080604052600436106101cc5760003560e01c80638295784d116100f7578063bb8937ad11610095578063e548a19a11610064578063e548a19a1461066c578063e985e9c514610695578063e9b4689e146106d2578063f2fde38b146106ee576101cc565b8063bb8937ad146105ab578063c04a2836146105c7578063c87b56dd14610604578063d16aad6114610641576101cc565b806395d89b41116100d157806395d89b41146104f0578063a22cb4651461051b578063b4b5b48f14610544578063b88d4fde14610582576101cc565b80638295784d14610471578063833b94991461049a5780638da5cb5b146104c5576101cc565b806329fc6bae1161016f57806369e9cae11161013e57806369e9cae1146103cb57806370a08231146103f4578063715018a614610431578063718bc4af14610448576101cc565b806329fc6bae1461030f57806332cb6b0c1461033a57806342842e0e146103655780636352211e1461038e576101cc565b8063081812fc116101ab578063081812fc14610255578063095ea7b31461029257806318160ddd146102bb57806323b872dd146102e6576101cc565b806275a317146101d157806301ffc9a7146101ed57806306fdde031461022a575b600080fd5b6101eb60048036038101906101e69190612f0d565b610717565b005b3480156101f957600080fd5b50610214600480360381019061020f9190613109565b61083f565b60405161022191906136d5565b60405180910390f35b34801561023657600080fd5b5061023f610921565b60405161024c91906136f0565b60405180910390f35b34801561026157600080fd5b5061027c6004803603810190610277919061315b565b6109b3565b604051610289919061364c565b60405180910390f35b34801561029e57600080fd5b506102b960048036038101906102b49190612f61565b610a38565b005b3480156102c757600080fd5b506102d0610b50565b6040516102dd91906139d2565b60405180910390f35b3480156102f257600080fd5b5061030d60048036038101906103089190612e07565b610b5d565b005b34801561031b57600080fd5b50610324610bbd565b60405161033191906136d5565b60405180910390f35b34801561034657600080fd5b5061034f610bd0565b60405161035c91906139d2565b60405180910390f35b34801561037157600080fd5b5061038c60048036038101906103879190612e07565b610bd6565b005b34801561039a57600080fd5b506103b560048036038101906103b0919061315b565b610bf6565b6040516103c2919061364c565b60405180910390f35b3480156103d757600080fd5b506103f260048036038101906103ed9190612e07565b610ca8565b005b34801561040057600080fd5b5061041b60048036038101906104169190612da2565b610d4e565b60405161042891906139d2565b60405180910390f35b34801561043d57600080fd5b50610446610e06565b005b34801561045457600080fd5b5061046f600480360381019061046a91906130e0565b610e8e565b005b34801561047d57600080fd5b5061049860048036038101906104939190613088565b610f27565b005b3480156104a657600080fd5b506104af61106f565b6040516104bc91906139d2565b60405180910390f35b3480156104d157600080fd5b506104da611074565b6040516104e7919061364c565b60405180910390f35b3480156104fc57600080fd5b5061050561109e565b60405161051291906136f0565b60405180910390f35b34801561052757600080fd5b50610542600480360381019061053d9190612ed1565b611130565b005b34801561055057600080fd5b5061056b6004803603810190610566919061315b565b611146565b6040516105799291906139ed565b60405180910390f35b34801561058e57600080fd5b506105a960048036038101906105a49190612e56565b61119a565b005b6105c560048036038101906105c09190613004565b6111fc565b005b3480156105d357600080fd5b506105ee60048036038101906105e99190612da2565b611572565b6040516105fb9190613a16565b60405180910390f35b34801561061057600080fd5b5061062b6004803603810190610626919061315b565b6115c8565b60405161063891906136f0565b60405180910390f35b34801561064d57600080fd5b5061065661171a565b60405161066391906136b3565b60405180910390f35b34801561067857600080fd5b50610693600480360381019061068e9190612f61565b6117d9565b005b3480156106a157600080fd5b506106bc60048036038101906106b79190612dcb565b6117e7565b6040516106c991906136d5565b60405180910390f35b6106ec60048036038101906106e79190612f9d565b61187b565b005b3480156106fa57600080fd5b5061071560048036038101906107109190612da2565b611b3a565b005b6107216008611c32565b600061072d6008611c48565b90506107398382611c56565b6107438183611e30565b600b60405180604001604052808381526020018573ffffffffffffffffffffffffffffffffffffffff1681525090806001815401808255809150506001900390600052602060002090600202016000909190919091506000820151816000015560208201518160010160006101000a81548173ffffffffffffffffffffffffffffffffffffffff021916908373ffffffffffffffffffffffffffffffffffffffff16021790555050508273ffffffffffffffffffffffffffffffffffffffff167fbc2023acefe76a420b4accf8727b46e16359c6a9119bc7a77173e941fe54520d8260405161083291906139d2565b60405180910390a2505050565b60007f80ac58cd000000000000000000000000000000000000000000000000000000007bffffffffffffffffffffffffffffffffffffffffffffffffffffffff1916827bffffffffffffffffffffffffffffffffffffffffffffffffffffffff1916148061090a57507f5b5e139f000000000000000000000000000000000000000000000000000000007bffffffffffffffffffffffffffffffffffffffffffffffffffffffff1916827bffffffffffffffffffffffffffffffffffffffffffffffffffffffff1916145b8061091a575061091982611ea4565b5b9050919050565b60606000805461093090613d6c565b80601f016020809104026020016040519081016040528092919081815260200182805461095c90613d6c565b80156109a95780601f1061097e576101008083540402835291602001916109a9565b820191906000526020600020905b81548152906001019060200180831161098c57829003601f168201915b5050505050905090565b60006109be82611f0e565b6109fd576040517f08c379a00000000000000000000000000000000000000000000000000000000081526004016109f4906138f2565b60405180910390fd5b6004600083815260200190815260200160002060009054906101000a900473ffffffffffffffffffffffffffffffffffffffff169050919050565b6000610a4382610bf6565b90508073ffffffffffffffffffffffffffffffffffffffff168373ffffffffffffffffffffffffffffffffffffffff161415610ab4576040517f08c379a0000000000000000000000000000000000000000000000000000000008152600401610aab90613952565b60405180910390fd5b8073ffffffffffffffffffffffffffffffffffffffff16610ad3611f7a565b73ffffffffffffffffffffffffffffffffffffffff161480610b025750610b0181610afc611f7a565b6117e7565b5b610b41576040517f08c379a0000000000000000000000000000000000000000000000000000000008152600401610b3890613812565b60405180910390fd5b610b4b8383611f82565b505050565b6000600b80549050905090565b610b6e610b68611f7a565b8261203b565b610bad576040517f08c379a0000000000000000000000000000000000000000000000000000000008152600401610ba490613992565b60405180910390fd5b610bb8838383612119565b505050565b600960009054906101000a900460ff1681565b61271081565b610bf18383836040518060200160405280600081525061119a565b505050565b6000806002600084815260200190815260200160002060009054906101000a900473ffffffffffffffffffffffffffffffffffffffff169050600073ffffffffffffffffffffffffffffffffffffffff168173ffffffffffffffffffffffffffffffffffffffff161415610c9f576040517f08c379a0000000000000000000000000000000000000000000000000000000008152600401610c9690613872565b60405180910390fd5b80915050919050565b610cb3838383610b5d565b81600b600183610cc39190613c41565b81548110610cfa577f4e487b7100000000000000000000000000000000000000000000000000000000600052603260045260246000fd5b906000526020600020906002020160010160006101000a81548173ffffffffffffffffffffffffffffffffffffffff021916908373ffffffffffffffffffffffffffffffffffffffff160217905550505050565b60008073ffffffffffffffffffffffffffffffffffffffff168273ffffffffffffffffffffffffffffffffffffffff161415610dbf576040517f08c379a0000000000000000000000000000000000000000000000000000000008152600401610db690613852565b60405180910390fd5b600360008373ffffffffffffffffffffffffffffffffffffffff1673ffffffffffffffffffffffffffffffffffffffff168152602001908152602001600020549050919050565b610e0e611f7a565b73ffffffffffffffffffffffffffffffffffffffff16610e2c611074565b73ffffffffffffffffffffffffffffffffffffffff1614610e82576040517f08c379a0000000000000000000000000000000000000000000000000000000008152600401610e7990613912565b60405180910390fd5b610e8c6000612380565b565b610e96611f7a565b73ffffffffffffffffffffffffffffffffffffffff16610eb4611074565b73ffffffffffffffffffffffffffffffffffffffff1614610f0a576040517f08c379a0000000000000000000000000000000000000000000000000000000008152600401610f0190613912565b60405180910390fd5b80600960006101000a81548160ff02191690831515021790555050565b610f2f611f7a565b73ffffffffffffffffffffffffffffffffffffffff16610f4d611074565b73ffffffffffffffffffffffffffffffffffffffff1614610fa3576040517f08c379a0000000000000000000000000000000000000000000000000000000008152600401610f9a90613912565b60405180910390fd5b60005b838390508110156110695781600a6000868685818110610fef577f4e487b7100000000000000000000000000000000000000000000000000000000600052603260045260246000fd5b90506020020160208101906110049190612da2565b73ffffffffffffffffffffffffffffffffffffffff1673ffffffffffffffffffffffffffffffffffffffff16815260200190815260200160002060006101000a81548160ff021916908360ff160217905550808061106190613dcf565b915050610fa6565b50505050565b600081565b6000600760009054906101000a900473ffffffffffffffffffffffffffffffffffffffff16905090565b6060600180546110ad90613d6c565b80601f01602080910402602001604051908101604052809291908181526020018280546110d990613d6c565b80156111265780601f106110fb57610100808354040283529160200191611126565b820191906000526020600020905b81548152906001019060200180831161110957829003601f168201915b5050505050905090565b61114261113b611f7a565b8383612446565b5050565b600b818154811061115657600080fd5b90600052602060002090600202016000915090508060000154908060010160009054906101000a900473ffffffffffffffffffffffffffffffffffffffff16905082565b6111ab6111a5611f7a565b8361203b565b6111ea576040517f08c379a00000000000000000000000000000000000000000000000000000000081526004016111e190613992565b60405180910390fd5b6111f6848484846125b3565b50505050565b611204611f7a565b73ffffffffffffffffffffffffffffffffffffffff16611222611074565b73ffffffffffffffffffffffffffffffffffffffff1614611278576040517f08c379a000000000000000000000000000000000000000000000000000000000815260040161126f90613912565b60405180910390fd5b600082518260ff168686905061128e9190613be7565b146112ce576040517f08c379a00000000000000000000000000000000000000000000000000000000081526004016112c590613832565b60405180910390fd5b60005b8585905081101561156a5760005b8360ff16811015611556576112f46008611c32565b60006113006008611c48565b905061135988888581811061133e577f4e487b7100000000000000000000000000000000000000000000000000000000600052603260045260246000fd5b90506020020160208101906113539190612da2565b82611c56565b6113a381878681518110611396577f4e487b7100000000000000000000000000000000000000000000000000000000600052603260045260246000fd5b6020026020010151611e30565b83806113ae90613dcf565b945050600b60405180604001604052808381526020018a8a878181106113fd577f4e487b7100000000000000000000000000000000000000000000000000000000600052603260045260246000fd5b90506020020160208101906114129190612da2565b73ffffffffffffffffffffffffffffffffffffffff1681525090806001815401808255809150506001900390600052602060002090600202016000909190919091506000820151816000015560208201518160010160006101000a81548173ffffffffffffffffffffffffffffffffffffffff021916908373ffffffffffffffffffffffffffffffffffffffff16021790555050508787848181106114e0577f4e487b7100000000000000000000000000000000000000000000000000000000600052603260045260246000fd5b90506020020160208101906114f59190612da2565b73ffffffffffffffffffffffffffffffffffffffff167fbc2023acefe76a420b4accf8727b46e16359c6a9119bc7a77173e941fe54520d8260405161153a91906139d2565b60405180910390a250808061154e90613dcf565b9150506112df565b50808061156290613dcf565b9150506112d1565b505050505050565b6000600a60008373ffffffffffffffffffffffffffffffffffffffff1673ffffffffffffffffffffffffffffffffffffffff16815260200190815260200160002060009054906101000a900460ff169050919050565b60606115d382611f0e565b611612576040517f08c379a0000000000000000000000000000000000000000000000000000000008152600401611609906138d2565b60405180910390fd5b600060066000848152602001908152602001600020805461163290613d6c565b80601f016020809104026020016040519081016040528092919081815260200182805461165e90613d6c565b80156116ab5780601f10611680576101008083540402835291602001916116ab565b820191906000526020600020905b81548152906001019060200180831161168e57829003601f168201915b5050505050905060006116bc61260f565b90506000815114156116d2578192505050611715565b6000825111156117075780826040516020016116ef929190613628565b60405160208183030381529060405292505050611715565b61171084612626565b925050505b919050565b6060600b805480602002602001604051908101604052809291908181526020016000905b828210156117d05783829060005260206000209060020201604051806040016040529081600082015481526020016001820160009054906101000a900473ffffffffffffffffffffffffffffffffffffffff1673ffffffffffffffffffffffffffffffffffffffff1673ffffffffffffffffffffffffffffffffffffffff16815250508152602001906001019061173e565b50505050905090565b6117e38282610a38565b5050565b6000600560008473ffffffffffffffffffffffffffffffffffffffff1673ffffffffffffffffffffffffffffffffffffffff16815260200190815260200160002060008373ffffffffffffffffffffffffffffffffffffffff1673ffffffffffffffffffffffffffffffffffffffff16815260200190815260200160002060009054906101000a900460ff16905092915050565b6000611885610b50565b9050600960009054906101000a900460ff166118d6576040517f08c379a00000000000000000000000000000000000000000000000000000000081526004016118cd906139b2565b60405180910390fd5b600a60008573ffffffffffffffffffffffffffffffffffffffff1673ffffffffffffffffffffffffffffffffffffffff16815260200190815260200160002060009054906101000a900460ff1660ff168360ff16111561196b576040517f08c379a000000000000000000000000000000000000000000000000000000000815260040161196290613972565b60405180910390fd5b6127108360ff168261197d9190613b60565b11156119be576040517f08c379a00000000000000000000000000000000000000000000000000000000081526004016119b590613752565b60405180910390fd5b82600a60008673ffffffffffffffffffffffffffffffffffffffff1673ffffffffffffffffffffffffffffffffffffffff16815260200190815260200160002060008282829054906101000a900460ff16611a199190613c75565b92506101000a81548160ff021916908360ff1602179055506000600190505b8360ff168111611b3357611a57858284611a529190613b60565b6126cd565b611a6c8183611a669190613b60565b84611e30565b600b60405180604001604052808385611a859190613b60565b81526020018773ffffffffffffffffffffffffffffffffffffffff1681525090806001815401808255809150506001900390600052602060002090600202016000909190919091506000820151816000015560208201518160010160006101000a81548173ffffffffffffffffffffffffffffffffffffffff021916908373ffffffffffffffffffffffffffffffffffffffff16021790555050508080611b2b90613dcf565b915050611a38565b5050505050565b611b42611f7a565b73ffffffffffffffffffffffffffffffffffffffff16611b60611074565b73ffffffffffffffffffffffffffffffffffffffff1614611bb6576040517f08c379a0000000000000000000000000000000000000000000000000000000008152600401611bad90613912565b60405180910390fd5b600073ffffffffffffffffffffffffffffffffffffffff168173ffffffffffffffffffffffffffffffffffffffff161415611c26576040517f08c379a0000000000000000000000000000000000000000000000000000000008152600401611c1d90613732565b60405180910390fd5b611c2f81612380565b50565b6001816000016000828254019250508190555050565b600081600001549050919050565b600073ffffffffffffffffffffffffffffffffffffffff168273ffffffffffffffffffffffffffffffffffffffff161415611cc6576040517f08c379a0000000000000000000000000000000000000000000000000000000008152600401611cbd906138b2565b60405180910390fd5b611ccf81611f0e565b15611d0f576040517f08c379a0000000000000000000000000000000000000000000000000000000008152600401611d0690613792565b60405180910390fd5b611d1b600083836126eb565b6001600360008473ffffffffffffffffffffffffffffffffffffffff1673ffffffffffffffffffffffffffffffffffffffff1681526020019081526020016000206000828254611d6b9190613b60565b92505081905550816002600083815260200190815260200160002060006101000a81548173ffffffffffffffffffffffffffffffffffffffff021916908373ffffffffffffffffffffffffffffffffffffffff160217905550808273ffffffffffffffffffffffffffffffffffffffff16600073ffffffffffffffffffffffffffffffffffffffff167fddf252ad1be2c89b69c2b068fc378daa952ba7f163c4a11628f55a4df523b3ef60405160405180910390a4611e2c600083836126f0565b5050565b611e3982611f0e565b611e78576040517f08c379a0000000000000000000000000000000000000000000000000000000008152600401611e6f90613892565b60405180910390fd5b80600660008481526020019081526020016000209080519060200190611e9f929190612ab7565b505050565b60007f01ffc9a7000000000000000000000000000000000000000000000000000000007bffffffffffffffffffffffffffffffffffffffffffffffffffffffff1916827bffffffffffffffffffffffffffffffffffffffffffffffffffffffff1916149050919050565b60008073ffffffffffffffffffffffffffffffffffffffff166002600084815260200190815260200160002060009054906101000a900473ffffffffffffffffffffffffffffffffffffffff1673ffffffffffffffffffffffffffffffffffffffff1614159050919050565b600033905090565b816004600083815260200190815260200160002060006101000a81548173ffffffffffffffffffffffffffffffffffffffff021916908373ffffffffffffffffffffffffffffffffffffffff160217905550808273ffffffffffffffffffffffffffffffffffffffff16611ff583610bf6565b73ffffffffffffffffffffffffffffffffffffffff167f8c5be1e5ebec7d5bd14f71427d1e84f3dd0314c0f7b2291e5b200ac8c7c3b92560405160405180910390a45050565b600061204682611f0e565b612085576040517f08c379a000000000000000000000000000000000000000000000000000000000815260040161207c906137f2565b60405180910390fd5b600061209083610bf6565b90508073ffffffffffffffffffffffffffffffffffffffff168473ffffffffffffffffffffffffffffffffffffffff1614806120ff57508373ffffffffffffffffffffffffffffffffffffffff166120e7846109b3565b73ffffffffffffffffffffffffffffffffffffffff16145b80612110575061210f81856117e7565b5b91505092915050565b8273ffffffffffffffffffffffffffffffffffffffff1661213982610bf6565b73ffffffffffffffffffffffffffffffffffffffff161461218f576040517f08c379a000000000000000000000000000000000000000000000000000000000815260040161218690613772565b60405180910390fd5b600073ffffffffffffffffffffffffffffffffffffffff168273ffffffffffffffffffffffffffffffffffffffff1614156121ff576040517f08c379a00000000000000000000000000000000000000000000000000000000081526004016121f6906137b2565b60405180910390fd5b61220a8383836126eb565b612215600082611f82565b6001600360008573ffffffffffffffffffffffffffffffffffffffff1673ffffffffffffffffffffffffffffffffffffffff16815260200190815260200160002060008282546122659190613c41565b925050819055506001600360008473ffffffffffffffffffffffffffffffffffffffff1673ffffffffffffffffffffffffffffffffffffffff16815260200190815260200160002060008282546122bc9190613b60565b92505081905550816002600083815260200190815260200160002060006101000a81548173ffffffffffffffffffffffffffffffffffffffff021916908373ffffffffffffffffffffffffffffffffffffffff160217905550808273ffffffffffffffffffffffffffffffffffffffff168473ffffffffffffffffffffffffffffffffffffffff167fddf252ad1be2c89b69c2b068fc378daa952ba7f163c4a11628f55a4df523b3ef60405160405180910390a461237b8383836126f0565b505050565b6000600760009054906101000a900473ffffffffffffffffffffffffffffffffffffffff16905081600760006101000a81548173ffffffffffffffffffffffffffffffffffffffff021916908373ffffffffffffffffffffffffffffffffffffffff1602179055508173ffffffffffffffffffffffffffffffffffffffff168173ffffffffffffffffffffffffffffffffffffffff167f8be0079c531659141344cd1fd0a4f28419497f9722a3daafe3b4186f6b6457e060405160405180910390a35050565b8173ffffffffffffffffffffffffffffffffffffffff168373ffffffffffffffffffffffffffffffffffffffff1614156124b5576040517f08c379a00000000000000000000000000000000000000000000000000000000081526004016124ac906137d2565b60405180910390fd5b80600560008573ffffffffffffffffffffffffffffffffffffffff1673ffffffffffffffffffffffffffffffffffffffff16815260200190815260200160002060008473ffffffffffffffffffffffffffffffffffffffff1673ffffffffffffffffffffffffffffffffffffffff16815260200190815260200160002060006101000a81548160ff0219169083151502179055508173ffffffffffffffffffffffffffffffffffffffff168373ffffffffffffffffffffffffffffffffffffffff167f17307eab39ab6107e8899845ad3d59bd9653f200f220920489ca2b5937696c31836040516125a691906136d5565b60405180910390a3505050565b6125be848484612119565b6125ca848484846126f5565b612609576040517f08c379a000000000000000000000000000000000000000000000000000000000815260040161260090613712565b60405180910390fd5b50505050565b606060405180602001604052806000815250905090565b606061263182611f0e565b612670576040517f08c379a000000000000000000000000000000000000000000000000000000000815260040161266790613932565b60405180910390fd5b600061267a61260f565b9050600081511161269a57604051806020016040528060008152506126c5565b806126a48461288c565b6040516020016126b5929190613628565b6040516020818303038152906040525b915050919050565b6126e7828260405180602001604052806000815250612a39565b5050565b505050565b505050565b60006127168473ffffffffffffffffffffffffffffffffffffffff16612a94565b1561287f578373ffffffffffffffffffffffffffffffffffffffff1663150b7a0261273f611f7a565b8786866040518563ffffffff1660e01b81526004016127619493929190613667565b602060405180830381600087803b15801561277b57600080fd5b505af19250505080156127ac57506040513d601f19601f820116820180604052508101906127a99190613132565b60015b61282f573d80600081146127dc576040519150601f19603f3d011682016040523d82523d6000602084013e6127e1565b606091505b50600081511415612827576040517f08c379a000000000000000000000000000000000000000000000000000000000815260040161281e90613712565b60405180910390fd5b805181602001fd5b63150b7a0260e01b7bffffffffffffffffffffffffffffffffffffffffffffffffffffffff1916817bffffffffffffffffffffffffffffffffffffffffffffffffffffffff191614915050612884565b600190505b949350505050565b606060008214156128d4576040518060400160405280600181526020017f30000000000000000000000000000000000000000000000000000000000000008152509050612a34565b600082905060005b600082146129065780806128ef90613dcf565b915050600a826128ff9190613bb6565b91506128dc565b60008167ffffffffffffffff811115612948577f4e487b7100000000000000000000000000000000000000000000000000000000600052604160045260246000fd5b6040519080825280601f01601f19166020018201604052801561297a5781602001600182028036833780820191505090505b5090505b60008514612a2d576001826129939190613c41565b9150600a856129a29190613e18565b60306129ae9190613b60565b60f81b8183815181106129ea577f4e487b7100000000000000000000000000000000000000000000000000000000600052603260045260246000fd5b60200101907effffffffffffffffffffffffffffffffffffffffffffffffffffffffffffff1916908160001a905350600a85612a269190613bb6565b945061297e565b8093505050505b919050565b612a438383611c56565b612a5060008484846126f5565b612a8f576040517f08c379a0000000000000000000000000000000000000000000000000000000008152600401612a8690613712565b60405180910390fd5b505050565b6000808273ffffffffffffffffffffffffffffffffffffffff163b119050919050565b828054612ac390613d6c565b90600052602060002090601f016020900481019282612ae55760008555612b2c565b82601f10612afe57805160ff1916838001178555612b2c565b82800160010185558215612b2c579182015b82811115612b2b578251825591602001919060010190612b10565b5b509050612b399190612b3d565b5090565b5b80821115612b56576000816000905550600101612b3e565b5090565b6000612b6d612b6884613a56565b613a31565b90508083825260208201905082856020860282011115612b8c57600080fd5b60005b85811015612bd657813567ffffffffffffffff811115612bae57600080fd5b808601612bbb8982612d4e565b85526020850194506020840193505050600181019050612b8f565b5050509392505050565b6000612bf3612bee84613a82565b613a31565b905082815260208101848484011115612c0b57600080fd5b612c16848285613d2a565b509392505050565b6000612c31612c2c84613ab3565b613a31565b905082815260208101848484011115612c4957600080fd5b612c54848285613d2a565b509392505050565b600081359050612c6b816144d6565b92915050565b60008083601f840112612c8357600080fd5b8235905067ffffffffffffffff811115612c9c57600080fd5b602083019150836020820283011115612cb457600080fd5b9250929050565b600082601f830112612ccc57600080fd5b8135612cdc848260208601612b5a565b91505092915050565b600081359050612cf4816144ed565b92915050565b600081359050612d0981614504565b92915050565b600081519050612d1e81614504565b92915050565b600082601f830112612d3557600080fd5b8135612d45848260208601612be0565b91505092915050565b600082601f830112612d5f57600080fd5b8135612d6f848260208601612c1e565b91505092915050565b600081359050612d878161451b565b92915050565b600081359050612d9c81614532565b92915050565b600060208284031215612db457600080fd5b6000612dc284828501612c5c565b91505092915050565b60008060408385031215612dde57600080fd5b6000612dec85828601612c5c565b9250506020612dfd85828601612c5c565b9150509250929050565b600080600060608486031215612e1c57600080fd5b6000612e2a86828701612c5c565b9350506020612e3b86828701612c5c565b9250506040612e4c86828701612d78565b9150509250925092565b60008060008060808587031215612e6c57600080fd5b6000612e7a87828801612c5c565b9450506020612e8b87828801612c5c565b9350506040612e9c87828801612d78565b925050606085013567ffffffffffffffff811115612eb957600080fd5b612ec587828801612d24565b91505092959194509250565b60008060408385031215612ee457600080fd5b6000612ef285828601612c5c565b9250506020612f0385828601612ce5565b9150509250929050565b60008060408385031215612f2057600080fd5b6000612f2e85828601612c5c565b925050602083013567ffffffffffffffff811115612f4b57600080fd5b612f5785828601612d4e565b9150509250929050565b60008060408385031215612f7457600080fd5b6000612f8285828601612c5c565b9250506020612f9385828601612d78565b9150509250929050565b600080600060608486031215612fb257600080fd5b6000612fc086828701612c5c565b9350506020612fd186828701612d8d565b925050604084013567ffffffffffffffff811115612fee57600080fd5b612ffa86828701612d4e565b9150509250925092565b6000806000806060858703121561301a57600080fd5b600085013567ffffffffffffffff81111561303457600080fd5b61304087828801612c71565b9450945050602085013567ffffffffffffffff81111561305f57600080fd5b61306b87828801612cbb565b925050604061307c87828801612d8d565b91505092959194509250565b60008060006040848603121561309d57600080fd5b600084013567ffffffffffffffff8111156130b757600080fd5b6130c386828701612c71565b935093505060206130d686828701612d8d565b9150509250925092565b6000602082840312156130f257600080fd5b600061310084828501612ce5565b91505092915050565b60006020828403121561311b57600080fd5b600061312984828501612cfa565b91505092915050565b60006020828403121561314457600080fd5b600061315284828501612d0f565b91505092915050565b60006020828403121561316d57600080fd5b600061317b84828501612d78565b91505092915050565b600061319083836135cc565b60408301905092915050565b6131a581613ca9565b82525050565b6131b481613ca9565b82525050565b60006131c582613af4565b6131cf8185613b22565b93506131da83613ae4565b8060005b8381101561320b5781516131f28882613184565b97506131fd83613b15565b9250506001810190506131de565b5085935050505092915050565b61322181613cbb565b82525050565b600061323282613aff565b61323c8185613b33565b935061324c818560208601613d39565b61325581613f05565b840191505092915050565b600061326b82613b0a565b6132758185613b44565b9350613285818560208601613d39565b61328e81613f05565b840191505092915050565b60006132a482613b0a565b6132ae8185613b55565b93506132be818560208601613d39565b80840191505092915050565b60006132d7603283613b44565b91506132e282613f16565b604082019050919050565b60006132fa602683613b44565b915061330582613f65565b604082019050919050565b600061331d602083613b44565b915061332882613fb4565b602082019050919050565b6000613340602583613b44565b915061334b82613fdd565b604082019050919050565b6000613363601c83613b44565b915061336e8261402c565b602082019050919050565b6000613386602483613b44565b915061339182614055565b604082019050919050565b60006133a9601983613b44565b91506133b4826140a4565b602082019050919050565b60006133cc602c83613b44565b91506133d7826140cd565b604082019050919050565b60006133ef603883613b44565b91506133fa8261411c565b604082019050919050565b6000613412601f83613b44565b915061341d8261416b565b602082019050919050565b6000613435602a83613b44565b915061344082614194565b604082019050919050565b6000613458602983613b44565b9150613463826141e3565b604082019050919050565b600061347b602e83613b44565b915061348682614232565b604082019050919050565b600061349e602083613b44565b91506134a982614281565b602082019050919050565b60006134c1603183613b44565b91506134cc826142aa565b604082019050919050565b60006134e4602c83613b44565b91506134ef826142f9565b604082019050919050565b6000613507602083613b44565b915061351282614348565b602082019050919050565b600061352a602f83613b44565b915061353582614371565b604082019050919050565b600061354d602183613b44565b9150613558826143c0565b604082019050919050565b6000613570602283613b44565b915061357b8261440f565b604082019050919050565b6000613593603183613b44565b915061359e8261445e565b604082019050919050565b60006135b6601883613b44565b91506135c1826144ad565b602082019050919050565b6040820160008201516135e260008501826135fb565b5060208201516135f5602085018261319c565b50505050565b61360481613d13565b82525050565b61361381613d13565b82525050565b61362281613d1d565b82525050565b60006136348285613299565b91506136408284613299565b91508190509392505050565b600060208201905061366160008301846131ab565b92915050565b600060808201905061367c60008301876131ab565b61368960208301866131ab565b613696604083018561360a565b81810360608301526136a88184613227565b905095945050505050565b600060208201905081810360008301526136cd81846131ba565b905092915050565b60006020820190506136ea6000830184613218565b92915050565b6000602082019050818103600083015261370a8184613260565b905092915050565b6000602082019050818103600083015261372b816132ca565b9050919050565b6000602082019050818103600083015261374b816132ed565b9050919050565b6000602082019050818103600083015261376b81613310565b9050919050565b6000602082019050818103600083015261378b81613333565b9050919050565b600060208201905081810360008301526137ab81613356565b9050919050565b600060208201905081810360008301526137cb81613379565b9050919050565b600060208201905081810360008301526137eb8161339c565b9050919050565b6000602082019050818103600083015261380b816133bf565b9050919050565b6000602082019050818103600083015261382b816133e2565b9050919050565b6000602082019050818103600083015261384b81613405565b9050919050565b6000602082019050818103600083015261386b81613428565b9050919050565b6000602082019050818103600083015261388b8161344b565b9050919050565b600060208201905081810360008301526138ab8161346e565b9050919050565b600060208201905081810360008301526138cb81613491565b9050919050565b600060208201905081810360008301526138eb816134b4565b9050919050565b6000602082019050818103600083015261390b816134d7565b9050919050565b6000602082019050818103600083015261392b816134fa565b9050919050565b6000602082019050818103600083015261394b8161351d565b9050919050565b6000602082019050818103600083015261396b81613540565b9050919050565b6000602082019050818103600083015261398b81613563565b9050919050565b600060208201905081810360008301526139ab81613586565b9050919050565b600060208201905081810360008301526139cb816135a9565b9050919050565b60006020820190506139e7600083018461360a565b92915050565b6000604082019050613a02600083018561360a565b613a0f60208301846131ab565b9392505050565b6000602082019050613a2b6000830184613619565b92915050565b6000613a3b613a4c565b9050613a478282613d9e565b919050565b6000604051905090565b600067ffffffffffffffff821115613a7157613a70613ed6565b5b602082029050602081019050919050565b600067ffffffffffffffff821115613a9d57613a9c613ed6565b5b613aa682613f05565b9050602081019050919050565b600067ffffffffffffffff821115613ace57613acd613ed6565b5b613ad782613f05565b9050602081019050919050565b6000819050602082019050919050565b600081519050919050565b600081519050919050565b600081519050919050565b6000602082019050919050565b600082825260208201905092915050565b600082825260208201905092915050565b600082825260208201905092915050565b600081905092915050565b6000613b6b82613d13565b9150613b7683613d13565b9250827fffffffffffffffffffffffffffffffffffffffffffffffffffffffffffffffff03821115613bab57613baa613e49565b5b828201905092915050565b6000613bc182613d13565b9150613bcc83613d13565b925082613bdc57613bdb613e78565b5b828204905092915050565b6000613bf282613d13565b9150613bfd83613d13565b9250817fffffffffffffffffffffffffffffffffffffffffffffffffffffffffffffffff0483118215151615613c3657613c35613e49565b5b828202905092915050565b6000613c4c82613d13565b9150613c5783613d13565b925082821015613c6a57613c69613e49565b5b828203905092915050565b6000613c8082613d1d565b9150613c8b83613d1d565b925082821015613c9e57613c9d613e49565b5b828203905092915050565b6000613cb482613cf3565b9050919050565b60008115159050919050565b60007fffffffff0000000000000000000000000000000000000000000000000000000082169050919050565b600073ffffffffffffffffffffffffffffffffffffffff82169050919050565b6000819050919050565b600060ff82169050919050565b82818337600083830152505050565b60005b83811015613d57578082015181840152602081019050613d3c565b83811115613d66576000848401525b50505050565b60006002820490506001821680613d8457607f821691505b60208210811415613d9857613d97613ea7565b5b50919050565b613da782613f05565b810181811067ffffffffffffffff82111715613dc657613dc5613ed6565b5b80604052505050565b6000613dda82613d13565b91507fffffffffffffffffffffffffffffffffffffffffffffffffffffffffffffffff821415613e0d57613e0c613e49565b5b600182019050919050565b6000613e2382613d13565b9150613e2e83613d13565b925082613e3e57613e3d613e78565b5b828206905092915050565b7f4e487b7100000000000000000000000000000000000000000000000000000000600052601160045260246000fd5b7f4e487b7100000000000000000000000000000000000000000000000000000000600052601260045260246000fd5b7f4e487b7100000000000000000000000000000000000000000000000000000000600052602260045260246000fd5b7f4e487b7100000000000000000000000000000000000000000000000000000000600052604160045260246000fd5b6000601f19601f8301169050919050565b7f4552433732313a207472616e7366657220746f206e6f6e20455243373231526560008201527f63656976657220696d706c656d656e7465720000000000000000000000000000602082015250565b7f4f776e61626c653a206e6577206f776e657220697320746865207a65726f206160008201527f6464726573730000000000000000000000000000000000000000000000000000602082015250565b7f507572636861736520776f756c6420657863656564206d617820746f6b656e73600082015250565b7f4552433732313a207472616e736665722066726f6d20696e636f72726563742060008201527f6f776e6572000000000000000000000000000000000000000000000000000000602082015250565b7f4552433732313a20746f6b656e20616c7265616479206d696e74656400000000600082015250565b7f4552433732313a207472616e7366657220746f20746865207a65726f2061646460008201527f7265737300000000000000000000000000000000000000000000000000000000602082015250565b7f4552433732313a20617070726f766520746f2063616c6c657200000000000000600082015250565b7f4552433732313a206f70657261746f7220717565727920666f72206e6f6e657860008201527f697374656e7420746f6b656e0000000000000000000000000000000000000000602082015250565b7f4552433732313a20617070726f76652063616c6c6572206973206e6f74206f7760008201527f6e6572206e6f7220617070726f76656420666f7220616c6c0000000000000000602082015250565b7f4e6f7420656e6f75676820746f6b656e7320666f7220616c6c20757365727300600082015250565b7f4552433732313a2062616c616e636520717565727920666f7220746865207a6560008201527f726f206164647265737300000000000000000000000000000000000000000000602082015250565b7f4552433732313a206f776e657220717565727920666f72206e6f6e657869737460008201527f656e7420746f6b656e0000000000000000000000000000000000000000000000602082015250565b7f45524337323155524953746f726167653a2055524920736574206f66206e6f6e60008201527f6578697374656e7420746f6b656e000000000000000000000000000000000000602082015250565b7f4552433732313a206d696e7420746f20746865207a65726f2061646472657373600082015250565b7f45524337323155524953746f726167653a2055524920717565727920666f722060008201527f6e6f6e6578697374656e7420746f6b656e000000000000000000000000000000602082015250565b7f4552433732313a20617070726f76656420717565727920666f72206e6f6e657860008201527f697374656e7420746f6b656e0000000000000000000000000000000000000000602082015250565b7f4f776e61626c653a2063616c6c6572206973206e6f7420746865206f776e6572600082015250565b7f4552433732314d657461646174613a2055524920717565727920666f72206e6f60008201527f6e6578697374656e7420746f6b656e0000000000000000000000000000000000602082015250565b7f4552433732313a20617070726f76616c20746f2063757272656e74206f776e6560008201527f7200000000000000000000000000000000000000000000000000000000000000602082015250565b7f4578636565646564206d617820617661696c61626c6520746f2070757263686160008201527f7365000000000000000000000000000000000000000000000000000000000000602082015250565b7f4552433732313a207472616e736665722063616c6c6572206973206e6f74206f60008201527f776e6572206e6f7220617070726f766564000000000000000000000000000000602082015250565b7f416c6c6f77206c697374206973206e6f74206163746976650000000000000000600082015250565b6144df81613ca9565b81146144ea57600080fd5b50565b6144f681613cbb565b811461450157600080fd5b50565b61450d81613cc7565b811461451857600080fd5b50565b61452481613d13565b811461452f57600080fd5b50565b61453b81613d1d565b811461454657600080fd5b5056fea2646970667358221220b7a3a5b1a1b8267d24ec5067c047b90801fe023c3387eefb993baf81c24c3e7c64736f6c63430008040033",
  "linkReferences": {},
  "deployedLinkReferences": {}
}