{
  "_format": "hh-sol-artifact-1",
  "contractName": "Token",
  "sourceName": "contracts/Token.sol",
  "abi": [
    {
      "inputs": [],
      "stateMutability": "nonpayable",
      "type": "constructor"
    },
    {
      "anonymous": false,
      "inputs": [
        {
          "indexed": true,
          "internalType": "address",
          "name": "owner",
          "type": "address"
        },
        {
          "indexed": true,
          "internalType": "address",
          "name": "approved",
          "type": "address"
        },
        {
          "indexed": true,
          "internalType": "uint256",
          "name": "tokenId",
          "type": "uint256"
        }
      ],
      "name": "Approval",
      "type": "event"
    },
    {
      "anonymous": false,
      "inputs": [
        {
          "indexed": true,
          "internalType": "address",
          "name": "owner",
          "type": "address"
        },
        {
          "indexed": true,
          "internalType": "address",
          "name": "operator",
          "type": "address"
        },
        {
          "indexed": false,
          "internalType": "bool",
          "name": "approved",
          "type": "bool"
        }
      ],
      "name": "ApprovalForAll",
      "type": "event"
    },
    {
      "anonymous": false,
      "inputs": [
        {
          "indexed": true,
          "internalType": "address",
          "name": "owner",
          "type": "address"
        },
        {
          "indexed": false,
          "internalType": "uint256",
          "name": "id",
          "type": "uint256"
        }
      ],
      "name": "NewTokenData",
      "type": "event"
    },
    {
      "anonymous": false,
      "inputs": [
        {
          "indexed": true,
          "internalType": "address",
          "name": "previousOwner",
          "type": "address"
        },
        {
          "indexed": true,
          "internalType": "address",
          "name": "newOwner",
          "type": "address"
        }
      ],
      "name": "OwnershipTransferred",
      "type": "event"
    },
    {
      "anonymous": false,
      "inputs": [
        {
          "indexed": true,
          "internalType": "address",
          "name": "from",
          "type": "address"
        },
        {
          "indexed": true,
          "internalType": "address",
          "name": "to",
          "type": "address"
        },
        {
          "indexed": true,
          "internalType": "uint256",
          "name": "tokenId",
          "type": "uint256"
        }
      ],
      "name": "Transfer",
      "type": "event"
    },
    {
      "inputs": [
        {
          "internalType": "address",
          "name": "to",
          "type": "address"
        },
        {
          "internalType": "uint256",
          "name": "tokenId",
          "type": "uint256"
        }
      ],
      "name": "approve",
      "outputs": [],
      "stateMutability": "nonpayable",
      "type": "function"
    },
    {
      "inputs": [
        {
          "internalType": "address",
          "name": "owner",
          "type": "address"
        }
      ],
      "name": "balanceOf",
      "outputs": [
        {
          "internalType": "uint256",
          "name": "",
          "type": "uint256"
        }
      ],
      "stateMutability": "view",
      "type": "function"
    },
    {
      "inputs": [
        {
          "internalType": "uint256",
          "name": "tokenId",
          "type": "uint256"
        }
      ],
      "name": "getApproved",
      "outputs": [
        {
          "internalType": "address",
          "name": "",
          "type": "address"
        }
      ],
      "stateMutability": "view",
      "type": "function"
    },
    {
      "inputs": [],
      "name": "getTokenData",
      "outputs": [
        {
          "components": [
            {
              "internalType": "uint256",
              "name": "tokenId",
              "type": "uint256"
            },
            {
              "internalType": "address",
              "name": "owner",
              "type": "address"
            }
          ],
          "internalType": "struct Token.TokenData[]",
          "name": "",
          "type": "tuple[]"
        }
      ],
      "stateMutability": "view",
      "type": "function"
    },
    {
      "inputs": [
        {
          "internalType": "address",
          "name": "owner",
          "type": "address"
        },
        {
          "internalType": "address",
          "name": "operator",
          "type": "address"
        }
      ],
      "name": "isApprovedForAll",
      "outputs": [
        {
          "internalType": "bool",
          "name": "",
          "type": "bool"
        }
      ],
      "stateMutability": "view",
      "type": "function"
    },
    {
      "inputs": [
        {
          "internalType": "uint256",
          "name": "tokenId",
          "type": "uint256"
        },
        {
          "internalType": "address",
          "name": "recipient",
          "type": "address"
        },
        {
          "internalType": "string",
          "name": "tokenURI",
          "type": "string"
        }
      ],
      "name": "mintNFT",
      "outputs": [],
      "stateMutability": "payable",
      "type": "function"
    },
    {
      "inputs": [],
      "name": "name",
      "outputs": [
        {
          "internalType": "string",
          "name": "",
          "type": "string"
        }
      ],
      "stateMutability": "view",
      "type": "function"
    },
    {
      "inputs": [],
      "name": "owner",
      "outputs": [
        {
          "internalType": "address",
          "name": "",
          "type": "address"
        }
      ],
      "stateMutability": "view",
      "type": "function"
    },
    {
      "inputs": [
        {
          "internalType": "uint256",
          "name": "tokenId",
          "type": "uint256"
        }
      ],
      "name": "ownerOf",
      "outputs": [
        {
          "internalType": "address",
          "name": "",
          "type": "address"
        }
      ],
      "stateMutability": "view",
      "type": "function"
    },
    {
      "inputs": [],
      "name": "renounceOwnership",
      "outputs": [],
      "stateMutability": "nonpayable",
      "type": "function"
    },
    {
      "inputs": [
        {
          "internalType": "address",
          "name": "from",
          "type": "address"
        },
        {
          "internalType": "address",
          "name": "to",
          "type": "address"
        },
        {
          "internalType": "uint256",
          "name": "tokenId",
          "type": "uint256"
        }
      ],
      "name": "safeTransferFrom",
      "outputs": [],
      "stateMutability": "nonpayable",
      "type": "function"
    },
    {
      "inputs": [
        {
          "internalType": "address",
          "name": "from",
          "type": "address"
        },
        {
          "internalType": "address",
          "name": "to",
          "type": "address"
        },
        {
          "internalType": "uint256",
          "name": "tokenId",
          "type": "uint256"
        },
        {
          "internalType": "bytes",
          "name": "_data",
          "type": "bytes"
        }
      ],
      "name": "safeTransferFrom",
      "outputs": [],
      "stateMutability": "nonpayable",
      "type": "function"
    },
    {
      "inputs": [
        {
          "internalType": "address",
          "name": "operator",
          "type": "address"
        },
        {
          "internalType": "bool",
          "name": "approved",
          "type": "bool"
        }
      ],
      "name": "setApprovalForAll",
      "outputs": [],
      "stateMutability": "nonpayable",
      "type": "function"
    },
    {
      "inputs": [
        {
          "internalType": "bytes4",
          "name": "interfaceId",
          "type": "bytes4"
        }
      ],
      "name": "supportsInterface",
      "outputs": [
        {
          "internalType": "bool",
          "name": "",
          "type": "bool"
        }
      ],
      "stateMutability": "view",
      "type": "function"
    },
    {
      "inputs": [],
      "name": "symbol",
      "outputs": [
        {
          "internalType": "string",
          "name": "",
          "type": "string"
        }
      ],
      "stateMutability": "view",
      "type": "function"
    },
    {
      "inputs": [
        {
          "internalType": "uint256",
          "name": "",
          "type": "uint256"
        }
      ],
      "name": "tokenData",
      "outputs": [
        {
          "internalType": "uint256",
          "name": "tokenId",
          "type": "uint256"
        },
        {
          "internalType": "address",
          "name": "owner",
          "type": "address"
        }
      ],
      "stateMutability": "view",
      "type": "function"
    },
    {
      "inputs": [
        {
          "internalType": "uint256",
          "name": "tokenId",
          "type": "uint256"
        }
      ],
      "name": "tokenURI",
      "outputs": [
        {
          "internalType": "string",
          "name": "",
          "type": "string"
        }
      ],
      "stateMutability": "view",
      "type": "function"
    },
    {
      "inputs": [
        {
          "internalType": "address",
          "name": "from",
          "type": "address"
        },
        {
          "internalType": "address",
          "name": "to",
          "type": "address"
        },
        {
          "internalType": "uint256",
          "name": "tokenId",
          "type": "uint256"
        }
      ],
      "name": "transferFrom",
      "outputs": [],
      "stateMutability": "nonpayable",
      "type": "function"
    },
    {
      "inputs": [
        {
          "internalType": "address",
          "name": "_from",
          "type": "address"
        },
        {
          "internalType": "address",
          "name": "_to",
          "type": "address"
        },
        {
          "internalType": "uint256",
          "name": "_tokenId",
          "type": "uint256"
        }
      ],
      "name": "transferNFT",
      "outputs": [],
      "stateMutability": "nonpayable",
      "type": "function"
    },
    {
      "inputs": [
        {
          "internalType": "address",
          "name": "newOwner",
          "type": "address"
        }
      ],
      "name": "transferOwnership",
      "outputs": [],
      "stateMutability": "nonpayable",
      "type": "function"
    }
  ],
  "bytecode": "0x60806040523480156200001157600080fd5b506040518060400160405280600a81526020017f54657374696e674e4654000000000000000000000000000000000000000000008152506040518060400160405280600481526020017f544e465400000000000000000000000000000000000000000000000000000000815250816000908051906020019062000096929190620001a6565b508060019080519060200190620000af929190620001a6565b505050620000d2620000c6620000d860201b60201c565b620000e060201b60201c565b620002bb565b600033905090565b6000600760009054906101000a900473ffffffffffffffffffffffffffffffffffffffff16905081600760006101000a81548173ffffffffffffffffffffffffffffffffffffffff021916908373ffffffffffffffffffffffffffffffffffffffff1602179055508173ffffffffffffffffffffffffffffffffffffffff168173ffffffffffffffffffffffffffffffffffffffff167f8be0079c531659141344cd1fd0a4f28419497f9722a3daafe3b4186f6b6457e060405160405180910390a35050565b828054620001b49062000256565b90600052602060002090601f016020900481019282620001d8576000855562000224565b82601f10620001f357805160ff191683800117855562000224565b8280016001018555821562000224579182015b828111156200022357825182559160200191906001019062000206565b5b50905062000233919062000237565b5090565b5b808211156200025257600081600090555060010162000238565b5090565b600060028204905060018216806200026f57607f821691505b602082108114156200028657620002856200028c565b5b50919050565b7f4e487b7100000000000000000000000000000000000000000000000000000000600052602260045260246000fd5b6135a480620002cb6000396000f3fe60806040526004361061011f5760003560e01c80638da5cb5b116100a0578063b88d4fde11610064578063b88d4fde146103d7578063c87b56dd14610400578063d16aad611461043d578063e985e9c514610468578063f2fde38b146104a55761011f565b80638da5cb5b146102fe5780638f8391531461032957806395d89b4114610345578063a22cb46514610370578063b4b5b48f146103995761011f565b806342842e0e116100e757806342842e0e1461021b5780636352211e1461024457806369e9cae11461028157806370a08231146102aa578063715018a6146102e75761011f565b806301ffc9a71461012457806306fdde0314610161578063081812fc1461018c578063095ea7b3146101c957806323b872dd146101f2575b600080fd5b34801561013057600080fd5b5061014b60048036038101906101469190612313565b6104ce565b60405161015891906128ce565b60405180910390f35b34801561016d57600080fd5b506101766105b0565b60405161018391906128e9565b60405180910390f35b34801561019857600080fd5b506101b360048036038101906101ae9190612365565b610642565b6040516101c09190612845565b60405180910390f35b3480156101d557600080fd5b506101f060048036038101906101eb91906122d7565b6106c7565b005b3480156101fe57600080fd5b50610219600480360381019061021491906121d1565b6107df565b005b34801561022757600080fd5b50610242600480360381019061023d91906121d1565b61083f565b005b34801561025057600080fd5b5061026b60048036038101906102669190612365565b61085f565b6040516102789190612845565b60405180910390f35b34801561028d57600080fd5b506102a860048036038101906102a391906121d1565b610911565b005b3480156102b657600080fd5b506102d160048036038101906102cc919061216c565b610a33565b6040516102de9190612b6b565b60405180910390f35b3480156102f357600080fd5b506102fc610aeb565b005b34801561030a57600080fd5b50610313610b73565b6040516103209190612845565b60405180910390f35b610343600480360381019061033e919061238e565b610b9d565b005b34801561035157600080fd5b5061035a610cad565b60405161036791906128e9565b60405180910390f35b34801561037c57600080fd5b506103976004803603810190610392919061229b565b610d3f565b005b3480156103a557600080fd5b506103c060048036038101906103bb9190612365565b610d55565b6040516103ce929190612b86565b60405180910390f35b3480156103e357600080fd5b506103fe60048036038101906103f99190612220565b610da9565b005b34801561040c57600080fd5b5061042760048036038101906104229190612365565b610e0b565b60405161043491906128e9565b60405180910390f35b34801561044957600080fd5b50610452610f5d565b60405161045f91906128ac565b60405180910390f35b34801561047457600080fd5b5061048f600480360381019061048a9190612195565b61101c565b60405161049c91906128ce565b60405180910390f35b3480156104b157600080fd5b506104cc60048036038101906104c7919061216c565b6110b0565b005b60007f80ac58cd000000000000000000000000000000000000000000000000000000007bffffffffffffffffffffffffffffffffffffffffffffffffffffffff1916827bffffffffffffffffffffffffffffffffffffffffffffffffffffffff1916148061059957507f5b5e139f000000000000000000000000000000000000000000000000000000007bffffffffffffffffffffffffffffffffffffffffffffffffffffffff1916827bffffffffffffffffffffffffffffffffffffffffffffffffffffffff1916145b806105a957506105a8826111a8565b5b9050919050565b6060600080546105bf90612e23565b80601f01602080910402602001604051908101604052809291908181526020018280546105eb90612e23565b80156106385780601f1061060d57610100808354040283529160200191610638565b820191906000526020600020905b81548152906001019060200180831161061b57829003601f168201915b5050505050905090565b600061064d82611212565b61068c576040517f08c379a000000000000000000000000000000000000000000000000000000000815260040161068390612aab565b60405180910390fd5b6004600083815260200190815260200160002060009054906101000a900473ffffffffffffffffffffffffffffffffffffffff169050919050565b60006106d28261085f565b90508073ffffffffffffffffffffffffffffffffffffffff168373ffffffffffffffffffffffffffffffffffffffff161415610743576040517f08c379a000000000000000000000000000000000000000000000000000000000815260040161073a90612b0b565b60405180910390fd5b8073ffffffffffffffffffffffffffffffffffffffff1661076261127e565b73ffffffffffffffffffffffffffffffffffffffff16148061079157506107908161078b61127e565b61101c565b5b6107d0576040517f08c379a00000000000000000000000000000000000000000000000000000000081526004016107c7906129eb565b60405180910390fd5b6107da8383611286565b505050565b6107f06107ea61127e565b8261133f565b61082f576040517f08c379a000000000000000000000000000000000000000000000000000000000815260040161082690612b2b565b60405180910390fd5b61083a83838361141d565b505050565b61085a83838360405180602001604052806000815250610da9565b505050565b6000806002600084815260200190815260200160002060009054906101000a900473ffffffffffffffffffffffffffffffffffffffff169050600073ffffffffffffffffffffffffffffffffffffffff168173ffffffffffffffffffffffffffffffffffffffff161415610908576040517f08c379a00000000000000000000000000000000000000000000000000000000081526004016108ff90612a2b565b60405180910390fd5b80915050919050565b8273ffffffffffffffffffffffffffffffffffffffff166109318261085f565b73ffffffffffffffffffffffffffffffffffffffff1614610987576040517f08c379a000000000000000000000000000000000000000000000000000000000815260040161097e90612b4b565b60405180910390fd5b6109928383836107df565b600060096001836109a39190612d39565b815481106109da577f4e487b7100000000000000000000000000000000000000000000000000000000600052603260045260246000fd5b90600052602060002090600202019050828160010160006101000a81548173ffffffffffffffffffffffffffffffffffffffff021916908373ffffffffffffffffffffffffffffffffffffffff16021790555050505050565b60008073ffffffffffffffffffffffffffffffffffffffff168273ffffffffffffffffffffffffffffffffffffffff161415610aa4576040517f08c379a0000000000000000000000000000000000000000000000000000000008152600401610a9b90612a0b565b60405180910390fd5b600360008373ffffffffffffffffffffffffffffffffffffffff1673ffffffffffffffffffffffffffffffffffffffff168152602001908152602001600020549050919050565b610af361127e565b73ffffffffffffffffffffffffffffffffffffffff16610b11610b73565b73ffffffffffffffffffffffffffffffffffffffff1614610b67576040517f08c379a0000000000000000000000000000000000000000000000000000000008152600401610b5e90612acb565b60405180910390fd5b610b716000611684565b565b6000600760009054906101000a900473ffffffffffffffffffffffffffffffffffffffff16905090565b600960405180604001604052808581526020018473ffffffffffffffffffffffffffffffffffffffff1681525090806001815401808255809150506001900390600052602060002090600202016000909190919091506000820151816000015560208201518160010160006101000a81548173ffffffffffffffffffffffffffffffffffffffff021916908373ffffffffffffffffffffffffffffffffffffffff1602179055505050610c50828461174a565b610c5a8382611924565b8173ffffffffffffffffffffffffffffffffffffffff167fbc2023acefe76a420b4accf8727b46e16359c6a9119bc7a77173e941fe54520d84604051610ca09190612b6b565b60405180910390a2505050565b606060018054610cbc90612e23565b80601f0160208091040260200160405190810160405280929190818152602001828054610ce890612e23565b8015610d355780601f10610d0a57610100808354040283529160200191610d35565b820191906000526020600020905b815481529060010190602001808311610d1857829003601f168201915b5050505050905090565b610d51610d4a61127e565b8383611998565b5050565b60098181548110610d6557600080fd5b90600052602060002090600202016000915090508060000154908060010160009054906101000a900473ffffffffffffffffffffffffffffffffffffffff16905082565b610dba610db461127e565b8361133f565b610df9576040517f08c379a0000000000000000000000000000000000000000000000000000000008152600401610df090612b2b565b60405180910390fd5b610e0584848484611b05565b50505050565b6060610e1682611212565b610e55576040517f08c379a0000000000000000000000000000000000000000000000000000000008152600401610e4c90612a8b565b60405180910390fd5b6000600660008481526020019081526020016000208054610e7590612e23565b80601f0160208091040260200160405190810160405280929190818152602001828054610ea190612e23565b8015610eee5780601f10610ec357610100808354040283529160200191610eee565b820191906000526020600020905b815481529060010190602001808311610ed157829003601f168201915b505050505090506000610eff611b61565b9050600081511415610f15578192505050610f58565b600082511115610f4a578082604051602001610f32929190612821565b60405160208183030381529060405292505050610f58565b610f5384611b78565b925050505b919050565b60606009805480602002602001604051908101604052809291908181526020016000905b828210156110135783829060005260206000209060020201604051806040016040529081600082015481526020016001820160009054906101000a900473ffffffffffffffffffffffffffffffffffffffff1673ffffffffffffffffffffffffffffffffffffffff1673ffffffffffffffffffffffffffffffffffffffff168152505081526020019060010190610f81565b50505050905090565b6000600560008473ffffffffffffffffffffffffffffffffffffffff1673ffffffffffffffffffffffffffffffffffffffff16815260200190815260200160002060008373ffffffffffffffffffffffffffffffffffffffff1673ffffffffffffffffffffffffffffffffffffffff16815260200190815260200160002060009054906101000a900460ff16905092915050565b6110b861127e565b73ffffffffffffffffffffffffffffffffffffffff166110d6610b73565b73ffffffffffffffffffffffffffffffffffffffff161461112c576040517f08c379a000000000000000000000000000000000000000000000000000000000815260040161112390612acb565b60405180910390fd5b600073ffffffffffffffffffffffffffffffffffffffff168173ffffffffffffffffffffffffffffffffffffffff16141561119c576040517f08c379a00000000000000000000000000000000000000000000000000000000081526004016111939061292b565b60405180910390fd5b6111a581611684565b50565b60007f01ffc9a7000000000000000000000000000000000000000000000000000000007bffffffffffffffffffffffffffffffffffffffffffffffffffffffff1916827bffffffffffffffffffffffffffffffffffffffffffffffffffffffff1916149050919050565b60008073ffffffffffffffffffffffffffffffffffffffff166002600084815260200190815260200160002060009054906101000a900473ffffffffffffffffffffffffffffffffffffffff1673ffffffffffffffffffffffffffffffffffffffff1614159050919050565b600033905090565b816004600083815260200190815260200160002060006101000a81548173ffffffffffffffffffffffffffffffffffffffff021916908373ffffffffffffffffffffffffffffffffffffffff160217905550808273ffffffffffffffffffffffffffffffffffffffff166112f98361085f565b73ffffffffffffffffffffffffffffffffffffffff167f8c5be1e5ebec7d5bd14f71427d1e84f3dd0314c0f7b2291e5b200ac8c7c3b92560405160405180910390a45050565b600061134a82611212565b611389576040517f08c379a0000000000000000000000000000000000000000000000000000000008152600401611380906129cb565b60405180910390fd5b60006113948361085f565b90508073ffffffffffffffffffffffffffffffffffffffff168473ffffffffffffffffffffffffffffffffffffffff16148061140357508373ffffffffffffffffffffffffffffffffffffffff166113eb84610642565b73ffffffffffffffffffffffffffffffffffffffff16145b806114145750611413818561101c565b5b91505092915050565b8273ffffffffffffffffffffffffffffffffffffffff1661143d8261085f565b73ffffffffffffffffffffffffffffffffffffffff1614611493576040517f08c379a000000000000000000000000000000000000000000000000000000000815260040161148a9061294b565b60405180910390fd5b600073ffffffffffffffffffffffffffffffffffffffff168273ffffffffffffffffffffffffffffffffffffffff161415611503576040517f08c379a00000000000000000000000000000000000000000000000000000000081526004016114fa9061298b565b60405180910390fd5b61150e838383611c1f565b611519600082611286565b6001600360008573ffffffffffffffffffffffffffffffffffffffff1673ffffffffffffffffffffffffffffffffffffffff16815260200190815260200160002060008282546115699190612d39565b925050819055506001600360008473ffffffffffffffffffffffffffffffffffffffff1673ffffffffffffffffffffffffffffffffffffffff16815260200190815260200160002060008282546115c09190612cb2565b92505081905550816002600083815260200190815260200160002060006101000a81548173ffffffffffffffffffffffffffffffffffffffff021916908373ffffffffffffffffffffffffffffffffffffffff160217905550808273ffffffffffffffffffffffffffffffffffffffff168473ffffffffffffffffffffffffffffffffffffffff167fddf252ad1be2c89b69c2b068fc378daa952ba7f163c4a11628f55a4df523b3ef60405160405180910390a461167f838383611c24565b505050565b6000600760009054906101000a900473ffffffffffffffffffffffffffffffffffffffff16905081600760006101000a81548173ffffffffffffffffffffffffffffffffffffffff021916908373ffffffffffffffffffffffffffffffffffffffff1602179055508173ffffffffffffffffffffffffffffffffffffffff168173ffffffffffffffffffffffffffffffffffffffff167f8be0079c531659141344cd1fd0a4f28419497f9722a3daafe3b4186f6b6457e060405160405180910390a35050565b600073ffffffffffffffffffffffffffffffffffffffff168273ffffffffffffffffffffffffffffffffffffffff1614156117ba576040517f08c379a00000000000000000000000000000000000000000000000000000000081526004016117b190612a6b565b60405180910390fd5b6117c381611212565b15611803576040517f08c379a00000000000000000000000000000000000000000000000000000000081526004016117fa9061296b565b60405180910390fd5b61180f60008383611c1f565b6001600360008473ffffffffffffffffffffffffffffffffffffffff1673ffffffffffffffffffffffffffffffffffffffff168152602001908152602001600020600082825461185f9190612cb2565b92505081905550816002600083815260200190815260200160002060006101000a81548173ffffffffffffffffffffffffffffffffffffffff021916908373ffffffffffffffffffffffffffffffffffffffff160217905550808273ffffffffffffffffffffffffffffffffffffffff16600073ffffffffffffffffffffffffffffffffffffffff167fddf252ad1be2c89b69c2b068fc378daa952ba7f163c4a11628f55a4df523b3ef60405160405180910390a461192060008383611c24565b5050565b61192d82611212565b61196c576040517f08c379a000000000000000000000000000000000000000000000000000000000815260040161196390612a4b565b60405180910390fd5b80600660008481526020019081526020016000209080519060200190611993929190611f90565b505050565b8173ffffffffffffffffffffffffffffffffffffffff168373ffffffffffffffffffffffffffffffffffffffff161415611a07576040517f08c379a00000000000000000000000000000000000000000000000000000000081526004016119fe906129ab565b60405180910390fd5b80600560008573ffffffffffffffffffffffffffffffffffffffff1673ffffffffffffffffffffffffffffffffffffffff16815260200190815260200160002060008473ffffffffffffffffffffffffffffffffffffffff1673ffffffffffffffffffffffffffffffffffffffff16815260200190815260200160002060006101000a81548160ff0219169083151502179055508173ffffffffffffffffffffffffffffffffffffffff168373ffffffffffffffffffffffffffffffffffffffff167f17307eab39ab6107e8899845ad3d59bd9653f200f220920489ca2b5937696c3183604051611af891906128ce565b60405180910390a3505050565b611b1084848461141d565b611b1c84848484611c29565b611b5b576040517f08c379a0000000000000000000000000000000000000000000000000000000008152600401611b529061290b565b60405180910390fd5b50505050565b606060405180602001604052806000815250905090565b6060611b8382611212565b611bc2576040517f08c379a0000000000000000000000000000000000000000000000000000000008152600401611bb990612aeb565b60405180910390fd5b6000611bcc611b61565b90506000815111611bec5760405180602001604052806000815250611c17565b80611bf684611dc0565b604051602001611c07929190612821565b6040516020818303038152906040525b915050919050565b505050565b505050565b6000611c4a8473ffffffffffffffffffffffffffffffffffffffff16611f6d565b15611db3578373ffffffffffffffffffffffffffffffffffffffff1663150b7a02611c7361127e565b8786866040518563ffffffff1660e01b8152600401611c959493929190612860565b602060405180830381600087803b158015611caf57600080fd5b505af1925050508015611ce057506040513d601f19601f82011682018060405250810190611cdd919061233c565b60015b611d63573d8060008114611d10576040519150601f19603f3d011682016040523d82523d6000602084013e611d15565b606091505b50600081511415611d5b576040517f08c379a0000000000000000000000000000000000000000000000000000000008152600401611d529061290b565b60405180910390fd5b805181602001fd5b63150b7a0260e01b7bffffffffffffffffffffffffffffffffffffffffffffffffffffffff1916817bffffffffffffffffffffffffffffffffffffffffffffffffffffffff191614915050611db8565b600190505b949350505050565b60606000821415611e08576040518060400160405280600181526020017f30000000000000000000000000000000000000000000000000000000000000008152509050611f68565b600082905060005b60008214611e3a578080611e2390612e86565b915050600a82611e339190612d08565b9150611e10565b60008167ffffffffffffffff811115611e7c577f4e487b7100000000000000000000000000000000000000000000000000000000600052604160045260246000fd5b6040519080825280601f01601f191660200182016040528015611eae5781602001600182028036833780820191505090505b5090505b60008514611f6157600182611ec79190612d39565b9150600a85611ed69190612ecf565b6030611ee29190612cb2565b60f81b818381518110611f1e577f4e487b7100000000000000000000000000000000000000000000000000000000600052603260045260246000fd5b60200101907effffffffffffffffffffffffffffffffffffffffffffffffffffffffffffff1916908160001a905350600a85611f5a9190612d08565b9450611eb2565b8093505050505b919050565b6000808273ffffffffffffffffffffffffffffffffffffffff163b119050919050565b828054611f9c90612e23565b90600052602060002090601f016020900481019282611fbe5760008555612005565b82601f10611fd757805160ff1916838001178555612005565b82800160010185558215612005579182015b82811115612004578251825591602001919060010190611fe9565b5b5090506120129190612016565b5090565b5b8082111561202f576000816000905550600101612017565b5090565b600061204661204184612bd4565b612baf565b90508281526020810184848401111561205e57600080fd5b612069848285612de1565b509392505050565b600061208461207f84612c05565b612baf565b90508281526020810184848401111561209c57600080fd5b6120a7848285612de1565b509392505050565b6000813590506120be81613512565b92915050565b6000813590506120d381613529565b92915050565b6000813590506120e881613540565b92915050565b6000815190506120fd81613540565b92915050565b600082601f83011261211457600080fd5b8135612124848260208601612033565b91505092915050565b600082601f83011261213e57600080fd5b813561214e848260208601612071565b91505092915050565b60008135905061216681613557565b92915050565b60006020828403121561217e57600080fd5b600061218c848285016120af565b91505092915050565b600080604083850312156121a857600080fd5b60006121b6858286016120af565b92505060206121c7858286016120af565b9150509250929050565b6000806000606084860312156121e657600080fd5b60006121f4868287016120af565b9350506020612205868287016120af565b925050604061221686828701612157565b9150509250925092565b6000806000806080858703121561223657600080fd5b6000612244878288016120af565b9450506020612255878288016120af565b935050604061226687828801612157565b925050606085013567ffffffffffffffff81111561228357600080fd5b61228f87828801612103565b91505092959194509250565b600080604083850312156122ae57600080fd5b60006122bc858286016120af565b92505060206122cd858286016120c4565b9150509250929050565b600080604083850312156122ea57600080fd5b60006122f8858286016120af565b925050602061230985828601612157565b9150509250929050565b60006020828403121561232557600080fd5b6000612333848285016120d9565b91505092915050565b60006020828403121561234e57600080fd5b600061235c848285016120ee565b91505092915050565b60006020828403121561237757600080fd5b600061238584828501612157565b91505092915050565b6000806000606084860312156123a357600080fd5b60006123b186828701612157565b93505060206123c2868287016120af565b925050604084013567ffffffffffffffff8111156123df57600080fd5b6123eb8682870161212d565b9150509250925092565b600061240183836127d4565b60408301905092915050565b61241681612d6d565b82525050565b61242581612d6d565b82525050565b600061243682612c46565b6124408185612c74565b935061244b83612c36565b8060005b8381101561247c57815161246388826123f5565b975061246e83612c67565b92505060018101905061244f565b5085935050505092915050565b61249281612d7f565b82525050565b60006124a382612c51565b6124ad8185612c85565b93506124bd818560208601612df0565b6124c681612fbc565b840191505092915050565b60006124dc82612c5c565b6124e68185612c96565b93506124f6818560208601612df0565b6124ff81612fbc565b840191505092915050565b600061251582612c5c565b61251f8185612ca7565b935061252f818560208601612df0565b80840191505092915050565b6000612548603283612c96565b915061255382612fcd565b604082019050919050565b600061256b602683612c96565b91506125768261301c565b604082019050919050565b600061258e602583612c96565b91506125998261306b565b604082019050919050565b60006125b1601c83612c96565b91506125bc826130ba565b602082019050919050565b60006125d4602483612c96565b91506125df826130e3565b604082019050919050565b60006125f7601983612c96565b915061260282613132565b602082019050919050565b600061261a602c83612c96565b91506126258261315b565b604082019050919050565b600061263d603883612c96565b9150612648826131aa565b604082019050919050565b6000612660602a83612c96565b915061266b826131f9565b604082019050919050565b6000612683602983612c96565b915061268e82613248565b604082019050919050565b60006126a6602e83612c96565b91506126b182613297565b604082019050919050565b60006126c9602083612c96565b91506126d4826132e6565b602082019050919050565b60006126ec603183612c96565b91506126f78261330f565b604082019050919050565b600061270f602c83612c96565b915061271a8261335e565b604082019050919050565b6000612732602083612c96565b915061273d826133ad565b602082019050919050565b6000612755602f83612c96565b9150612760826133d6565b604082019050919050565b6000612778602183612c96565b915061278382613425565b604082019050919050565b600061279b603183612c96565b91506127a682613474565b604082019050919050565b60006127be602383612c96565b91506127c9826134c3565b604082019050919050565b6040820160008201516127ea6000850182612803565b5060208201516127fd602085018261240d565b50505050565b61280c81612dd7565b82525050565b61281b81612dd7565b82525050565b600061282d828561250a565b9150612839828461250a565b91508190509392505050565b600060208201905061285a600083018461241c565b92915050565b6000608082019050612875600083018761241c565b612882602083018661241c565b61288f6040830185612812565b81810360608301526128a18184612498565b905095945050505050565b600060208201905081810360008301526128c6818461242b565b905092915050565b60006020820190506128e36000830184612489565b92915050565b6000602082019050818103600083015261290381846124d1565b905092915050565b600060208201905081810360008301526129248161253b565b9050919050565b600060208201905081810360008301526129448161255e565b9050919050565b6000602082019050818103600083015261296481612581565b9050919050565b60006020820190508181036000830152612984816125a4565b9050919050565b600060208201905081810360008301526129a4816125c7565b9050919050565b600060208201905081810360008301526129c4816125ea565b9050919050565b600060208201905081810360008301526129e48161260d565b9050919050565b60006020820190508181036000830152612a0481612630565b9050919050565b60006020820190508181036000830152612a2481612653565b9050919050565b60006020820190508181036000830152612a4481612676565b9050919050565b60006020820190508181036000830152612a6481612699565b9050919050565b60006020820190508181036000830152612a84816126bc565b9050919050565b60006020820190508181036000830152612aa4816126df565b9050919050565b60006020820190508181036000830152612ac481612702565b9050919050565b60006020820190508181036000830152612ae481612725565b9050919050565b60006020820190508181036000830152612b0481612748565b9050919050565b60006020820190508181036000830152612b248161276b565b9050919050565b60006020820190508181036000830152612b448161278e565b9050919050565b60006020820190508181036000830152612b64816127b1565b9050919050565b6000602082019050612b806000830184612812565b92915050565b6000604082019050612b9b6000830185612812565b612ba8602083018461241c565b9392505050565b6000612bb9612bca565b9050612bc58282612e55565b919050565b6000604051905090565b600067ffffffffffffffff821115612bef57612bee612f8d565b5b612bf882612fbc565b9050602081019050919050565b600067ffffffffffffffff821115612c2057612c1f612f8d565b5b612c2982612fbc565b9050602081019050919050565b6000819050602082019050919050565b600081519050919050565b600081519050919050565b600081519050919050565b6000602082019050919050565b600082825260208201905092915050565b600082825260208201905092915050565b600082825260208201905092915050565b600081905092915050565b6000612cbd82612dd7565b9150612cc883612dd7565b9250827fffffffffffffffffffffffffffffffffffffffffffffffffffffffffffffffff03821115612cfd57612cfc612f00565b5b828201905092915050565b6000612d1382612dd7565b9150612d1e83612dd7565b925082612d2e57612d2d612f2f565b5b828204905092915050565b6000612d4482612dd7565b9150612d4f83612dd7565b925082821015612d6257612d61612f00565b5b828203905092915050565b6000612d7882612db7565b9050919050565b60008115159050919050565b60007fffffffff0000000000000000000000000000000000000000000000000000000082169050919050565b600073ffffffffffffffffffffffffffffffffffffffff82169050919050565b6000819050919050565b82818337600083830152505050565b60005b83811015612e0e578082015181840152602081019050612df3565b83811115612e1d576000848401525b50505050565b60006002820490506001821680612e3b57607f821691505b60208210811415612e4f57612e4e612f5e565b5b50919050565b612e5e82612fbc565b810181811067ffffffffffffffff82111715612e7d57612e7c612f8d565b5b80604052505050565b6000612e9182612dd7565b91507fffffffffffffffffffffffffffffffffffffffffffffffffffffffffffffffff821415612ec457612ec3612f00565b5b600182019050919050565b6000612eda82612dd7565b9150612ee583612dd7565b925082612ef557612ef4612f2f565b5b828206905092915050565b7f4e487b7100000000000000000000000000000000000000000000000000000000600052601160045260246000fd5b7f4e487b7100000000000000000000000000000000000000000000000000000000600052601260045260246000fd5b7f4e487b7100000000000000000000000000000000000000000000000000000000600052602260045260246000fd5b7f4e487b7100000000000000000000000000000000000000000000000000000000600052604160045260246000fd5b6000601f19601f8301169050919050565b7f4552433732313a207472616e7366657220746f206e6f6e20455243373231526560008201527f63656976657220696d706c656d656e7465720000000000000000000000000000602082015250565b7f4f776e61626c653a206e6577206f776e657220697320746865207a65726f206160008201527f6464726573730000000000000000000000000000000000000000000000000000602082015250565b7f4552433732313a207472616e736665722066726f6d20696e636f72726563742060008201527f6f776e6572000000000000000000000000000000000000000000000000000000602082015250565b7f4552433732313a20746f6b656e20616c7265616479206d696e74656400000000600082015250565b7f4552433732313a207472616e7366657220746f20746865207a65726f2061646460008201527f7265737300000000000000000000000000000000000000000000000000000000602082015250565b7f4552433732313a20617070726f766520746f2063616c6c657200000000000000600082015250565b7f4552433732313a206f70657261746f7220717565727920666f72206e6f6e657860008201527f697374656e7420746f6b656e0000000000000000000000000000000000000000602082015250565b7f4552433732313a20617070726f76652063616c6c6572206973206e6f74206f7760008201527f6e6572206e6f7220617070726f76656420666f7220616c6c0000000000000000602082015250565b7f4552433732313a2062616c616e636520717565727920666f7220746865207a6560008201527f726f206164647265737300000000000000000000000000000000000000000000602082015250565b7f4552433732313a206f776e657220717565727920666f72206e6f6e657869737460008201527f656e7420746f6b656e0000000000000000000000000000000000000000000000602082015250565b7f45524337323155524953746f726167653a2055524920736574206f66206e6f6e60008201527f6578697374656e7420746f6b656e000000000000000000000000000000000000602082015250565b7f4552433732313a206d696e7420746f20746865207a65726f2061646472657373600082015250565b7f45524337323155524953746f726167653a2055524920717565727920666f722060008201527f6e6f6e6578697374656e7420746f6b656e000000000000000000000000000000602082015250565b7f4552433732313a20617070726f76656420717565727920666f72206e6f6e657860008201527f697374656e7420746f6b656e0000000000000000000000000000000000000000602082015250565b7f4f776e61626c653a2063616c6c6572206973206e6f7420746865206f776e6572600082015250565b7f4552433732314d657461646174613a2055524920717565727920666f72206e6f60008201527f6e6578697374656e7420746f6b656e0000000000000000000000000000000000602082015250565b7f4552433732313a20617070726f76616c20746f2063757272656e74206f776e6560008201527f7200000000000000000000000000000000000000000000000000000000000000602082015250565b7f4552433732313a207472616e736665722063616c6c6572206973206e6f74206f60008201527f776e6572206e6f7220617070726f766564000000000000000000000000000000602082015250565b7f596f7520617265206e6f7420746865206f776e6572206f66207468697320746f60008201527f6b656e0000000000000000000000000000000000000000000000000000000000602082015250565b61351b81612d6d565b811461352657600080fd5b50565b61353281612d7f565b811461353d57600080fd5b50565b61354981612d8b565b811461355457600080fd5b50565b61356081612dd7565b811461356b57600080fd5b5056fea26469706673582212209fef0e724f06deba76f461ebd2ae66ca6def27f1044961519c1dd5d3dbd6859264736f6c63430008040033",
  "linkReferences": {},
  "deployedLinkReferences": {}
}