{
  "_format": "hh-sol-artifact-1",
  "contractName": "Token",
  "sourceName": "contracts/Token.sol",
  "abi": [
    {
      "inputs": [],
      "stateMutability": "nonpayable",
      "type": "constructor"
    },
    {
      "anonymous": false,
      "inputs": [
        {
          "indexed": true,
          "internalType": "address",
          "name": "owner",
          "type": "address"
        },
        {
          "indexed": true,
          "internalType": "address",
          "name": "approved",
          "type": "address"
        },
        {
          "indexed": true,
          "internalType": "uint256",
          "name": "tokenId",
          "type": "uint256"
        }
      ],
      "name": "Approval",
      "type": "event"
    },
    {
      "anonymous": false,
      "inputs": [
        {
          "indexed": true,
          "internalType": "address",
          "name": "owner",
          "type": "address"
        },
        {
          "indexed": true,
          "internalType": "address",
          "name": "operator",
          "type": "address"
        },
        {
          "indexed": false,
          "internalType": "bool",
          "name": "approved",
          "type": "bool"
        }
      ],
      "name": "ApprovalForAll",
      "type": "event"
    },
    {
      "anonymous": false,
      "inputs": [
        {
          "indexed": true,
          "internalType": "address",
          "name": "owner",
          "type": "address"
        },
        {
          "indexed": false,
          "internalType": "uint256",
          "name": "id",
          "type": "uint256"
        }
      ],
      "name": "NewTokenData",
      "type": "event"
    },
    {
      "anonymous": false,
      "inputs": [
        {
          "indexed": true,
          "internalType": "address",
          "name": "previousOwner",
          "type": "address"
        },
        {
          "indexed": true,
          "internalType": "address",
          "name": "newOwner",
          "type": "address"
        }
      ],
      "name": "OwnershipTransferred",
      "type": "event"
    },
    {
      "anonymous": false,
      "inputs": [
        {
          "indexed": true,
          "internalType": "address",
          "name": "from",
          "type": "address"
        },
        {
          "indexed": true,
          "internalType": "address",
          "name": "to",
          "type": "address"
        },
        {
          "indexed": true,
          "internalType": "uint256",
          "name": "tokenId",
          "type": "uint256"
        }
      ],
      "name": "Transfer",
      "type": "event"
    },
    {
      "inputs": [
        {
          "internalType": "address",
          "name": "to",
          "type": "address"
        },
        {
          "internalType": "uint256",
          "name": "tokenId",
          "type": "uint256"
        }
      ],
      "name": "approve",
      "outputs": [],
      "stateMutability": "nonpayable",
      "type": "function"
    },
    {
      "inputs": [
        {
          "internalType": "address",
          "name": "owner",
          "type": "address"
        }
      ],
      "name": "balanceOf",
      "outputs": [
        {
          "internalType": "uint256",
          "name": "",
          "type": "uint256"
        }
      ],
      "stateMutability": "view",
      "type": "function"
    },
    {
      "inputs": [
        {
          "internalType": "uint256",
          "name": "tokenId",
          "type": "uint256"
        }
      ],
      "name": "getApproved",
      "outputs": [
        {
          "internalType": "address",
          "name": "",
          "type": "address"
        }
      ],
      "stateMutability": "view",
      "type": "function"
    },
    {
      "inputs": [],
      "name": "getTokenData",
      "outputs": [
        {
          "components": [
            {
              "internalType": "uint256",
              "name": "tokenId",
              "type": "uint256"
            },
            {
              "internalType": "address",
              "name": "owner",
              "type": "address"
            }
          ],
          "internalType": "struct Token.TokenData[]",
          "name": "",
          "type": "tuple[]"
        }
      ],
      "stateMutability": "view",
      "type": "function"
    },
    {
      "inputs": [
        {
          "internalType": "address",
          "name": "owner",
          "type": "address"
        },
        {
          "internalType": "address",
          "name": "operator",
          "type": "address"
        }
      ],
      "name": "isApprovedForAll",
      "outputs": [
        {
          "internalType": "bool",
          "name": "",
          "type": "bool"
        }
      ],
      "stateMutability": "view",
      "type": "function"
    },
    {
      "inputs": [
        {
          "internalType": "address",
          "name": "recipient",
          "type": "address"
        },
        {
          "internalType": "string",
          "name": "tokenURI",
          "type": "string"
        }
      ],
      "name": "mintNFT",
      "outputs": [],
      "stateMutability": "payable",
      "type": "function"
    },
    {
      "inputs": [],
      "name": "name",
      "outputs": [
        {
          "internalType": "string",
          "name": "",
          "type": "string"
        }
      ],
      "stateMutability": "view",
      "type": "function"
    },
    {
      "inputs": [],
      "name": "owner",
      "outputs": [
        {
          "internalType": "address",
          "name": "",
          "type": "address"
        }
      ],
      "stateMutability": "view",
      "type": "function"
    },
    {
      "inputs": [
        {
          "internalType": "uint256",
          "name": "tokenId",
          "type": "uint256"
        }
      ],
      "name": "ownerOf",
      "outputs": [
        {
          "internalType": "address",
          "name": "",
          "type": "address"
        }
      ],
      "stateMutability": "view",
      "type": "function"
    },
    {
      "inputs": [],
      "name": "renounceOwnership",
      "outputs": [],
      "stateMutability": "nonpayable",
      "type": "function"
    },
    {
      "inputs": [
        {
          "internalType": "address",
          "name": "from",
          "type": "address"
        },
        {
          "internalType": "address",
          "name": "to",
          "type": "address"
        },
        {
          "internalType": "uint256",
          "name": "tokenId",
          "type": "uint256"
        }
      ],
      "name": "safeTransferFrom",
      "outputs": [],
      "stateMutability": "nonpayable",
      "type": "function"
    },
    {
      "inputs": [
        {
          "internalType": "address",
          "name": "from",
          "type": "address"
        },
        {
          "internalType": "address",
          "name": "to",
          "type": "address"
        },
        {
          "internalType": "uint256",
          "name": "tokenId",
          "type": "uint256"
        },
        {
          "internalType": "bytes",
          "name": "_data",
          "type": "bytes"
        }
      ],
      "name": "safeTransferFrom",
      "outputs": [],
      "stateMutability": "nonpayable",
      "type": "function"
    },
    {
      "inputs": [
        {
          "internalType": "address",
          "name": "operator",
          "type": "address"
        },
        {
          "internalType": "bool",
          "name": "approved",
          "type": "bool"
        }
      ],
      "name": "setApprovalForAll",
      "outputs": [],
      "stateMutability": "nonpayable",
      "type": "function"
    },
    {
      "inputs": [
        {
          "internalType": "bytes4",
          "name": "interfaceId",
          "type": "bytes4"
        }
      ],
      "name": "supportsInterface",
      "outputs": [
        {
          "internalType": "bool",
          "name": "",
          "type": "bool"
        }
      ],
      "stateMutability": "view",
      "type": "function"
    },
    {
      "inputs": [],
      "name": "symbol",
      "outputs": [
        {
          "internalType": "string",
          "name": "",
          "type": "string"
        }
      ],
      "stateMutability": "view",
      "type": "function"
    },
    {
      "inputs": [
        {
          "internalType": "uint256",
          "name": "",
          "type": "uint256"
        }
      ],
      "name": "tokenData",
      "outputs": [
        {
          "internalType": "uint256",
          "name": "tokenId",
          "type": "uint256"
        },
        {
          "internalType": "address",
          "name": "owner",
          "type": "address"
        }
      ],
      "stateMutability": "view",
      "type": "function"
    },
    {
      "inputs": [
        {
          "internalType": "uint256",
          "name": "tokenId",
          "type": "uint256"
        }
      ],
      "name": "tokenURI",
      "outputs": [
        {
          "internalType": "string",
          "name": "",
          "type": "string"
        }
      ],
      "stateMutability": "view",
      "type": "function"
    },
    {
      "inputs": [
        {
          "internalType": "address",
          "name": "from",
          "type": "address"
        },
        {
          "internalType": "address",
          "name": "to",
          "type": "address"
        },
        {
          "internalType": "uint256",
          "name": "tokenId",
          "type": "uint256"
        }
      ],
      "name": "transferFrom",
      "outputs": [],
      "stateMutability": "nonpayable",
      "type": "function"
    },
    {
      "inputs": [
        {
          "internalType": "address",
          "name": "_to",
          "type": "address"
        },
        {
          "internalType": "uint256",
          "name": "_tokenId",
          "type": "uint256"
        }
      ],
      "name": "transferNFT",
      "outputs": [],
      "stateMutability": "nonpayable",
      "type": "function"
    },
    {
      "inputs": [
        {
          "internalType": "address",
          "name": "newOwner",
          "type": "address"
        }
      ],
      "name": "transferOwnership",
      "outputs": [],
      "stateMutability": "nonpayable",
      "type": "function"
    }
  ],
  "bytecode": "0x60806040523480156200001157600080fd5b506040518060400160405280600a81526020017f54657374696e674e4654000000000000000000000000000000000000000000008152506040518060400160405280600481526020017f544e465400000000000000000000000000000000000000000000000000000000815250816000908051906020019062000096929190620001a6565b508060019080519060200190620000af929190620001a6565b505050620000d2620000c6620000d860201b60201c565b620000e060201b60201c565b620002bb565b600033905090565b6000600760009054906101000a900473ffffffffffffffffffffffffffffffffffffffff16905081600760006101000a81548173ffffffffffffffffffffffffffffffffffffffff021916908373ffffffffffffffffffffffffffffffffffffffff1602179055508173ffffffffffffffffffffffffffffffffffffffff168173ffffffffffffffffffffffffffffffffffffffff167f8be0079c531659141344cd1fd0a4f28419497f9722a3daafe3b4186f6b6457e060405160405180910390a35050565b828054620001b49062000256565b90600052602060002090601f016020900481019282620001d8576000855562000224565b82601f10620001f357805160ff191683800117855562000224565b8280016001018555821562000224579182015b828111156200022357825182559160200191906001019062000206565b5b50905062000233919062000237565b5090565b5b808211156200025257600081600090555060010162000238565b5090565b600060028204905060018216806200026f57607f821691505b602082108114156200028657620002856200028c565b5b50919050565b7f4e487b7100000000000000000000000000000000000000000000000000000000600052602260045260246000fd5b6135cc80620002cb6000396000f3fe60806040526004361061011f5760003560e01c806394ab67fe116100a0578063c87b56dd11610064578063c87b56dd146103e4578063d16aad6114610421578063e985e9c51461044c578063eacabe1414610489578063f2fde38b146104a55761011f565b806394ab67fe1461030057806395d89b4114610329578063a22cb46514610354578063b4b5b48f1461037d578063b88d4fde146103bb5761011f565b806342842e0e116100e757806342842e0e1461021b5780636352211e1461024457806370a0823114610281578063715018a6146102be5780638da5cb5b146102d55761011f565b806301ffc9a71461012457806306fdde0314610161578063081812fc1461018c578063095ea7b3146101c957806323b872dd146101f2575b600080fd5b34801561013057600080fd5b5061014b600480360381019061014691906123a2565b6104ce565b60405161015891906128f6565b60405180910390f35b34801561016d57600080fd5b506101766105b0565b6040516101839190612911565b60405180910390f35b34801561019857600080fd5b506101b360048036038101906101ae91906123f4565b610642565b6040516101c0919061286d565b60405180910390f35b3480156101d557600080fd5b506101f060048036038101906101eb9190612366565b6106c7565b005b3480156101fe57600080fd5b506102196004803603810190610214919061220c565b6107df565b005b34801561022757600080fd5b50610242600480360381019061023d919061220c565b61083f565b005b34801561025057600080fd5b5061026b600480360381019061026691906123f4565b61085f565b604051610278919061286d565b60405180910390f35b34801561028d57600080fd5b506102a860048036038101906102a391906121a7565b610911565b6040516102b59190612b93565b60405180910390f35b3480156102ca57600080fd5b506102d36109c9565b005b3480156102e157600080fd5b506102ea610a51565b6040516102f7919061286d565b60405180910390f35b34801561030c57600080fd5b5061032760048036038101906103229190612366565b610a7b565b005b34801561033557600080fd5b5061033e610b9c565b60405161034b9190612911565b60405180910390f35b34801561036057600080fd5b5061037b600480360381019061037691906122d6565b610c2e565b005b34801561038957600080fd5b506103a4600480360381019061039f91906123f4565b610c44565b6040516103b2929190612bae565b60405180910390f35b3480156103c757600080fd5b506103e260048036038101906103dd919061225b565b610c98565b005b3480156103f057600080fd5b5061040b600480360381019061040691906123f4565b610cfa565b6040516104189190612911565b60405180910390f35b34801561042d57600080fd5b50610436610e4c565b60405161044391906128d4565b60405180910390f35b34801561045857600080fd5b50610473600480360381019061046e91906121d0565b610f0b565b60405161048091906128f6565b60405180910390f35b6104a3600480360381019061049e9190612312565b610f9f565b005b3480156104b157600080fd5b506104cc60048036038101906104c791906121a7565b6110c7565b005b60007f80ac58cd000000000000000000000000000000000000000000000000000000007bffffffffffffffffffffffffffffffffffffffffffffffffffffffff1916827bffffffffffffffffffffffffffffffffffffffffffffffffffffffff1916148061059957507f5b5e139f000000000000000000000000000000000000000000000000000000007bffffffffffffffffffffffffffffffffffffffffffffffffffffffff1916827bffffffffffffffffffffffffffffffffffffffffffffffffffffffff1916145b806105a957506105a8826111bf565b5b9050919050565b6060600080546105bf90612e4b565b80601f01602080910402602001604051908101604052809291908181526020018280546105eb90612e4b565b80156106385780601f1061060d57610100808354040283529160200191610638565b820191906000526020600020905b81548152906001019060200180831161061b57829003601f168201915b5050505050905090565b600061064d82611229565b61068c576040517f08c379a000000000000000000000000000000000000000000000000000000000815260040161068390612ad3565b60405180910390fd5b6004600083815260200190815260200160002060009054906101000a900473ffffffffffffffffffffffffffffffffffffffff169050919050565b60006106d28261085f565b90508073ffffffffffffffffffffffffffffffffffffffff168373ffffffffffffffffffffffffffffffffffffffff161415610743576040517f08c379a000000000000000000000000000000000000000000000000000000000815260040161073a90612b33565b60405180910390fd5b8073ffffffffffffffffffffffffffffffffffffffff16610762611295565b73ffffffffffffffffffffffffffffffffffffffff16148061079157506107908161078b611295565b610f0b565b5b6107d0576040517f08c379a00000000000000000000000000000000000000000000000000000000081526004016107c790612a13565b60405180910390fd5b6107da838361129d565b505050565b6107f06107ea611295565b82611356565b61082f576040517f08c379a000000000000000000000000000000000000000000000000000000000815260040161082690612b53565b60405180910390fd5b61083a838383611434565b505050565b61085a83838360405180602001604052806000815250610c98565b505050565b6000806002600084815260200190815260200160002060009054906101000a900473ffffffffffffffffffffffffffffffffffffffff169050600073ffffffffffffffffffffffffffffffffffffffff168173ffffffffffffffffffffffffffffffffffffffff161415610908576040517f08c379a00000000000000000000000000000000000000000000000000000000081526004016108ff90612a53565b60405180910390fd5b80915050919050565b60008073ffffffffffffffffffffffffffffffffffffffff168273ffffffffffffffffffffffffffffffffffffffff161415610982576040517f08c379a000000000000000000000000000000000000000000000000000000000815260040161097990612a33565b60405180910390fd5b600360008373ffffffffffffffffffffffffffffffffffffffff1673ffffffffffffffffffffffffffffffffffffffff168152602001908152602001600020549050919050565b6109d1611295565b73ffffffffffffffffffffffffffffffffffffffff166109ef610a51565b73ffffffffffffffffffffffffffffffffffffffff1614610a45576040517f08c379a0000000000000000000000000000000000000000000000000000000008152600401610a3c90612af3565b60405180910390fd5b610a4f600061169b565b565b6000600760009054906101000a900473ffffffffffffffffffffffffffffffffffffffff16905090565b3373ffffffffffffffffffffffffffffffffffffffff16610a9b8261085f565b73ffffffffffffffffffffffffffffffffffffffff1614610af1576040517f08c379a0000000000000000000000000000000000000000000000000000000008152600401610ae890612b73565b60405180910390fd5b610afc3383836107df565b60006009600183610b0d9190612d61565b81548110610b44577f4e487b7100000000000000000000000000000000000000000000000000000000600052603260045260246000fd5b90600052602060002090600202019050828160010160006101000a81548173ffffffffffffffffffffffffffffffffffffffff021916908373ffffffffffffffffffffffffffffffffffffffff160217905550505050565b606060018054610bab90612e4b565b80601f0160208091040260200160405190810160405280929190818152602001828054610bd790612e4b565b8015610c245780601f10610bf957610100808354040283529160200191610c24565b820191906000526020600020905b815481529060010190602001808311610c0757829003601f168201915b5050505050905090565b610c40610c39611295565b8383611761565b5050565b60098181548110610c5457600080fd5b90600052602060002090600202016000915090508060000154908060010160009054906101000a900473ffffffffffffffffffffffffffffffffffffffff16905082565b610ca9610ca3611295565b83611356565b610ce8576040517f08c379a0000000000000000000000000000000000000000000000000000000008152600401610cdf90612b53565b60405180910390fd5b610cf4848484846118ce565b50505050565b6060610d0582611229565b610d44576040517f08c379a0000000000000000000000000000000000000000000000000000000008152600401610d3b90612ab3565b60405180910390fd5b6000600660008481526020019081526020016000208054610d6490612e4b565b80601f0160208091040260200160405190810160405280929190818152602001828054610d9090612e4b565b8015610ddd5780601f10610db257610100808354040283529160200191610ddd565b820191906000526020600020905b815481529060010190602001808311610dc057829003601f168201915b505050505090506000610dee61192a565b9050600081511415610e04578192505050610e47565b600082511115610e39578082604051602001610e21929190612849565b60405160208183030381529060405292505050610e47565b610e4284611941565b925050505b919050565b60606009805480602002602001604051908101604052809291908181526020016000905b82821015610f025783829060005260206000209060020201604051806040016040529081600082015481526020016001820160009054906101000a900473ffffffffffffffffffffffffffffffffffffffff1673ffffffffffffffffffffffffffffffffffffffff1673ffffffffffffffffffffffffffffffffffffffff168152505081526020019060010190610e70565b50505050905090565b6000600560008473ffffffffffffffffffffffffffffffffffffffff1673ffffffffffffffffffffffffffffffffffffffff16815260200190815260200160002060008373ffffffffffffffffffffffffffffffffffffffff1673ffffffffffffffffffffffffffffffffffffffff16815260200190815260200160002060009054906101000a900460ff16905092915050565b610fa960086119e8565b6000610fb560086119fe565b9050600960405180604001604052808381526020018573ffffffffffffffffffffffffffffffffffffffff1681525090806001815401808255809150506001900390600052602060002090600202016000909190919091506000820151816000015560208201518160010160006101000a81548173ffffffffffffffffffffffffffffffffffffffff021916908373ffffffffffffffffffffffffffffffffffffffff160217905550505061106a8382611a0c565b6110748183611be6565b8273ffffffffffffffffffffffffffffffffffffffff167fbc2023acefe76a420b4accf8727b46e16359c6a9119bc7a77173e941fe54520d826040516110ba9190612b93565b60405180910390a2505050565b6110cf611295565b73ffffffffffffffffffffffffffffffffffffffff166110ed610a51565b73ffffffffffffffffffffffffffffffffffffffff1614611143576040517f08c379a000000000000000000000000000000000000000000000000000000000815260040161113a90612af3565b60405180910390fd5b600073ffffffffffffffffffffffffffffffffffffffff168173ffffffffffffffffffffffffffffffffffffffff1614156111b3576040517f08c379a00000000000000000000000000000000000000000000000000000000081526004016111aa90612953565b60405180910390fd5b6111bc8161169b565b50565b60007f01ffc9a7000000000000000000000000000000000000000000000000000000007bffffffffffffffffffffffffffffffffffffffffffffffffffffffff1916827bffffffffffffffffffffffffffffffffffffffffffffffffffffffff1916149050919050565b60008073ffffffffffffffffffffffffffffffffffffffff166002600084815260200190815260200160002060009054906101000a900473ffffffffffffffffffffffffffffffffffffffff1673ffffffffffffffffffffffffffffffffffffffff1614159050919050565b600033905090565b816004600083815260200190815260200160002060006101000a81548173ffffffffffffffffffffffffffffffffffffffff021916908373ffffffffffffffffffffffffffffffffffffffff160217905550808273ffffffffffffffffffffffffffffffffffffffff166113108361085f565b73ffffffffffffffffffffffffffffffffffffffff167f8c5be1e5ebec7d5bd14f71427d1e84f3dd0314c0f7b2291e5b200ac8c7c3b92560405160405180910390a45050565b600061136182611229565b6113a0576040517f08c379a0000000000000000000000000000000000000000000000000000000008152600401611397906129f3565b60405180910390fd5b60006113ab8361085f565b90508073ffffffffffffffffffffffffffffffffffffffff168473ffffffffffffffffffffffffffffffffffffffff16148061141a57508373ffffffffffffffffffffffffffffffffffffffff1661140284610642565b73ffffffffffffffffffffffffffffffffffffffff16145b8061142b575061142a8185610f0b565b5b91505092915050565b8273ffffffffffffffffffffffffffffffffffffffff166114548261085f565b73ffffffffffffffffffffffffffffffffffffffff16146114aa576040517f08c379a00000000000000000000000000000000000000000000000000000000081526004016114a190612973565b60405180910390fd5b600073ffffffffffffffffffffffffffffffffffffffff168273ffffffffffffffffffffffffffffffffffffffff16141561151a576040517f08c379a0000000000000000000000000000000000000000000000000000000008152600401611511906129b3565b60405180910390fd5b611525838383611c5a565b61153060008261129d565b6001600360008573ffffffffffffffffffffffffffffffffffffffff1673ffffffffffffffffffffffffffffffffffffffff16815260200190815260200160002060008282546115809190612d61565b925050819055506001600360008473ffffffffffffffffffffffffffffffffffffffff1673ffffffffffffffffffffffffffffffffffffffff16815260200190815260200160002060008282546115d79190612cda565b92505081905550816002600083815260200190815260200160002060006101000a81548173ffffffffffffffffffffffffffffffffffffffff021916908373ffffffffffffffffffffffffffffffffffffffff160217905550808273ffffffffffffffffffffffffffffffffffffffff168473ffffffffffffffffffffffffffffffffffffffff167fddf252ad1be2c89b69c2b068fc378daa952ba7f163c4a11628f55a4df523b3ef60405160405180910390a4611696838383611c5f565b505050565b6000600760009054906101000a900473ffffffffffffffffffffffffffffffffffffffff16905081600760006101000a81548173ffffffffffffffffffffffffffffffffffffffff021916908373ffffffffffffffffffffffffffffffffffffffff1602179055508173ffffffffffffffffffffffffffffffffffffffff168173ffffffffffffffffffffffffffffffffffffffff167f8be0079c531659141344cd1fd0a4f28419497f9722a3daafe3b4186f6b6457e060405160405180910390a35050565b8173ffffffffffffffffffffffffffffffffffffffff168373ffffffffffffffffffffffffffffffffffffffff1614156117d0576040517f08c379a00000000000000000000000000000000000000000000000000000000081526004016117c7906129d3565b60405180910390fd5b80600560008573ffffffffffffffffffffffffffffffffffffffff1673ffffffffffffffffffffffffffffffffffffffff16815260200190815260200160002060008473ffffffffffffffffffffffffffffffffffffffff1673ffffffffffffffffffffffffffffffffffffffff16815260200190815260200160002060006101000a81548160ff0219169083151502179055508173ffffffffffffffffffffffffffffffffffffffff168373ffffffffffffffffffffffffffffffffffffffff167f17307eab39ab6107e8899845ad3d59bd9653f200f220920489ca2b5937696c31836040516118c191906128f6565b60405180910390a3505050565b6118d9848484611434565b6118e584848484611c64565b611924576040517f08c379a000000000000000000000000000000000000000000000000000000000815260040161191b90612933565b60405180910390fd5b50505050565b606060405180602001604052806000815250905090565b606061194c82611229565b61198b576040517f08c379a000000000000000000000000000000000000000000000000000000000815260040161198290612b13565b60405180910390fd5b600061199561192a565b905060008151116119b557604051806020016040528060008152506119e0565b806119bf84611dfb565b6040516020016119d0929190612849565b6040516020818303038152906040525b915050919050565b6001816000016000828254019250508190555050565b600081600001549050919050565b600073ffffffffffffffffffffffffffffffffffffffff168273ffffffffffffffffffffffffffffffffffffffff161415611a7c576040517f08c379a0000000000000000000000000000000000000000000000000000000008152600401611a7390612a93565b60405180910390fd5b611a8581611229565b15611ac5576040517f08c379a0000000000000000000000000000000000000000000000000000000008152600401611abc90612993565b60405180910390fd5b611ad160008383611c5a565b6001600360008473ffffffffffffffffffffffffffffffffffffffff1673ffffffffffffffffffffffffffffffffffffffff1681526020019081526020016000206000828254611b219190612cda565b92505081905550816002600083815260200190815260200160002060006101000a81548173ffffffffffffffffffffffffffffffffffffffff021916908373ffffffffffffffffffffffffffffffffffffffff160217905550808273ffffffffffffffffffffffffffffffffffffffff16600073ffffffffffffffffffffffffffffffffffffffff167fddf252ad1be2c89b69c2b068fc378daa952ba7f163c4a11628f55a4df523b3ef60405160405180910390a4611be260008383611c5f565b5050565b611bef82611229565b611c2e576040517f08c379a0000000000000000000000000000000000000000000000000000000008152600401611c2590612a73565b60405180910390fd5b80600660008481526020019081526020016000209080519060200190611c55929190611fcb565b505050565b505050565b505050565b6000611c858473ffffffffffffffffffffffffffffffffffffffff16611fa8565b15611dee578373ffffffffffffffffffffffffffffffffffffffff1663150b7a02611cae611295565b8786866040518563ffffffff1660e01b8152600401611cd09493929190612888565b602060405180830381600087803b158015611cea57600080fd5b505af1925050508015611d1b57506040513d601f19601f82011682018060405250810190611d1891906123cb565b60015b611d9e573d8060008114611d4b576040519150601f19603f3d011682016040523d82523d6000602084013e611d50565b606091505b50600081511415611d96576040517f08c379a0000000000000000000000000000000000000000000000000000000008152600401611d8d90612933565b60405180910390fd5b805181602001fd5b63150b7a0260e01b7bffffffffffffffffffffffffffffffffffffffffffffffffffffffff1916817bffffffffffffffffffffffffffffffffffffffffffffffffffffffff191614915050611df3565b600190505b949350505050565b60606000821415611e43576040518060400160405280600181526020017f30000000000000000000000000000000000000000000000000000000000000008152509050611fa3565b600082905060005b60008214611e75578080611e5e90612eae565b915050600a82611e6e9190612d30565b9150611e4b565b60008167ffffffffffffffff811115611eb7577f4e487b7100000000000000000000000000000000000000000000000000000000600052604160045260246000fd5b6040519080825280601f01601f191660200182016040528015611ee95781602001600182028036833780820191505090505b5090505b60008514611f9c57600182611f029190612d61565b9150600a85611f119190612ef7565b6030611f1d9190612cda565b60f81b818381518110611f59577f4e487b7100000000000000000000000000000000000000000000000000000000600052603260045260246000fd5b60200101907effffffffffffffffffffffffffffffffffffffffffffffffffffffffffffff1916908160001a905350600a85611f959190612d30565b9450611eed565b8093505050505b919050565b6000808273ffffffffffffffffffffffffffffffffffffffff163b119050919050565b828054611fd790612e4b565b90600052602060002090601f016020900481019282611ff95760008555612040565b82601f1061201257805160ff1916838001178555612040565b82800160010185558215612040579182015b8281111561203f578251825591602001919060010190612024565b5b50905061204d9190612051565b5090565b5b8082111561206a576000816000905550600101612052565b5090565b600061208161207c84612bfc565b612bd7565b90508281526020810184848401111561209957600080fd5b6120a4848285612e09565b509392505050565b60006120bf6120ba84612c2d565b612bd7565b9050828152602081018484840111156120d757600080fd5b6120e2848285612e09565b509392505050565b6000813590506120f98161353a565b92915050565b60008135905061210e81613551565b92915050565b60008135905061212381613568565b92915050565b60008151905061213881613568565b92915050565b600082601f83011261214f57600080fd5b813561215f84826020860161206e565b91505092915050565b600082601f83011261217957600080fd5b81356121898482602086016120ac565b91505092915050565b6000813590506121a18161357f565b92915050565b6000602082840312156121b957600080fd5b60006121c7848285016120ea565b91505092915050565b600080604083850312156121e357600080fd5b60006121f1858286016120ea565b9250506020612202858286016120ea565b9150509250929050565b60008060006060848603121561222157600080fd5b600061222f868287016120ea565b9350506020612240868287016120ea565b925050604061225186828701612192565b9150509250925092565b6000806000806080858703121561227157600080fd5b600061227f878288016120ea565b9450506020612290878288016120ea565b93505060406122a187828801612192565b925050606085013567ffffffffffffffff8111156122be57600080fd5b6122ca8782880161213e565b91505092959194509250565b600080604083850312156122e957600080fd5b60006122f7858286016120ea565b9250506020612308858286016120ff565b9150509250929050565b6000806040838503121561232557600080fd5b6000612333858286016120ea565b925050602083013567ffffffffffffffff81111561235057600080fd5b61235c85828601612168565b9150509250929050565b6000806040838503121561237957600080fd5b6000612387858286016120ea565b925050602061239885828601612192565b9150509250929050565b6000602082840312156123b457600080fd5b60006123c284828501612114565b91505092915050565b6000602082840312156123dd57600080fd5b60006123eb84828501612129565b91505092915050565b60006020828403121561240657600080fd5b600061241484828501612192565b91505092915050565b600061242983836127fc565b60408301905092915050565b61243e81612d95565b82525050565b61244d81612d95565b82525050565b600061245e82612c6e565b6124688185612c9c565b935061247383612c5e565b8060005b838110156124a457815161248b888261241d565b975061249683612c8f565b925050600181019050612477565b5085935050505092915050565b6124ba81612da7565b82525050565b60006124cb82612c79565b6124d58185612cad565b93506124e5818560208601612e18565b6124ee81612fe4565b840191505092915050565b600061250482612c84565b61250e8185612cbe565b935061251e818560208601612e18565b61252781612fe4565b840191505092915050565b600061253d82612c84565b6125478185612ccf565b9350612557818560208601612e18565b80840191505092915050565b6000612570603283612cbe565b915061257b82612ff5565b604082019050919050565b6000612593602683612cbe565b915061259e82613044565b604082019050919050565b60006125b6602583612cbe565b91506125c182613093565b604082019050919050565b60006125d9601c83612cbe565b91506125e4826130e2565b602082019050919050565b60006125fc602483612cbe565b91506126078261310b565b604082019050919050565b600061261f601983612cbe565b915061262a8261315a565b602082019050919050565b6000612642602c83612cbe565b915061264d82613183565b604082019050919050565b6000612665603883612cbe565b9150612670826131d2565b604082019050919050565b6000612688602a83612cbe565b915061269382613221565b604082019050919050565b60006126ab602983612cbe565b91506126b682613270565b604082019050919050565b60006126ce602e83612cbe565b91506126d9826132bf565b604082019050919050565b60006126f1602083612cbe565b91506126fc8261330e565b602082019050919050565b6000612714603183612cbe565b915061271f82613337565b604082019050919050565b6000612737602c83612cbe565b915061274282613386565b604082019050919050565b600061275a602083612cbe565b9150612765826133d5565b602082019050919050565b600061277d602f83612cbe565b9150612788826133fe565b604082019050919050565b60006127a0602183612cbe565b91506127ab8261344d565b604082019050919050565b60006127c3603183612cbe565b91506127ce8261349c565b604082019050919050565b60006127e6602383612cbe565b91506127f1826134eb565b604082019050919050565b604082016000820151612812600085018261282b565b5060208201516128256020850182612435565b50505050565b61283481612dff565b82525050565b61284381612dff565b82525050565b60006128558285612532565b91506128618284612532565b91508190509392505050565b60006020820190506128826000830184612444565b92915050565b600060808201905061289d6000830187612444565b6128aa6020830186612444565b6128b7604083018561283a565b81810360608301526128c981846124c0565b905095945050505050565b600060208201905081810360008301526128ee8184612453565b905092915050565b600060208201905061290b60008301846124b1565b92915050565b6000602082019050818103600083015261292b81846124f9565b905092915050565b6000602082019050818103600083015261294c81612563565b9050919050565b6000602082019050818103600083015261296c81612586565b9050919050565b6000602082019050818103600083015261298c816125a9565b9050919050565b600060208201905081810360008301526129ac816125cc565b9050919050565b600060208201905081810360008301526129cc816125ef565b9050919050565b600060208201905081810360008301526129ec81612612565b9050919050565b60006020820190508181036000830152612a0c81612635565b9050919050565b60006020820190508181036000830152612a2c81612658565b9050919050565b60006020820190508181036000830152612a4c8161267b565b9050919050565b60006020820190508181036000830152612a6c8161269e565b9050919050565b60006020820190508181036000830152612a8c816126c1565b9050919050565b60006020820190508181036000830152612aac816126e4565b9050919050565b60006020820190508181036000830152612acc81612707565b9050919050565b60006020820190508181036000830152612aec8161272a565b9050919050565b60006020820190508181036000830152612b0c8161274d565b9050919050565b60006020820190508181036000830152612b2c81612770565b9050919050565b60006020820190508181036000830152612b4c81612793565b9050919050565b60006020820190508181036000830152612b6c816127b6565b9050919050565b60006020820190508181036000830152612b8c816127d9565b9050919050565b6000602082019050612ba8600083018461283a565b92915050565b6000604082019050612bc3600083018561283a565b612bd06020830184612444565b9392505050565b6000612be1612bf2565b9050612bed8282612e7d565b919050565b6000604051905090565b600067ffffffffffffffff821115612c1757612c16612fb5565b5b612c2082612fe4565b9050602081019050919050565b600067ffffffffffffffff821115612c4857612c47612fb5565b5b612c5182612fe4565b9050602081019050919050565b6000819050602082019050919050565b600081519050919050565b600081519050919050565b600081519050919050565b6000602082019050919050565b600082825260208201905092915050565b600082825260208201905092915050565b600082825260208201905092915050565b600081905092915050565b6000612ce582612dff565b9150612cf083612dff565b9250827fffffffffffffffffffffffffffffffffffffffffffffffffffffffffffffffff03821115612d2557612d24612f28565b5b828201905092915050565b6000612d3b82612dff565b9150612d4683612dff565b925082612d5657612d55612f57565b5b828204905092915050565b6000612d6c82612dff565b9150612d7783612dff565b925082821015612d8a57612d89612f28565b5b828203905092915050565b6000612da082612ddf565b9050919050565b60008115159050919050565b60007fffffffff0000000000000000000000000000000000000000000000000000000082169050919050565b600073ffffffffffffffffffffffffffffffffffffffff82169050919050565b6000819050919050565b82818337600083830152505050565b60005b83811015612e36578082015181840152602081019050612e1b565b83811115612e45576000848401525b50505050565b60006002820490506001821680612e6357607f821691505b60208210811415612e7757612e76612f86565b5b50919050565b612e8682612fe4565b810181811067ffffffffffffffff82111715612ea557612ea4612fb5565b5b80604052505050565b6000612eb982612dff565b91507fffffffffffffffffffffffffffffffffffffffffffffffffffffffffffffffff821415612eec57612eeb612f28565b5b600182019050919050565b6000612f0282612dff565b9150612f0d83612dff565b925082612f1d57612f1c612f57565b5b828206905092915050565b7f4e487b7100000000000000000000000000000000000000000000000000000000600052601160045260246000fd5b7f4e487b7100000000000000000000000000000000000000000000000000000000600052601260045260246000fd5b7f4e487b7100000000000000000000000000000000000000000000000000000000600052602260045260246000fd5b7f4e487b7100000000000000000000000000000000000000000000000000000000600052604160045260246000fd5b6000601f19601f8301169050919050565b7f4552433732313a207472616e7366657220746f206e6f6e20455243373231526560008201527f63656976657220696d706c656d656e7465720000000000000000000000000000602082015250565b7f4f776e61626c653a206e6577206f776e657220697320746865207a65726f206160008201527f6464726573730000000000000000000000000000000000000000000000000000602082015250565b7f4552433732313a207472616e736665722066726f6d20696e636f72726563742060008201527f6f776e6572000000000000000000000000000000000000000000000000000000602082015250565b7f4552433732313a20746f6b656e20616c7265616479206d696e74656400000000600082015250565b7f4552433732313a207472616e7366657220746f20746865207a65726f2061646460008201527f7265737300000000000000000000000000000000000000000000000000000000602082015250565b7f4552433732313a20617070726f766520746f2063616c6c657200000000000000600082015250565b7f4552433732313a206f70657261746f7220717565727920666f72206e6f6e657860008201527f697374656e7420746f6b656e0000000000000000000000000000000000000000602082015250565b7f4552433732313a20617070726f76652063616c6c6572206973206e6f74206f7760008201527f6e6572206e6f7220617070726f76656420666f7220616c6c0000000000000000602082015250565b7f4552433732313a2062616c616e636520717565727920666f7220746865207a6560008201527f726f206164647265737300000000000000000000000000000000000000000000602082015250565b7f4552433732313a206f776e657220717565727920666f72206e6f6e657869737460008201527f656e7420746f6b656e0000000000000000000000000000000000000000000000602082015250565b7f45524337323155524953746f726167653a2055524920736574206f66206e6f6e60008201527f6578697374656e7420746f6b656e000000000000000000000000000000000000602082015250565b7f4552433732313a206d696e7420746f20746865207a65726f2061646472657373600082015250565b7f45524337323155524953746f726167653a2055524920717565727920666f722060008201527f6e6f6e6578697374656e7420746f6b656e000000000000000000000000000000602082015250565b7f4552433732313a20617070726f76656420717565727920666f72206e6f6e657860008201527f697374656e7420746f6b656e0000000000000000000000000000000000000000602082015250565b7f4f776e61626c653a2063616c6c6572206973206e6f7420746865206f776e6572600082015250565b7f4552433732314d657461646174613a2055524920717565727920666f72206e6f60008201527f6e6578697374656e7420746f6b656e0000000000000000000000000000000000602082015250565b7f4552433732313a20617070726f76616c20746f2063757272656e74206f776e6560008201527f7200000000000000000000000000000000000000000000000000000000000000602082015250565b7f4552433732313a207472616e736665722063616c6c6572206973206e6f74206f60008201527f776e6572206e6f7220617070726f766564000000000000000000000000000000602082015250565b7f596f7520617265206e6f7420746865206f776e6572206f66207468697320746f60008201527f6b656e0000000000000000000000000000000000000000000000000000000000602082015250565b61354381612d95565b811461354e57600080fd5b50565b61355a81612da7565b811461356557600080fd5b50565b61357181612db3565b811461357c57600080fd5b50565b61358881612dff565b811461359357600080fd5b5056fea264697066735822122082aea0073bbf0fc36eb497c5bfc41265782736b750bccd58a828dd3ac65284f364736f6c63430008040033",
  "linkReferences": {},
  "deployedLinkReferences": {}
}