{
  "_format": "hh-sol-artifact-1",
  "contractName": "Token",
  "sourceName": "contracts/Token.sol",
  "abi": [
    {
      "inputs": [],
      "stateMutability": "nonpayable",
      "type": "constructor"
    },
    {
      "anonymous": false,
      "inputs": [
        {
          "indexed": true,
          "internalType": "address",
          "name": "owner",
          "type": "address"
        },
        {
          "indexed": true,
          "internalType": "address",
          "name": "approved",
          "type": "address"
        },
        {
          "indexed": true,
          "internalType": "uint256",
          "name": "tokenId",
          "type": "uint256"
        }
      ],
      "name": "Approval",
      "type": "event"
    },
    {
      "anonymous": false,
      "inputs": [
        {
          "indexed": true,
          "internalType": "address",
          "name": "owner",
          "type": "address"
        },
        {
          "indexed": true,
          "internalType": "address",
          "name": "operator",
          "type": "address"
        },
        {
          "indexed": false,
          "internalType": "bool",
          "name": "approved",
          "type": "bool"
        }
      ],
      "name": "ApprovalForAll",
      "type": "event"
    },
    {
      "anonymous": false,
      "inputs": [
        {
          "indexed": true,
          "internalType": "address",
          "name": "previousOwner",
          "type": "address"
        },
        {
          "indexed": true,
          "internalType": "address",
          "name": "newOwner",
          "type": "address"
        }
      ],
      "name": "OwnershipTransferred",
      "type": "event"
    },
    {
      "anonymous": false,
      "inputs": [
        {
          "indexed": true,
          "internalType": "address",
          "name": "from",
          "type": "address"
        },
        {
          "indexed": true,
          "internalType": "address",
          "name": "to",
          "type": "address"
        },
        {
          "indexed": true,
          "internalType": "uint256",
          "name": "tokenId",
          "type": "uint256"
        }
      ],
      "name": "Transfer",
      "type": "event"
    },
    {
      "inputs": [
        {
          "internalType": "address",
          "name": "to",
          "type": "address"
        },
        {
          "internalType": "uint256",
          "name": "tokenId",
          "type": "uint256"
        }
      ],
      "name": "approve",
      "outputs": [],
      "stateMutability": "nonpayable",
      "type": "function"
    },
    {
      "inputs": [
        {
          "internalType": "address",
          "name": "owner",
          "type": "address"
        }
      ],
      "name": "balanceOf",
      "outputs": [
        {
          "internalType": "uint256",
          "name": "",
          "type": "uint256"
        }
      ],
      "stateMutability": "view",
      "type": "function"
    },
    {
      "inputs": [
        {
          "internalType": "uint256",
          "name": "tokenId",
          "type": "uint256"
        }
      ],
      "name": "getApproved",
      "outputs": [
        {
          "internalType": "address",
          "name": "",
          "type": "address"
        }
      ],
      "stateMutability": "view",
      "type": "function"
    },
    {
      "inputs": [],
      "name": "getTokenData",
      "outputs": [
        {
          "components": [
            {
              "internalType": "uint256",
              "name": "tokenId",
              "type": "uint256"
            }
          ],
          "internalType": "struct Token.TokenData[]",
          "name": "",
          "type": "tuple[]"
        }
      ],
      "stateMutability": "view",
      "type": "function"
    },
    {
      "inputs": [
        {
          "internalType": "address",
          "name": "owner",
          "type": "address"
        },
        {
          "internalType": "address",
          "name": "operator",
          "type": "address"
        }
      ],
      "name": "isApprovedForAll",
      "outputs": [
        {
          "internalType": "bool",
          "name": "",
          "type": "bool"
        }
      ],
      "stateMutability": "view",
      "type": "function"
    },
    {
      "inputs": [
        {
          "internalType": "address",
          "name": "recipient",
          "type": "address"
        },
        {
          "internalType": "string",
          "name": "tokenURI",
          "type": "string"
        }
      ],
      "name": "mintNFT",
      "outputs": [
        {
          "internalType": "uint256",
          "name": "",
          "type": "uint256"
        }
      ],
      "stateMutability": "nonpayable",
      "type": "function"
    },
    {
      "inputs": [],
      "name": "name",
      "outputs": [
        {
          "internalType": "string",
          "name": "",
          "type": "string"
        }
      ],
      "stateMutability": "view",
      "type": "function"
    },
    {
      "inputs": [],
      "name": "owner",
      "outputs": [
        {
          "internalType": "address",
          "name": "",
          "type": "address"
        }
      ],
      "stateMutability": "view",
      "type": "function"
    },
    {
      "inputs": [
        {
          "internalType": "uint256",
          "name": "tokenId",
          "type": "uint256"
        }
      ],
      "name": "ownerOf",
      "outputs": [
        {
          "internalType": "address",
          "name": "",
          "type": "address"
        }
      ],
      "stateMutability": "view",
      "type": "function"
    },
    {
      "inputs": [],
      "name": "renounceOwnership",
      "outputs": [],
      "stateMutability": "nonpayable",
      "type": "function"
    },
    {
      "inputs": [
        {
          "internalType": "address",
          "name": "from",
          "type": "address"
        },
        {
          "internalType": "address",
          "name": "to",
          "type": "address"
        },
        {
          "internalType": "uint256",
          "name": "tokenId",
          "type": "uint256"
        }
      ],
      "name": "safeTransferFrom",
      "outputs": [],
      "stateMutability": "nonpayable",
      "type": "function"
    },
    {
      "inputs": [
        {
          "internalType": "address",
          "name": "from",
          "type": "address"
        },
        {
          "internalType": "address",
          "name": "to",
          "type": "address"
        },
        {
          "internalType": "uint256",
          "name": "tokenId",
          "type": "uint256"
        },
        {
          "internalType": "bytes",
          "name": "_data",
          "type": "bytes"
        }
      ],
      "name": "safeTransferFrom",
      "outputs": [],
      "stateMutability": "nonpayable",
      "type": "function"
    },
    {
      "inputs": [
        {
          "internalType": "address",
          "name": "operator",
          "type": "address"
        },
        {
          "internalType": "bool",
          "name": "approved",
          "type": "bool"
        }
      ],
      "name": "setApprovalForAll",
      "outputs": [],
      "stateMutability": "nonpayable",
      "type": "function"
    },
    {
      "inputs": [
        {
          "internalType": "bytes4",
          "name": "interfaceId",
          "type": "bytes4"
        }
      ],
      "name": "supportsInterface",
      "outputs": [
        {
          "internalType": "bool",
          "name": "",
          "type": "bool"
        }
      ],
      "stateMutability": "view",
      "type": "function"
    },
    {
      "inputs": [],
      "name": "symbol",
      "outputs": [
        {
          "internalType": "string",
          "name": "",
          "type": "string"
        }
      ],
      "stateMutability": "view",
      "type": "function"
    },
    {
      "inputs": [
        {
          "internalType": "uint256",
          "name": "",
          "type": "uint256"
        }
      ],
      "name": "tokenData",
      "outputs": [
        {
          "internalType": "uint256",
          "name": "tokenId",
          "type": "uint256"
        }
      ],
      "stateMutability": "view",
      "type": "function"
    },
    {
      "inputs": [
        {
          "internalType": "uint256",
          "name": "tokenId",
          "type": "uint256"
        }
      ],
      "name": "tokenURI",
      "outputs": [
        {
          "internalType": "string",
          "name": "",
          "type": "string"
        }
      ],
      "stateMutability": "view",
      "type": "function"
    },
    {
      "inputs": [
        {
          "internalType": "address",
          "name": "from",
          "type": "address"
        },
        {
          "internalType": "address",
          "name": "to",
          "type": "address"
        },
        {
          "internalType": "uint256",
          "name": "tokenId",
          "type": "uint256"
        }
      ],
      "name": "transferFrom",
      "outputs": [],
      "stateMutability": "nonpayable",
      "type": "function"
    },
    {
      "inputs": [
        {
          "internalType": "address",
          "name": "newOwner",
          "type": "address"
        }
      ],
      "name": "transferOwnership",
      "outputs": [],
      "stateMutability": "nonpayable",
      "type": "function"
    }
  ],
  "bytecode": "0x60806040523480156200001157600080fd5b506040518060400160405280600a81526020017f54657374696e674e4654000000000000000000000000000000000000000000008152506040518060400160405280600481526020017f544e465400000000000000000000000000000000000000000000000000000000815250816000908051906020019062000096929190620001a6565b508060019080519060200190620000af929190620001a6565b505050620000d2620000c6620000d860201b60201c565b620000e060201b60201c565b620002bb565b600033905090565b6000600760009054906101000a900473ffffffffffffffffffffffffffffffffffffffff16905081600760006101000a81548173ffffffffffffffffffffffffffffffffffffffff021916908373ffffffffffffffffffffffffffffffffffffffff1602179055508173ffffffffffffffffffffffffffffffffffffffff168173ffffffffffffffffffffffffffffffffffffffff167f8be0079c531659141344cd1fd0a4f28419497f9722a3daafe3b4186f6b6457e060405160405180910390a35050565b828054620001b49062000256565b90600052602060002090601f016020900481019282620001d8576000855562000224565b82601f10620001f357805160ff191683800117855562000224565b8280016001018555821562000224579182015b828111156200022357825182559160200191906001019062000206565b5b50905062000233919062000237565b5090565b5b808211156200025257600081600090555060010162000238565b5090565b600060028204905060018216806200026f57607f821691505b602082108114156200028657620002856200028c565b5b50919050565b7f4e487b7100000000000000000000000000000000000000000000000000000000600052602260045260246000fd5b61319e80620002cb6000396000f3fe608060405234801561001057600080fd5b50600436106101215760003560e01c80638da5cb5b116100ad578063c87b56dd11610071578063c87b56dd14610306578063d16aad6114610336578063e985e9c514610354578063eacabe1414610384578063f2fde38b146103b457610121565b80638da5cb5b1461026257806395d89b4114610280578063a22cb4651461029e578063b4b5b48f146102ba578063b88d4fde146102ea57610121565b806323b872dd116100f457806323b872dd146101c057806342842e0e146101dc5780636352211e146101f857806370a0823114610228578063715018a61461025857610121565b806301ffc9a71461012657806306fdde0314610156578063081812fc14610174578063095ea7b3146101a4575b600080fd5b610140600480360381019061013b9190612051565b6103d0565b60405161014d9190612560565b60405180910390f35b61015e6104b2565b60405161016b919061257b565b60405180910390f35b61018e600480360381019061018991906120a3565b610544565b60405161019b91906124d7565b60405180910390f35b6101be60048036038101906101b99190612015565b6105c9565b005b6101da60048036038101906101d59190611ebb565b6106e1565b005b6101f660048036038101906101f19190611ebb565b610741565b005b610212600480360381019061020d91906120a3565b610761565b60405161021f91906124d7565b60405180910390f35b610242600480360381019061023d9190611e56565b610813565b60405161024f91906127dd565b60405180910390f35b6102606108cb565b005b61026a610953565b60405161027791906124d7565b60405180910390f35b61028861097d565b604051610295919061257b565b60405180910390f35b6102b860048036038101906102b39190611f85565b610a0f565b005b6102d460048036038101906102cf91906120a3565b610a25565b6040516102e191906127dd565b60405180910390f35b61030460048036038101906102ff9190611f0a565b610a4f565b005b610320600480360381019061031b91906120a3565b610ab1565b60405161032d919061257b565b60405180910390f35b61033e610c03565b60405161034b919061253e565b60405180910390f35b61036e60048036038101906103699190611e7f565b610c68565b60405161037b9190612560565b60405180910390f35b61039e60048036038101906103999190611fc1565b610cfc565b6040516103ab91906127dd565b60405180910390f35b6103ce60048036038101906103c99190611e56565b610d76565b005b60007f80ac58cd000000000000000000000000000000000000000000000000000000007bffffffffffffffffffffffffffffffffffffffffffffffffffffffff1916827bffffffffffffffffffffffffffffffffffffffffffffffffffffffff1916148061049b57507f5b5e139f000000000000000000000000000000000000000000000000000000007bffffffffffffffffffffffffffffffffffffffffffffffffffffffff1916827bffffffffffffffffffffffffffffffffffffffffffffffffffffffff1916145b806104ab57506104aa82610e6e565b5b9050919050565b6060600080546104c190612a6c565b80601f01602080910402602001604051908101604052809291908181526020018280546104ed90612a6c565b801561053a5780601f1061050f5761010080835404028352916020019161053a565b820191906000526020600020905b81548152906001019060200180831161051d57829003601f168201915b5050505050905090565b600061054f82610ed8565b61058e576040517f08c379a00000000000000000000000000000000000000000000000000000000081526004016105859061273d565b60405180910390fd5b6004600083815260200190815260200160002060009054906101000a900473ffffffffffffffffffffffffffffffffffffffff169050919050565b60006105d482610761565b90508073ffffffffffffffffffffffffffffffffffffffff168373ffffffffffffffffffffffffffffffffffffffff161415610645576040517f08c379a000000000000000000000000000000000000000000000000000000000815260040161063c9061279d565b60405180910390fd5b8073ffffffffffffffffffffffffffffffffffffffff16610664610f44565b73ffffffffffffffffffffffffffffffffffffffff16148061069357506106928161068d610f44565b610c68565b5b6106d2576040517f08c379a00000000000000000000000000000000000000000000000000000000081526004016106c99061267d565b60405180910390fd5b6106dc8383610f4c565b505050565b6106f26106ec610f44565b82611005565b610731576040517f08c379a0000000000000000000000000000000000000000000000000000000008152600401610728906127bd565b60405180910390fd5b61073c8383836110e3565b505050565b61075c83838360405180602001604052806000815250610a4f565b505050565b6000806002600084815260200190815260200160002060009054906101000a900473ffffffffffffffffffffffffffffffffffffffff169050600073ffffffffffffffffffffffffffffffffffffffff168173ffffffffffffffffffffffffffffffffffffffff16141561080a576040517f08c379a0000000000000000000000000000000000000000000000000000000008152600401610801906126bd565b60405180910390fd5b80915050919050565b60008073ffffffffffffffffffffffffffffffffffffffff168273ffffffffffffffffffffffffffffffffffffffff161415610884576040517f08c379a000000000000000000000000000000000000000000000000000000000815260040161087b9061269d565b60405180910390fd5b600360008373ffffffffffffffffffffffffffffffffffffffff1673ffffffffffffffffffffffffffffffffffffffff168152602001908152602001600020549050919050565b6108d3610f44565b73ffffffffffffffffffffffffffffffffffffffff166108f1610953565b73ffffffffffffffffffffffffffffffffffffffff1614610947576040517f08c379a000000000000000000000000000000000000000000000000000000000815260040161093e9061275d565b60405180910390fd5b610951600061134a565b565b6000600760009054906101000a900473ffffffffffffffffffffffffffffffffffffffff16905090565b60606001805461098c90612a6c565b80601f01602080910402602001604051908101604052809291908181526020018280546109b890612a6c565b8015610a055780601f106109da57610100808354040283529160200191610a05565b820191906000526020600020905b8154815290600101906020018083116109e857829003601f168201915b5050505050905090565b610a21610a1a610f44565b8383611410565b5050565b60098181548110610a3557600080fd5b906000526020600020016000915090508060000154905081565b610a60610a5a610f44565b83611005565b610a9f576040517f08c379a0000000000000000000000000000000000000000000000000000000008152600401610a96906127bd565b60405180910390fd5b610aab8484848461157d565b50505050565b6060610abc82610ed8565b610afb576040517f08c379a0000000000000000000000000000000000000000000000000000000008152600401610af29061271d565b60405180910390fd5b6000600660008481526020019081526020016000208054610b1b90612a6c565b80601f0160208091040260200160405190810160405280929190818152602001828054610b4790612a6c565b8015610b945780601f10610b6957610100808354040283529160200191610b94565b820191906000526020600020905b815481529060010190602001808311610b7757829003601f168201915b505050505090506000610ba56115d9565b9050600081511415610bbb578192505050610bfe565b600082511115610bf0578082604051602001610bd89291906124b3565b60405160208183030381529060405292505050610bfe565b610bf9846115f0565b925050505b919050565b60606009805480602002602001604051908101604052809291908181526020016000905b82821015610c5f5783829060005260206000200160405180602001604052908160008201548152505081526020019060010190610c27565b50505050905090565b6000600560008473ffffffffffffffffffffffffffffffffffffffff1673ffffffffffffffffffffffffffffffffffffffff16815260200190815260200160002060008373ffffffffffffffffffffffffffffffffffffffff1673ffffffffffffffffffffffffffffffffffffffff16815260200190815260200160002060009054906101000a900460ff16905092915050565b6000610d086008611697565b6000610d1460086116ad565b9050600960405180602001604052808381525090806001815401808255809150506001900390600052602060002001600090919091909150600082015181600001555050610d6284826116bb565b610d6c8184611895565b8091505092915050565b610d7e610f44565b73ffffffffffffffffffffffffffffffffffffffff16610d9c610953565b73ffffffffffffffffffffffffffffffffffffffff1614610df2576040517f08c379a0000000000000000000000000000000000000000000000000000000008152600401610de99061275d565b60405180910390fd5b600073ffffffffffffffffffffffffffffffffffffffff168173ffffffffffffffffffffffffffffffffffffffff161415610e62576040517f08c379a0000000000000000000000000000000000000000000000000000000008152600401610e59906125bd565b60405180910390fd5b610e6b8161134a565b50565b60007f01ffc9a7000000000000000000000000000000000000000000000000000000007bffffffffffffffffffffffffffffffffffffffffffffffffffffffff1916827bffffffffffffffffffffffffffffffffffffffffffffffffffffffff1916149050919050565b60008073ffffffffffffffffffffffffffffffffffffffff166002600084815260200190815260200160002060009054906101000a900473ffffffffffffffffffffffffffffffffffffffff1673ffffffffffffffffffffffffffffffffffffffff1614159050919050565b600033905090565b816004600083815260200190815260200160002060006101000a81548173ffffffffffffffffffffffffffffffffffffffff021916908373ffffffffffffffffffffffffffffffffffffffff160217905550808273ffffffffffffffffffffffffffffffffffffffff16610fbf83610761565b73ffffffffffffffffffffffffffffffffffffffff167f8c5be1e5ebec7d5bd14f71427d1e84f3dd0314c0f7b2291e5b200ac8c7c3b92560405160405180910390a45050565b600061101082610ed8565b61104f576040517f08c379a00000000000000000000000000000000000000000000000000000000081526004016110469061265d565b60405180910390fd5b600061105a83610761565b90508073ffffffffffffffffffffffffffffffffffffffff168473ffffffffffffffffffffffffffffffffffffffff1614806110c957508373ffffffffffffffffffffffffffffffffffffffff166110b184610544565b73ffffffffffffffffffffffffffffffffffffffff16145b806110da57506110d98185610c68565b5b91505092915050565b8273ffffffffffffffffffffffffffffffffffffffff1661110382610761565b73ffffffffffffffffffffffffffffffffffffffff1614611159576040517f08c379a0000000000000000000000000000000000000000000000000000000008152600401611150906125dd565b60405180910390fd5b600073ffffffffffffffffffffffffffffffffffffffff168273ffffffffffffffffffffffffffffffffffffffff1614156111c9576040517f08c379a00000000000000000000000000000000000000000000000000000000081526004016111c09061261d565b60405180910390fd5b6111d4838383611909565b6111df600082610f4c565b6001600360008573ffffffffffffffffffffffffffffffffffffffff1673ffffffffffffffffffffffffffffffffffffffff168152602001908152602001600020600082825461122f9190612982565b925050819055506001600360008473ffffffffffffffffffffffffffffffffffffffff1673ffffffffffffffffffffffffffffffffffffffff168152602001908152602001600020600082825461128691906128fb565b92505081905550816002600083815260200190815260200160002060006101000a81548173ffffffffffffffffffffffffffffffffffffffff021916908373ffffffffffffffffffffffffffffffffffffffff160217905550808273ffffffffffffffffffffffffffffffffffffffff168473ffffffffffffffffffffffffffffffffffffffff167fddf252ad1be2c89b69c2b068fc378daa952ba7f163c4a11628f55a4df523b3ef60405160405180910390a461134583838361190e565b505050565b6000600760009054906101000a900473ffffffffffffffffffffffffffffffffffffffff16905081600760006101000a81548173ffffffffffffffffffffffffffffffffffffffff021916908373ffffffffffffffffffffffffffffffffffffffff1602179055508173ffffffffffffffffffffffffffffffffffffffff168173ffffffffffffffffffffffffffffffffffffffff167f8be0079c531659141344cd1fd0a4f28419497f9722a3daafe3b4186f6b6457e060405160405180910390a35050565b8173ffffffffffffffffffffffffffffffffffffffff168373ffffffffffffffffffffffffffffffffffffffff16141561147f576040517f08c379a00000000000000000000000000000000000000000000000000000000081526004016114769061263d565b60405180910390fd5b80600560008573ffffffffffffffffffffffffffffffffffffffff1673ffffffffffffffffffffffffffffffffffffffff16815260200190815260200160002060008473ffffffffffffffffffffffffffffffffffffffff1673ffffffffffffffffffffffffffffffffffffffff16815260200190815260200160002060006101000a81548160ff0219169083151502179055508173ffffffffffffffffffffffffffffffffffffffff168373ffffffffffffffffffffffffffffffffffffffff167f17307eab39ab6107e8899845ad3d59bd9653f200f220920489ca2b5937696c31836040516115709190612560565b60405180910390a3505050565b6115888484846110e3565b61159484848484611913565b6115d3576040517f08c379a00000000000000000000000000000000000000000000000000000000081526004016115ca9061259d565b60405180910390fd5b50505050565b606060405180602001604052806000815250905090565b60606115fb82610ed8565b61163a576040517f08c379a00000000000000000000000000000000000000000000000000000000081526004016116319061277d565b60405180910390fd5b60006116446115d9565b90506000815111611664576040518060200160405280600081525061168f565b8061166e84611aaa565b60405160200161167f9291906124b3565b6040516020818303038152906040525b915050919050565b6001816000016000828254019250508190555050565b600081600001549050919050565b600073ffffffffffffffffffffffffffffffffffffffff168273ffffffffffffffffffffffffffffffffffffffff16141561172b576040517f08c379a0000000000000000000000000000000000000000000000000000000008152600401611722906126fd565b60405180910390fd5b61173481610ed8565b15611774576040517f08c379a000000000000000000000000000000000000000000000000000000000815260040161176b906125fd565b60405180910390fd5b61178060008383611909565b6001600360008473ffffffffffffffffffffffffffffffffffffffff1673ffffffffffffffffffffffffffffffffffffffff16815260200190815260200160002060008282546117d091906128fb565b92505081905550816002600083815260200190815260200160002060006101000a81548173ffffffffffffffffffffffffffffffffffffffff021916908373ffffffffffffffffffffffffffffffffffffffff160217905550808273ffffffffffffffffffffffffffffffffffffffff16600073ffffffffffffffffffffffffffffffffffffffff167fddf252ad1be2c89b69c2b068fc378daa952ba7f163c4a11628f55a4df523b3ef60405160405180910390a46118916000838361190e565b5050565b61189e82610ed8565b6118dd576040517f08c379a00000000000000000000000000000000000000000000000000000000081526004016118d4906126dd565b60405180910390fd5b80600660008481526020019081526020016000209080519060200190611904929190611c7a565b505050565b505050565b505050565b60006119348473ffffffffffffffffffffffffffffffffffffffff16611c57565b15611a9d578373ffffffffffffffffffffffffffffffffffffffff1663150b7a0261195d610f44565b8786866040518563ffffffff1660e01b815260040161197f94939291906124f2565b602060405180830381600087803b15801561199957600080fd5b505af19250505080156119ca57506040513d601f19601f820116820180604052508101906119c7919061207a565b60015b611a4d573d80600081146119fa576040519150601f19603f3d011682016040523d82523d6000602084013e6119ff565b606091505b50600081511415611a45576040517f08c379a0000000000000000000000000000000000000000000000000000000008152600401611a3c9061259d565b60405180910390fd5b805181602001fd5b63150b7a0260e01b7bffffffffffffffffffffffffffffffffffffffffffffffffffffffff1916817bffffffffffffffffffffffffffffffffffffffffffffffffffffffff191614915050611aa2565b600190505b949350505050565b60606000821415611af2576040518060400160405280600181526020017f30000000000000000000000000000000000000000000000000000000000000008152509050611c52565b600082905060005b60008214611b24578080611b0d90612acf565b915050600a82611b1d9190612951565b9150611afa565b60008167ffffffffffffffff811115611b66577f4e487b7100000000000000000000000000000000000000000000000000000000600052604160045260246000fd5b6040519080825280601f01601f191660200182016040528015611b985781602001600182028036833780820191505090505b5090505b60008514611c4b57600182611bb19190612982565b9150600a85611bc09190612b18565b6030611bcc91906128fb565b60f81b818381518110611c08577f4e487b7100000000000000000000000000000000000000000000000000000000600052603260045260246000fd5b60200101907effffffffffffffffffffffffffffffffffffffffffffffffffffffffffffff1916908160001a905350600a85611c449190612951565b9450611b9c565b8093505050505b919050565b6000808273ffffffffffffffffffffffffffffffffffffffff163b119050919050565b828054611c8690612a6c565b90600052602060002090601f016020900481019282611ca85760008555611cef565b82601f10611cc157805160ff1916838001178555611cef565b82800160010185558215611cef579182015b82811115611cee578251825591602001919060010190611cd3565b5b509050611cfc9190611d00565b5090565b5b80821115611d19576000816000905550600101611d01565b5090565b6000611d30611d2b8461281d565b6127f8565b905082815260208101848484011115611d4857600080fd5b611d53848285612a2a565b509392505050565b6000611d6e611d698461284e565b6127f8565b905082815260208101848484011115611d8657600080fd5b611d91848285612a2a565b509392505050565b600081359050611da88161310c565b92915050565b600081359050611dbd81613123565b92915050565b600081359050611dd28161313a565b92915050565b600081519050611de78161313a565b92915050565b600082601f830112611dfe57600080fd5b8135611e0e848260208601611d1d565b91505092915050565b600082601f830112611e2857600080fd5b8135611e38848260208601611d5b565b91505092915050565b600081359050611e5081613151565b92915050565b600060208284031215611e6857600080fd5b6000611e7684828501611d99565b91505092915050565b60008060408385031215611e9257600080fd5b6000611ea085828601611d99565b9250506020611eb185828601611d99565b9150509250929050565b600080600060608486031215611ed057600080fd5b6000611ede86828701611d99565b9350506020611eef86828701611d99565b9250506040611f0086828701611e41565b9150509250925092565b60008060008060808587031215611f2057600080fd5b6000611f2e87828801611d99565b9450506020611f3f87828801611d99565b9350506040611f5087828801611e41565b925050606085013567ffffffffffffffff811115611f6d57600080fd5b611f7987828801611ded565b91505092959194509250565b60008060408385031215611f9857600080fd5b6000611fa685828601611d99565b9250506020611fb785828601611dae565b9150509250929050565b60008060408385031215611fd457600080fd5b6000611fe285828601611d99565b925050602083013567ffffffffffffffff811115611fff57600080fd5b61200b85828601611e17565b9150509250929050565b6000806040838503121561202857600080fd5b600061203685828601611d99565b925050602061204785828601611e41565b9150509250929050565b60006020828403121561206357600080fd5b600061207184828501611dc3565b91505092915050565b60006020828403121561208c57600080fd5b600061209a84828501611dd8565b91505092915050565b6000602082840312156120b557600080fd5b60006120c384828501611e41565b91505092915050565b60006120d88383612479565b60208301905092915050565b6120ed816129b6565b82525050565b60006120fe8261288f565b61210881856128bd565b93506121138361287f565b8060005b8381101561214457815161212b88826120cc565b9750612136836128b0565b925050600181019050612117565b5085935050505092915050565b61215a816129c8565b82525050565b600061216b8261289a565b61217581856128ce565b9350612185818560208601612a39565b61218e81612c05565b840191505092915050565b60006121a4826128a5565b6121ae81856128df565b93506121be818560208601612a39565b6121c781612c05565b840191505092915050565b60006121dd826128a5565b6121e781856128f0565b93506121f7818560208601612a39565b80840191505092915050565b60006122106032836128df565b915061221b82612c16565b604082019050919050565b60006122336026836128df565b915061223e82612c65565b604082019050919050565b60006122566025836128df565b915061226182612cb4565b604082019050919050565b6000612279601c836128df565b915061228482612d03565b602082019050919050565b600061229c6024836128df565b91506122a782612d2c565b604082019050919050565b60006122bf6019836128df565b91506122ca82612d7b565b602082019050919050565b60006122e2602c836128df565b91506122ed82612da4565b604082019050919050565b60006123056038836128df565b915061231082612df3565b604082019050919050565b6000612328602a836128df565b915061233382612e42565b604082019050919050565b600061234b6029836128df565b915061235682612e91565b604082019050919050565b600061236e602e836128df565b915061237982612ee0565b604082019050919050565b60006123916020836128df565b915061239c82612f2f565b602082019050919050565b60006123b46031836128df565b91506123bf82612f58565b604082019050919050565b60006123d7602c836128df565b91506123e282612fa7565b604082019050919050565b60006123fa6020836128df565b915061240582612ff6565b602082019050919050565b600061241d602f836128df565b91506124288261301f565b604082019050919050565b60006124406021836128df565b915061244b8261306e565b604082019050919050565b60006124636031836128df565b915061246e826130bd565b604082019050919050565b60208201600082015161248f6000850182612495565b50505050565b61249e81612a20565b82525050565b6124ad81612a20565b82525050565b60006124bf82856121d2565b91506124cb82846121d2565b91508190509392505050565b60006020820190506124ec60008301846120e4565b92915050565b600060808201905061250760008301876120e4565b61251460208301866120e4565b61252160408301856124a4565b81810360608301526125338184612160565b905095945050505050565b6000602082019050818103600083015261255881846120f3565b905092915050565b60006020820190506125756000830184612151565b92915050565b600060208201905081810360008301526125958184612199565b905092915050565b600060208201905081810360008301526125b681612203565b9050919050565b600060208201905081810360008301526125d681612226565b9050919050565b600060208201905081810360008301526125f681612249565b9050919050565b600060208201905081810360008301526126168161226c565b9050919050565b600060208201905081810360008301526126368161228f565b9050919050565b60006020820190508181036000830152612656816122b2565b9050919050565b60006020820190508181036000830152612676816122d5565b9050919050565b60006020820190508181036000830152612696816122f8565b9050919050565b600060208201905081810360008301526126b68161231b565b9050919050565b600060208201905081810360008301526126d68161233e565b9050919050565b600060208201905081810360008301526126f681612361565b9050919050565b6000602082019050818103600083015261271681612384565b9050919050565b60006020820190508181036000830152612736816123a7565b9050919050565b60006020820190508181036000830152612756816123ca565b9050919050565b60006020820190508181036000830152612776816123ed565b9050919050565b6000602082019050818103600083015261279681612410565b9050919050565b600060208201905081810360008301526127b681612433565b9050919050565b600060208201905081810360008301526127d681612456565b9050919050565b60006020820190506127f260008301846124a4565b92915050565b6000612802612813565b905061280e8282612a9e565b919050565b6000604051905090565b600067ffffffffffffffff82111561283857612837612bd6565b5b61284182612c05565b9050602081019050919050565b600067ffffffffffffffff82111561286957612868612bd6565b5b61287282612c05565b9050602081019050919050565b6000819050602082019050919050565b600081519050919050565b600081519050919050565b600081519050919050565b6000602082019050919050565b600082825260208201905092915050565b600082825260208201905092915050565b600082825260208201905092915050565b600081905092915050565b600061290682612a20565b915061291183612a20565b9250827fffffffffffffffffffffffffffffffffffffffffffffffffffffffffffffffff0382111561294657612945612b49565b5b828201905092915050565b600061295c82612a20565b915061296783612a20565b92508261297757612976612b78565b5b828204905092915050565b600061298d82612a20565b915061299883612a20565b9250828210156129ab576129aa612b49565b5b828203905092915050565b60006129c182612a00565b9050919050565b60008115159050919050565b60007fffffffff0000000000000000000000000000000000000000000000000000000082169050919050565b600073ffffffffffffffffffffffffffffffffffffffff82169050919050565b6000819050919050565b82818337600083830152505050565b60005b83811015612a57578082015181840152602081019050612a3c565b83811115612a66576000848401525b50505050565b60006002820490506001821680612a8457607f821691505b60208210811415612a9857612a97612ba7565b5b50919050565b612aa782612c05565b810181811067ffffffffffffffff82111715612ac657612ac5612bd6565b5b80604052505050565b6000612ada82612a20565b91507fffffffffffffffffffffffffffffffffffffffffffffffffffffffffffffffff821415612b0d57612b0c612b49565b5b600182019050919050565b6000612b2382612a20565b9150612b2e83612a20565b925082612b3e57612b3d612b78565b5b828206905092915050565b7f4e487b7100000000000000000000000000000000000000000000000000000000600052601160045260246000fd5b7f4e487b7100000000000000000000000000000000000000000000000000000000600052601260045260246000fd5b7f4e487b7100000000000000000000000000000000000000000000000000000000600052602260045260246000fd5b7f4e487b7100000000000000000000000000000000000000000000000000000000600052604160045260246000fd5b6000601f19601f8301169050919050565b7f4552433732313a207472616e7366657220746f206e6f6e20455243373231526560008201527f63656976657220696d706c656d656e7465720000000000000000000000000000602082015250565b7f4f776e61626c653a206e6577206f776e657220697320746865207a65726f206160008201527f6464726573730000000000000000000000000000000000000000000000000000602082015250565b7f4552433732313a207472616e736665722066726f6d20696e636f72726563742060008201527f6f776e6572000000000000000000000000000000000000000000000000000000602082015250565b7f4552433732313a20746f6b656e20616c7265616479206d696e74656400000000600082015250565b7f4552433732313a207472616e7366657220746f20746865207a65726f2061646460008201527f7265737300000000000000000000000000000000000000000000000000000000602082015250565b7f4552433732313a20617070726f766520746f2063616c6c657200000000000000600082015250565b7f4552433732313a206f70657261746f7220717565727920666f72206e6f6e657860008201527f697374656e7420746f6b656e0000000000000000000000000000000000000000602082015250565b7f4552433732313a20617070726f76652063616c6c6572206973206e6f74206f7760008201527f6e6572206e6f7220617070726f76656420666f7220616c6c0000000000000000602082015250565b7f4552433732313a2062616c616e636520717565727920666f7220746865207a6560008201527f726f206164647265737300000000000000000000000000000000000000000000602082015250565b7f4552433732313a206f776e657220717565727920666f72206e6f6e657869737460008201527f656e7420746f6b656e0000000000000000000000000000000000000000000000602082015250565b7f45524337323155524953746f726167653a2055524920736574206f66206e6f6e60008201527f6578697374656e7420746f6b656e000000000000000000000000000000000000602082015250565b7f4552433732313a206d696e7420746f20746865207a65726f2061646472657373600082015250565b7f45524337323155524953746f726167653a2055524920717565727920666f722060008201527f6e6f6e6578697374656e7420746f6b656e000000000000000000000000000000602082015250565b7f4552433732313a20617070726f76656420717565727920666f72206e6f6e657860008201527f697374656e7420746f6b656e0000000000000000000000000000000000000000602082015250565b7f4f776e61626c653a2063616c6c6572206973206e6f7420746865206f776e6572600082015250565b7f4552433732314d657461646174613a2055524920717565727920666f72206e6f60008201527f6e6578697374656e7420746f6b656e0000000000000000000000000000000000602082015250565b7f4552433732313a20617070726f76616c20746f2063757272656e74206f776e6560008201527f7200000000000000000000000000000000000000000000000000000000000000602082015250565b7f4552433732313a207472616e736665722063616c6c6572206973206e6f74206f60008201527f776e6572206e6f7220617070726f766564000000000000000000000000000000602082015250565b613115816129b6565b811461312057600080fd5b50565b61312c816129c8565b811461313757600080fd5b50565b613143816129d4565b811461314e57600080fd5b50565b61315a81612a20565b811461316557600080fd5b5056fea264697066735822122064c661d30601698b2623b2cb22f5ffe60eec3a67b8af59bea93a1e9eb9d73b2f64736f6c63430008040033",
  "linkReferences": {},
  "deployedLinkReferences": {}
}