{
  "_format": "hh-sol-artifact-1",
  "contractName": "Token",
  "sourceName": "contracts/Token.sol",
  "abi": [
    {
      "inputs": [],
      "stateMutability": "nonpayable",
      "type": "constructor"
    },
    {
      "anonymous": false,
      "inputs": [
        {
          "indexed": true,
          "internalType": "address",
          "name": "owner",
          "type": "address"
        },
        {
          "indexed": true,
          "internalType": "address",
          "name": "approved",
          "type": "address"
        },
        {
          "indexed": true,
          "internalType": "uint256",
          "name": "tokenId",
          "type": "uint256"
        }
      ],
      "name": "Approval",
      "type": "event"
    },
    {
      "anonymous": false,
      "inputs": [
        {
          "indexed": true,
          "internalType": "address",
          "name": "owner",
          "type": "address"
        },
        {
          "indexed": true,
          "internalType": "address",
          "name": "operator",
          "type": "address"
        },
        {
          "indexed": false,
          "internalType": "bool",
          "name": "approved",
          "type": "bool"
        }
      ],
      "name": "ApprovalForAll",
      "type": "event"
    },
    {
      "anonymous": false,
      "inputs": [
        {
          "indexed": true,
          "internalType": "address",
          "name": "previousOwner",
          "type": "address"
        },
        {
          "indexed": true,
          "internalType": "address",
          "name": "newOwner",
          "type": "address"
        }
      ],
      "name": "OwnershipTransferred",
      "type": "event"
    },
    {
      "anonymous": false,
      "inputs": [
        {
          "indexed": true,
          "internalType": "address",
          "name": "from",
          "type": "address"
        },
        {
          "indexed": true,
          "internalType": "address",
          "name": "to",
          "type": "address"
        },
        {
          "indexed": true,
          "internalType": "uint256",
          "name": "tokenId",
          "type": "uint256"
        }
      ],
      "name": "Transfer",
      "type": "event"
    },
    {
      "inputs": [
        {
          "internalType": "address",
          "name": "to",
          "type": "address"
        },
        {
          "internalType": "uint256",
          "name": "tokenId",
          "type": "uint256"
        }
      ],
      "name": "approve",
      "outputs": [],
      "stateMutability": "nonpayable",
      "type": "function"
    },
    {
      "inputs": [
        {
          "internalType": "address",
          "name": "owner",
          "type": "address"
        }
      ],
      "name": "balanceOf",
      "outputs": [
        {
          "internalType": "uint256",
          "name": "",
          "type": "uint256"
        }
      ],
      "stateMutability": "view",
      "type": "function"
    },
    {
      "inputs": [
        {
          "internalType": "uint256",
          "name": "tokenId",
          "type": "uint256"
        }
      ],
      "name": "getApproved",
      "outputs": [
        {
          "internalType": "address",
          "name": "",
          "type": "address"
        }
      ],
      "stateMutability": "view",
      "type": "function"
    },
    {
      "inputs": [],
      "name": "getTokenData",
      "outputs": [
        {
          "components": [
            {
              "internalType": "uint256",
              "name": "tokenId",
              "type": "uint256"
            }
          ],
          "internalType": "struct Token.TokenData[]",
          "name": "",
          "type": "tuple[]"
        }
      ],
      "stateMutability": "view",
      "type": "function"
    },
    {
      "inputs": [
        {
          "internalType": "address",
          "name": "owner",
          "type": "address"
        },
        {
          "internalType": "address",
          "name": "operator",
          "type": "address"
        }
      ],
      "name": "isApprovedForAll",
      "outputs": [
        {
          "internalType": "bool",
          "name": "",
          "type": "bool"
        }
      ],
      "stateMutability": "view",
      "type": "function"
    },
    {
      "inputs": [
        {
          "internalType": "string",
          "name": "tokenURI",
          "type": "string"
        }
      ],
      "name": "mintNFT",
      "outputs": [
        {
          "internalType": "uint256",
          "name": "",
          "type": "uint256"
        }
      ],
      "stateMutability": "nonpayable",
      "type": "function"
    },
    {
      "inputs": [],
      "name": "name",
      "outputs": [
        {
          "internalType": "string",
          "name": "",
          "type": "string"
        }
      ],
      "stateMutability": "view",
      "type": "function"
    },
    {
      "inputs": [],
      "name": "owner",
      "outputs": [
        {
          "internalType": "address",
          "name": "",
          "type": "address"
        }
      ],
      "stateMutability": "view",
      "type": "function"
    },
    {
      "inputs": [
        {
          "internalType": "uint256",
          "name": "tokenId",
          "type": "uint256"
        }
      ],
      "name": "ownerOf",
      "outputs": [
        {
          "internalType": "address",
          "name": "",
          "type": "address"
        }
      ],
      "stateMutability": "view",
      "type": "function"
    },
    {
      "inputs": [],
      "name": "renounceOwnership",
      "outputs": [],
      "stateMutability": "nonpayable",
      "type": "function"
    },
    {
      "inputs": [
        {
          "internalType": "address",
          "name": "from",
          "type": "address"
        },
        {
          "internalType": "address",
          "name": "to",
          "type": "address"
        },
        {
          "internalType": "uint256",
          "name": "tokenId",
          "type": "uint256"
        }
      ],
      "name": "safeTransferFrom",
      "outputs": [],
      "stateMutability": "nonpayable",
      "type": "function"
    },
    {
      "inputs": [
        {
          "internalType": "address",
          "name": "from",
          "type": "address"
        },
        {
          "internalType": "address",
          "name": "to",
          "type": "address"
        },
        {
          "internalType": "uint256",
          "name": "tokenId",
          "type": "uint256"
        },
        {
          "internalType": "bytes",
          "name": "_data",
          "type": "bytes"
        }
      ],
      "name": "safeTransferFrom",
      "outputs": [],
      "stateMutability": "nonpayable",
      "type": "function"
    },
    {
      "inputs": [
        {
          "internalType": "address",
          "name": "operator",
          "type": "address"
        },
        {
          "internalType": "bool",
          "name": "approved",
          "type": "bool"
        }
      ],
      "name": "setApprovalForAll",
      "outputs": [],
      "stateMutability": "nonpayable",
      "type": "function"
    },
    {
      "inputs": [
        {
          "internalType": "bytes4",
          "name": "interfaceId",
          "type": "bytes4"
        }
      ],
      "name": "supportsInterface",
      "outputs": [
        {
          "internalType": "bool",
          "name": "",
          "type": "bool"
        }
      ],
      "stateMutability": "view",
      "type": "function"
    },
    {
      "inputs": [],
      "name": "symbol",
      "outputs": [
        {
          "internalType": "string",
          "name": "",
          "type": "string"
        }
      ],
      "stateMutability": "view",
      "type": "function"
    },
    {
      "inputs": [
        {
          "internalType": "uint256",
          "name": "",
          "type": "uint256"
        }
      ],
      "name": "tokenData",
      "outputs": [
        {
          "internalType": "uint256",
          "name": "tokenId",
          "type": "uint256"
        }
      ],
      "stateMutability": "view",
      "type": "function"
    },
    {
      "inputs": [
        {
          "internalType": "uint256",
          "name": "tokenId",
          "type": "uint256"
        }
      ],
      "name": "tokenURI",
      "outputs": [
        {
          "internalType": "string",
          "name": "",
          "type": "string"
        }
      ],
      "stateMutability": "view",
      "type": "function"
    },
    {
      "inputs": [
        {
          "internalType": "address",
          "name": "from",
          "type": "address"
        },
        {
          "internalType": "address",
          "name": "to",
          "type": "address"
        },
        {
          "internalType": "uint256",
          "name": "tokenId",
          "type": "uint256"
        }
      ],
      "name": "transferFrom",
      "outputs": [],
      "stateMutability": "nonpayable",
      "type": "function"
    },
    {
      "inputs": [
        {
          "internalType": "address",
          "name": "newOwner",
          "type": "address"
        }
      ],
      "name": "transferOwnership",
      "outputs": [],
      "stateMutability": "nonpayable",
      "type": "function"
    }
  ],
  "bytecode": "0x60806040523480156200001157600080fd5b506040518060400160405280600a81526020017f54657374696e674e4654000000000000000000000000000000000000000000008152506040518060400160405280600481526020017f544e465400000000000000000000000000000000000000000000000000000000815250816000908051906020019062000096929190620001a6565b508060019080519060200190620000af929190620001a6565b505050620000d2620000c6620000d860201b60201c565b620000e060201b60201c565b620002bb565b600033905090565b6000600760009054906101000a900473ffffffffffffffffffffffffffffffffffffffff16905081600760006101000a81548173ffffffffffffffffffffffffffffffffffffffff021916908373ffffffffffffffffffffffffffffffffffffffff1602179055508173ffffffffffffffffffffffffffffffffffffffff168173ffffffffffffffffffffffffffffffffffffffff167f8be0079c531659141344cd1fd0a4f28419497f9722a3daafe3b4186f6b6457e060405160405180910390a35050565b828054620001b49062000256565b90600052602060002090601f016020900481019282620001d8576000855562000224565b82601f10620001f357805160ff191683800117855562000224565b8280016001018555821562000224579182015b828111156200022357825182559160200191906001019062000206565b5b50905062000233919062000237565b5090565b5b808211156200025257600081600090555060010162000238565b5090565b600060028204905060018216806200026f57607f821691505b602082108114156200028657620002856200028c565b5b50919050565b7f4e487b7100000000000000000000000000000000000000000000000000000000600052602260045260246000fd5b61315e80620002cb6000396000f3fe608060405234801561001057600080fd5b50600436106101215760003560e01c80638da5cb5b116100ad578063c87b56dd11610071578063c87b56dd14610306578063d16aad6114610336578063e985e9c514610354578063f2fde38b14610384578063fb37e883146103a057610121565b80638da5cb5b1461026257806395d89b4114610280578063a22cb4651461029e578063b4b5b48f146102ba578063b88d4fde146102ea57610121565b806323b872dd116100f457806323b872dd146101c057806342842e0e146101dc5780636352211e146101f857806370a0823114610228578063715018a61461025857610121565b806301ffc9a71461012657806306fdde0314610156578063081812fc14610174578063095ea7b3146101a4575b600080fd5b610140600480360381019061013b9190611fd0565b6103d0565b60405161014d9190612520565b60405180910390f35b61015e6104b2565b60405161016b919061253b565b60405180910390f35b61018e60048036038101906101899190612063565b610544565b60405161019b9190612497565b60405180910390f35b6101be60048036038101906101b99190611f94565b6105c9565b005b6101da60048036038101906101d59190611e8e565b6106e1565b005b6101f660048036038101906101f19190611e8e565b610741565b005b610212600480360381019061020d9190612063565b610761565b60405161021f9190612497565b60405180910390f35b610242600480360381019061023d9190611e29565b610813565b60405161024f919061279d565b60405180910390f35b6102606108cb565b005b61026a610953565b6040516102779190612497565b60405180910390f35b61028861097d565b604051610295919061253b565b60405180910390f35b6102b860048036038101906102b39190611f58565b610a0f565b005b6102d460048036038101906102cf9190612063565b610a25565b6040516102e1919061279d565b60405180910390f35b61030460048036038101906102ff9190611edd565b610a4f565b005b610320600480360381019061031b9190612063565b610ab1565b60405161032d919061253b565b60405180910390f35b61033e610c03565b60405161034b91906124fe565b60405180910390f35b61036e60048036038101906103699190611e52565b610c68565b60405161037b9190612520565b60405180910390f35b61039e60048036038101906103999190611e29565b610cfc565b005b6103ba60048036038101906103b59190612022565b610df4565b6040516103c7919061279d565b60405180910390f35b60007f80ac58cd000000000000000000000000000000000000000000000000000000007bffffffffffffffffffffffffffffffffffffffffffffffffffffffff1916827bffffffffffffffffffffffffffffffffffffffffffffffffffffffff1916148061049b57507f5b5e139f000000000000000000000000000000000000000000000000000000007bffffffffffffffffffffffffffffffffffffffffffffffffffffffff1916827bffffffffffffffffffffffffffffffffffffffffffffffffffffffff1916145b806104ab57506104aa82610e6d565b5b9050919050565b6060600080546104c190612a2c565b80601f01602080910402602001604051908101604052809291908181526020018280546104ed90612a2c565b801561053a5780601f1061050f5761010080835404028352916020019161053a565b820191906000526020600020905b81548152906001019060200180831161051d57829003601f168201915b5050505050905090565b600061054f82610ed7565b61058e576040517f08c379a0000000000000000000000000000000000000000000000000000000008152600401610585906126dd565b60405180910390fd5b6004600083815260200190815260200160002060009054906101000a900473ffffffffffffffffffffffffffffffffffffffff169050919050565b60006105d482610761565b90508073ffffffffffffffffffffffffffffffffffffffff168373ffffffffffffffffffffffffffffffffffffffff161415610645576040517f08c379a000000000000000000000000000000000000000000000000000000000815260040161063c9061275d565b60405180910390fd5b8073ffffffffffffffffffffffffffffffffffffffff16610664610f43565b73ffffffffffffffffffffffffffffffffffffffff16148061069357506106928161068d610f43565b610c68565b5b6106d2576040517f08c379a00000000000000000000000000000000000000000000000000000000081526004016106c99061261d565b60405180910390fd5b6106dc8383610f4b565b505050565b6106f26106ec610f43565b82611004565b610731576040517f08c379a00000000000000000000000000000000000000000000000000000000081526004016107289061277d565b60405180910390fd5b61073c8383836110e2565b505050565b61075c83838360405180602001604052806000815250610a4f565b505050565b6000806002600084815260200190815260200160002060009054906101000a900473ffffffffffffffffffffffffffffffffffffffff169050600073ffffffffffffffffffffffffffffffffffffffff168173ffffffffffffffffffffffffffffffffffffffff16141561080a576040517f08c379a00000000000000000000000000000000000000000000000000000000081526004016108019061265d565b60405180910390fd5b80915050919050565b60008073ffffffffffffffffffffffffffffffffffffffff168273ffffffffffffffffffffffffffffffffffffffff161415610884576040517f08c379a000000000000000000000000000000000000000000000000000000000815260040161087b9061263d565b60405180910390fd5b600360008373ffffffffffffffffffffffffffffffffffffffff1673ffffffffffffffffffffffffffffffffffffffff168152602001908152602001600020549050919050565b6108d3610f43565b73ffffffffffffffffffffffffffffffffffffffff166108f1610953565b73ffffffffffffffffffffffffffffffffffffffff1614610947576040517f08c379a000000000000000000000000000000000000000000000000000000000815260040161093e906126fd565b60405180910390fd5b610951600061133e565b565b6000600760009054906101000a900473ffffffffffffffffffffffffffffffffffffffff16905090565b60606001805461098c90612a2c565b80601f01602080910402602001604051908101604052809291908181526020018280546109b890612a2c565b8015610a055780601f106109da57610100808354040283529160200191610a05565b820191906000526020600020905b8154815290600101906020018083116109e857829003601f168201915b5050505050905090565b610a21610a1a610f43565b8383611404565b5050565b60098181548110610a3557600080fd5b906000526020600020016000915090508060000154905081565b610a60610a5a610f43565b83611004565b610a9f576040517f08c379a0000000000000000000000000000000000000000000000000000000008152600401610a969061277d565b60405180910390fd5b610aab84848484611571565b50505050565b6060610abc82610ed7565b610afb576040517f08c379a0000000000000000000000000000000000000000000000000000000008152600401610af2906126bd565b60405180910390fd5b6000600660008481526020019081526020016000208054610b1b90612a2c565b80601f0160208091040260200160405190810160405280929190818152602001828054610b4790612a2c565b8015610b945780601f10610b6957610100808354040283529160200191610b94565b820191906000526020600020905b815481529060010190602001808311610b7757829003601f168201915b505050505090506000610ba56115cd565b9050600081511415610bbb578192505050610bfe565b600082511115610bf0578082604051602001610bd8929190612473565b60405160208183030381529060405292505050610bfe565b610bf9846115e4565b925050505b919050565b60606009805480602002602001604051908101604052809291908181526020016000905b82821015610c5f5783829060005260206000200160405180602001604052908160008201548152505081526020019060010190610c27565b50505050905090565b6000600560008473ffffffffffffffffffffffffffffffffffffffff1673ffffffffffffffffffffffffffffffffffffffff16815260200190815260200160002060008373ffffffffffffffffffffffffffffffffffffffff1673ffffffffffffffffffffffffffffffffffffffff16815260200190815260200160002060009054906101000a900460ff16905092915050565b610d04610f43565b73ffffffffffffffffffffffffffffffffffffffff16610d22610953565b73ffffffffffffffffffffffffffffffffffffffff1614610d78576040517f08c379a0000000000000000000000000000000000000000000000000000000008152600401610d6f906126fd565b60405180910390fd5b600073ffffffffffffffffffffffffffffffffffffffff168173ffffffffffffffffffffffffffffffffffffffff161415610de8576040517f08c379a0000000000000000000000000000000000000000000000000000000008152600401610ddf9061257d565b60405180910390fd5b610df18161133e565b50565b6000610e00600861168b565b6000610e0c60086116a1565b9050600960405180602001604052808381525090806001815401808255809150506001900390600052602060002001600090919091909150600082015181600001555050610e5a33826116af565b610e64818461187d565b80915050919050565b60007f01ffc9a7000000000000000000000000000000000000000000000000000000007bffffffffffffffffffffffffffffffffffffffffffffffffffffffff1916827bffffffffffffffffffffffffffffffffffffffffffffffffffffffff1916149050919050565b60008073ffffffffffffffffffffffffffffffffffffffff166002600084815260200190815260200160002060009054906101000a900473ffffffffffffffffffffffffffffffffffffffff1673ffffffffffffffffffffffffffffffffffffffff1614159050919050565b600033905090565b816004600083815260200190815260200160002060006101000a81548173ffffffffffffffffffffffffffffffffffffffff021916908373ffffffffffffffffffffffffffffffffffffffff160217905550808273ffffffffffffffffffffffffffffffffffffffff16610fbe83610761565b73ffffffffffffffffffffffffffffffffffffffff167f8c5be1e5ebec7d5bd14f71427d1e84f3dd0314c0f7b2291e5b200ac8c7c3b92560405160405180910390a45050565b600061100f82610ed7565b61104e576040517f08c379a0000000000000000000000000000000000000000000000000000000008152600401611045906125fd565b60405180910390fd5b600061105983610761565b90508073ffffffffffffffffffffffffffffffffffffffff168473ffffffffffffffffffffffffffffffffffffffff1614806110c857508373ffffffffffffffffffffffffffffffffffffffff166110b084610544565b73ffffffffffffffffffffffffffffffffffffffff16145b806110d957506110d88185610c68565b5b91505092915050565b8273ffffffffffffffffffffffffffffffffffffffff1661110282610761565b73ffffffffffffffffffffffffffffffffffffffff1614611158576040517f08c379a000000000000000000000000000000000000000000000000000000000815260040161114f9061271d565b60405180910390fd5b600073ffffffffffffffffffffffffffffffffffffffff168273ffffffffffffffffffffffffffffffffffffffff1614156111c8576040517f08c379a00000000000000000000000000000000000000000000000000000000081526004016111bf906125bd565b60405180910390fd5b6111d38383836118f1565b6111de600082610f4b565b6001600360008573ffffffffffffffffffffffffffffffffffffffff1673ffffffffffffffffffffffffffffffffffffffff168152602001908152602001600020600082825461122e9190612942565b925050819055506001600360008473ffffffffffffffffffffffffffffffffffffffff1673ffffffffffffffffffffffffffffffffffffffff168152602001908152602001600020600082825461128591906128bb565b92505081905550816002600083815260200190815260200160002060006101000a81548173ffffffffffffffffffffffffffffffffffffffff021916908373ffffffffffffffffffffffffffffffffffffffff160217905550808273ffffffffffffffffffffffffffffffffffffffff168473ffffffffffffffffffffffffffffffffffffffff167fddf252ad1be2c89b69c2b068fc378daa952ba7f163c4a11628f55a4df523b3ef60405160405180910390a4505050565b6000600760009054906101000a900473ffffffffffffffffffffffffffffffffffffffff16905081600760006101000a81548173ffffffffffffffffffffffffffffffffffffffff021916908373ffffffffffffffffffffffffffffffffffffffff1602179055508173ffffffffffffffffffffffffffffffffffffffff168173ffffffffffffffffffffffffffffffffffffffff167f8be0079c531659141344cd1fd0a4f28419497f9722a3daafe3b4186f6b6457e060405160405180910390a35050565b8173ffffffffffffffffffffffffffffffffffffffff168373ffffffffffffffffffffffffffffffffffffffff161415611473576040517f08c379a000000000000000000000000000000000000000000000000000000000815260040161146a906125dd565b60405180910390fd5b80600560008573ffffffffffffffffffffffffffffffffffffffff1673ffffffffffffffffffffffffffffffffffffffff16815260200190815260200160002060008473ffffffffffffffffffffffffffffffffffffffff1673ffffffffffffffffffffffffffffffffffffffff16815260200190815260200160002060006101000a81548160ff0219169083151502179055508173ffffffffffffffffffffffffffffffffffffffff168373ffffffffffffffffffffffffffffffffffffffff167f17307eab39ab6107e8899845ad3d59bd9653f200f220920489ca2b5937696c31836040516115649190612520565b60405180910390a3505050565b61157c8484846110e2565b611588848484846118f6565b6115c7576040517f08c379a00000000000000000000000000000000000000000000000000000000081526004016115be9061255d565b60405180910390fd5b50505050565b606060405180602001604052806000815250905090565b60606115ef82610ed7565b61162e576040517f08c379a00000000000000000000000000000000000000000000000000000000081526004016116259061273d565b60405180910390fd5b60006116386115cd565b905060008151116116585760405180602001604052806000815250611683565b8061166284611a8d565b604051602001611673929190612473565b6040516020818303038152906040525b915050919050565b6001816000016000828254019250508190555050565b600081600001549050919050565b600073ffffffffffffffffffffffffffffffffffffffff168273ffffffffffffffffffffffffffffffffffffffff16141561171f576040517f08c379a00000000000000000000000000000000000000000000000000000000081526004016117169061269d565b60405180910390fd5b61172881610ed7565b15611768576040517f08c379a000000000000000000000000000000000000000000000000000000000815260040161175f9061259d565b60405180910390fd5b611774600083836118f1565b6001600360008473ffffffffffffffffffffffffffffffffffffffff1673ffffffffffffffffffffffffffffffffffffffff16815260200190815260200160002060008282546117c491906128bb565b92505081905550816002600083815260200190815260200160002060006101000a81548173ffffffffffffffffffffffffffffffffffffffff021916908373ffffffffffffffffffffffffffffffffffffffff160217905550808273ffffffffffffffffffffffffffffffffffffffff16600073ffffffffffffffffffffffffffffffffffffffff167fddf252ad1be2c89b69c2b068fc378daa952ba7f163c4a11628f55a4df523b3ef60405160405180910390a45050565b61188682610ed7565b6118c5576040517f08c379a00000000000000000000000000000000000000000000000000000000081526004016118bc9061267d565b60405180910390fd5b806006600084815260200190815260200160002090805190602001906118ec929190611c4d565b505050565b505050565b60006119178473ffffffffffffffffffffffffffffffffffffffff16611c3a565b15611a80578373ffffffffffffffffffffffffffffffffffffffff1663150b7a02611940610f43565b8786866040518563ffffffff1660e01b815260040161196294939291906124b2565b602060405180830381600087803b15801561197c57600080fd5b505af19250505080156119ad57506040513d601f19601f820116820180604052508101906119aa9190611ff9565b60015b611a30573d80600081146119dd576040519150601f19603f3d011682016040523d82523d6000602084013e6119e2565b606091505b50600081511415611a28576040517f08c379a0000000000000000000000000000000000000000000000000000000008152600401611a1f9061255d565b60405180910390fd5b805181602001fd5b63150b7a0260e01b7bffffffffffffffffffffffffffffffffffffffffffffffffffffffff1916817bffffffffffffffffffffffffffffffffffffffffffffffffffffffff191614915050611a85565b600190505b949350505050565b60606000821415611ad5576040518060400160405280600181526020017f30000000000000000000000000000000000000000000000000000000000000008152509050611c35565b600082905060005b60008214611b07578080611af090612a8f565b915050600a82611b009190612911565b9150611add565b60008167ffffffffffffffff811115611b49577f4e487b7100000000000000000000000000000000000000000000000000000000600052604160045260246000fd5b6040519080825280601f01601f191660200182016040528015611b7b5781602001600182028036833780820191505090505b5090505b60008514611c2e57600182611b949190612942565b9150600a85611ba39190612ad8565b6030611baf91906128bb565b60f81b818381518110611beb577f4e487b7100000000000000000000000000000000000000000000000000000000600052603260045260246000fd5b60200101907effffffffffffffffffffffffffffffffffffffffffffffffffffffffffffff1916908160001a905350600a85611c279190612911565b9450611b7f565b8093505050505b919050565b600080823b905060008111915050919050565b828054611c5990612a2c565b90600052602060002090601f016020900481019282611c7b5760008555611cc2565b82601f10611c9457805160ff1916838001178555611cc2565b82800160010185558215611cc2579182015b82811115611cc1578251825591602001919060010190611ca6565b5b509050611ccf9190611cd3565b5090565b5b80821115611cec576000816000905550600101611cd4565b5090565b6000611d03611cfe846127dd565b6127b8565b905082815260208101848484011115611d1b57600080fd5b611d268482856129ea565b509392505050565b6000611d41611d3c8461280e565b6127b8565b905082815260208101848484011115611d5957600080fd5b611d648482856129ea565b509392505050565b600081359050611d7b816130cc565b92915050565b600081359050611d90816130e3565b92915050565b600081359050611da5816130fa565b92915050565b600081519050611dba816130fa565b92915050565b600082601f830112611dd157600080fd5b8135611de1848260208601611cf0565b91505092915050565b600082601f830112611dfb57600080fd5b8135611e0b848260208601611d2e565b91505092915050565b600081359050611e2381613111565b92915050565b600060208284031215611e3b57600080fd5b6000611e4984828501611d6c565b91505092915050565b60008060408385031215611e6557600080fd5b6000611e7385828601611d6c565b9250506020611e8485828601611d6c565b9150509250929050565b600080600060608486031215611ea357600080fd5b6000611eb186828701611d6c565b9350506020611ec286828701611d6c565b9250506040611ed386828701611e14565b9150509250925092565b60008060008060808587031215611ef357600080fd5b6000611f0187828801611d6c565b9450506020611f1287828801611d6c565b9350506040611f2387828801611e14565b925050606085013567ffffffffffffffff811115611f4057600080fd5b611f4c87828801611dc0565b91505092959194509250565b60008060408385031215611f6b57600080fd5b6000611f7985828601611d6c565b9250506020611f8a85828601611d81565b9150509250929050565b60008060408385031215611fa757600080fd5b6000611fb585828601611d6c565b9250506020611fc685828601611e14565b9150509250929050565b600060208284031215611fe257600080fd5b6000611ff084828501611d96565b91505092915050565b60006020828403121561200b57600080fd5b600061201984828501611dab565b91505092915050565b60006020828403121561203457600080fd5b600082013567ffffffffffffffff81111561204e57600080fd5b61205a84828501611dea565b91505092915050565b60006020828403121561207557600080fd5b600061208384828501611e14565b91505092915050565b60006120988383612439565b60208301905092915050565b6120ad81612976565b82525050565b60006120be8261284f565b6120c8818561287d565b93506120d38361283f565b8060005b838110156121045781516120eb888261208c565b97506120f683612870565b9250506001810190506120d7565b5085935050505092915050565b61211a81612988565b82525050565b600061212b8261285a565b612135818561288e565b93506121458185602086016129f9565b61214e81612bc5565b840191505092915050565b600061216482612865565b61216e818561289f565b935061217e8185602086016129f9565b61218781612bc5565b840191505092915050565b600061219d82612865565b6121a781856128b0565b93506121b78185602086016129f9565b80840191505092915050565b60006121d060328361289f565b91506121db82612bd6565b604082019050919050565b60006121f360268361289f565b91506121fe82612c25565b604082019050919050565b6000612216601c8361289f565b915061222182612c74565b602082019050919050565b600061223960248361289f565b915061224482612c9d565b604082019050919050565b600061225c60198361289f565b915061226782612cec565b602082019050919050565b600061227f602c8361289f565b915061228a82612d15565b604082019050919050565b60006122a260388361289f565b91506122ad82612d64565b604082019050919050565b60006122c5602a8361289f565b91506122d082612db3565b604082019050919050565b60006122e860298361289f565b91506122f382612e02565b604082019050919050565b600061230b602e8361289f565b915061231682612e51565b604082019050919050565b600061232e60208361289f565b915061233982612ea0565b602082019050919050565b600061235160318361289f565b915061235c82612ec9565b604082019050919050565b6000612374602c8361289f565b915061237f82612f18565b604082019050919050565b600061239760208361289f565b91506123a282612f67565b602082019050919050565b60006123ba60298361289f565b91506123c582612f90565b604082019050919050565b60006123dd602f8361289f565b91506123e882612fdf565b604082019050919050565b600061240060218361289f565b915061240b8261302e565b604082019050919050565b600061242360318361289f565b915061242e8261307d565b604082019050919050565b60208201600082015161244f6000850182612455565b50505050565b61245e816129e0565b82525050565b61246d816129e0565b82525050565b600061247f8285612192565b915061248b8284612192565b91508190509392505050565b60006020820190506124ac60008301846120a4565b92915050565b60006080820190506124c760008301876120a4565b6124d460208301866120a4565b6124e16040830185612464565b81810360608301526124f38184612120565b905095945050505050565b6000602082019050818103600083015261251881846120b3565b905092915050565b60006020820190506125356000830184612111565b92915050565b600060208201905081810360008301526125558184612159565b905092915050565b60006020820190508181036000830152612576816121c3565b9050919050565b60006020820190508181036000830152612596816121e6565b9050919050565b600060208201905081810360008301526125b681612209565b9050919050565b600060208201905081810360008301526125d68161222c565b9050919050565b600060208201905081810360008301526125f68161224f565b9050919050565b6000602082019050818103600083015261261681612272565b9050919050565b6000602082019050818103600083015261263681612295565b9050919050565b60006020820190508181036000830152612656816122b8565b9050919050565b60006020820190508181036000830152612676816122db565b9050919050565b60006020820190508181036000830152612696816122fe565b9050919050565b600060208201905081810360008301526126b681612321565b9050919050565b600060208201905081810360008301526126d681612344565b9050919050565b600060208201905081810360008301526126f681612367565b9050919050565b600060208201905081810360008301526127168161238a565b9050919050565b60006020820190508181036000830152612736816123ad565b9050919050565b60006020820190508181036000830152612756816123d0565b9050919050565b60006020820190508181036000830152612776816123f3565b9050919050565b6000602082019050818103600083015261279681612416565b9050919050565b60006020820190506127b26000830184612464565b92915050565b60006127c26127d3565b90506127ce8282612a5e565b919050565b6000604051905090565b600067ffffffffffffffff8211156127f8576127f7612b96565b5b61280182612bc5565b9050602081019050919050565b600067ffffffffffffffff82111561282957612828612b96565b5b61283282612bc5565b9050602081019050919050565b6000819050602082019050919050565b600081519050919050565b600081519050919050565b600081519050919050565b6000602082019050919050565b600082825260208201905092915050565b600082825260208201905092915050565b600082825260208201905092915050565b600081905092915050565b60006128c6826129e0565b91506128d1836129e0565b9250827fffffffffffffffffffffffffffffffffffffffffffffffffffffffffffffffff0382111561290657612905612b09565b5b828201905092915050565b600061291c826129e0565b9150612927836129e0565b92508261293757612936612b38565b5b828204905092915050565b600061294d826129e0565b9150612958836129e0565b92508282101561296b5761296a612b09565b5b828203905092915050565b6000612981826129c0565b9050919050565b60008115159050919050565b60007fffffffff0000000000000000000000000000000000000000000000000000000082169050919050565b600073ffffffffffffffffffffffffffffffffffffffff82169050919050565b6000819050919050565b82818337600083830152505050565b60005b83811015612a175780820151818401526020810190506129fc565b83811115612a26576000848401525b50505050565b60006002820490506001821680612a4457607f821691505b60208210811415612a5857612a57612b67565b5b50919050565b612a6782612bc5565b810181811067ffffffffffffffff82111715612a8657612a85612b96565b5b80604052505050565b6000612a9a826129e0565b91507fffffffffffffffffffffffffffffffffffffffffffffffffffffffffffffffff821415612acd57612acc612b09565b5b600182019050919050565b6000612ae3826129e0565b9150612aee836129e0565b925082612afe57612afd612b38565b5b828206905092915050565b7f4e487b7100000000000000000000000000000000000000000000000000000000600052601160045260246000fd5b7f4e487b7100000000000000000000000000000000000000000000000000000000600052601260045260246000fd5b7f4e487b7100000000000000000000000000000000000000000000000000000000600052602260045260246000fd5b7f4e487b7100000000000000000000000000000000000000000000000000000000600052604160045260246000fd5b6000601f19601f8301169050919050565b7f4552433732313a207472616e7366657220746f206e6f6e20455243373231526560008201527f63656976657220696d706c656d656e7465720000000000000000000000000000602082015250565b7f4f776e61626c653a206e6577206f776e657220697320746865207a65726f206160008201527f6464726573730000000000000000000000000000000000000000000000000000602082015250565b7f4552433732313a20746f6b656e20616c7265616479206d696e74656400000000600082015250565b7f4552433732313a207472616e7366657220746f20746865207a65726f2061646460008201527f7265737300000000000000000000000000000000000000000000000000000000602082015250565b7f4552433732313a20617070726f766520746f2063616c6c657200000000000000600082015250565b7f4552433732313a206f70657261746f7220717565727920666f72206e6f6e657860008201527f697374656e7420746f6b656e0000000000000000000000000000000000000000602082015250565b7f4552433732313a20617070726f76652063616c6c6572206973206e6f74206f7760008201527f6e6572206e6f7220617070726f76656420666f7220616c6c0000000000000000602082015250565b7f4552433732313a2062616c616e636520717565727920666f7220746865207a6560008201527f726f206164647265737300000000000000000000000000000000000000000000602082015250565b7f4552433732313a206f776e657220717565727920666f72206e6f6e657869737460008201527f656e7420746f6b656e0000000000000000000000000000000000000000000000602082015250565b7f45524337323155524953746f726167653a2055524920736574206f66206e6f6e60008201527f6578697374656e7420746f6b656e000000000000000000000000000000000000602082015250565b7f4552433732313a206d696e7420746f20746865207a65726f2061646472657373600082015250565b7f45524337323155524953746f726167653a2055524920717565727920666f722060008201527f6e6f6e6578697374656e7420746f6b656e000000000000000000000000000000602082015250565b7f4552433732313a20617070726f76656420717565727920666f72206e6f6e657860008201527f697374656e7420746f6b656e0000000000000000000000000000000000000000602082015250565b7f4f776e61626c653a2063616c6c6572206973206e6f7420746865206f776e6572600082015250565b7f4552433732313a207472616e73666572206f6620746f6b656e2074686174206960008201527f73206e6f74206f776e0000000000000000000000000000000000000000000000602082015250565b7f4552433732314d657461646174613a2055524920717565727920666f72206e6f60008201527f6e6578697374656e7420746f6b656e0000000000000000000000000000000000602082015250565b7f4552433732313a20617070726f76616c20746f2063757272656e74206f776e6560008201527f7200000000000000000000000000000000000000000000000000000000000000602082015250565b7f4552433732313a207472616e736665722063616c6c6572206973206e6f74206f60008201527f776e6572206e6f7220617070726f766564000000000000000000000000000000602082015250565b6130d581612976565b81146130e057600080fd5b50565b6130ec81612988565b81146130f757600080fd5b50565b61310381612994565b811461310e57600080fd5b50565b61311a816129e0565b811461312557600080fd5b5056fea2646970667358221220d82cf57b7c03ffc92c3fff7722a46daf8b5c8c16d11155837a474b0600892bfb64736f6c63430008040033",
  "linkReferences": {},
  "deployedLinkReferences": {}
}